{
  "_format": "hh-sol-artifact-1",
  "contractName": "ConfigManager",
  "sourceName": "contracts/ConfigManager.sol",
  "abi": [
    {
      "inputs": [],
      "stateMutability": "nonpayable",
      "type": "constructor"
    },
    {
      "inputs": [],
      "name": "ConfigManager__NotOwner",
      "type": "error"
    },
    {
      "inputs": [
        {
          "internalType": "bytes32",
          "name": "key",
          "type": "bytes32"
        },
        {
          "internalType": "uint256",
          "name": "value",
          "type": "uint256"
        }
      ],
      "name": "ConfigManager__OutOfBounds",
      "type": "error"
    },
    {
      "inputs": [
        {
          "internalType": "bytes32",
          "name": "key",
          "type": "bytes32"
        }
      ],
      "name": "ConfigManager__zeroAddress",
      "type": "error"
    },
    {
      "anonymous": false,
      "inputs": [
        {
          "indexed": true,
          "internalType": "bytes32",
          "name": "key",
          "type": "bytes32"
        },
        {
          "indexed": false,
          "internalType": "address",
          "name": "oldValue",
          "type": "address"
        },
        {
          "indexed": false,
          "internalType": "address",
          "name": "newValue",
          "type": "address"
        }
      ],
      "name": "AddressUpdated",
      "type": "event"
    },
    {
      "anonymous": false,
      "inputs": [
        {
          "indexed": true,
          "internalType": "bytes32",
          "name": "key",
          "type": "bytes32"
        },
        {
          "indexed": false,
          "internalType": "uint256",
          "name": "oldValue",
          "type": "uint256"
        },
        {
          "indexed": false,
          "internalType": "uint256",
          "name": "newValue",
          "type": "uint256"
        }
      ],
      "name": "ConfigUpdated",
      "type": "event"
    },
    {
      "inputs": [
        {
          "internalType": "address",
          "name": "_venue",
          "type": "address"
        }
      ],
      "name": "addAllowedVenue",
      "outputs": [
        {
          "internalType": "bool",
          "name": "success",
          "type": "bool"
        }
      ],
      "stateMutability": "nonpayable",
      "type": "function"
    },
    {
      "inputs": [],
      "name": "allocator",
      "outputs": [
        {
          "internalType": "address",
          "name": "",
          "type": "address"
        }
      ],
      "stateMutability": "view",
      "type": "function"
    },
    {
      "inputs": [
        {
          "internalType": "uint256",
          "name": "",
          "type": "uint256"
        }
      ],
      "name": "allowedVenues",
      "outputs": [
        {
          "internalType": "address",
          "name": "",
          "type": "address"
        }
      ],
      "stateMutability": "view",
      "type": "function"
    },
    {
      "inputs": [],
      "name": "epochDuration",
      "outputs": [
        {
          "internalType": "uint8",
          "name": "",
          "type": "uint8"
        }
      ],
      "stateMutability": "view",
      "type": "function"
    },
    {
      "inputs": [],
      "name": "feeRecipient",
      "outputs": [
        {
          "internalType": "address",
          "name": "",
          "type": "address"
        }
      ],
      "stateMutability": "view",
      "type": "function"
    },
    {
      "inputs": [],
      "name": "harvester",
      "outputs": [
        {
          "internalType": "address",
          "name": "",
          "type": "address"
        }
      ],
      "stateMutability": "view",
      "type": "function"
    },
    {
      "inputs": [],
      "name": "liquidityBufferBps",
      "outputs": [
        {
          "internalType": "uint16",
          "name": "",
          "type": "uint16"
        }
      ],
      "stateMutability": "view",
      "type": "function"
    },
    {
      "inputs": [],
      "name": "maxSlippageBps",
      "outputs": [
        {
          "internalType": "uint8",
          "name": "",
          "type": "uint8"
        }
      ],
      "stateMutability": "view",
      "type": "function"
    },
    {
      "inputs": [],
      "name": "owner",
      "outputs": [
        {
          "internalType": "address",
          "name": "",
          "type": "address"
        }
      ],
      "stateMutability": "view",
      "type": "function"
    },
    {
      "inputs": [],
      "name": "pauser",
      "outputs": [
        {
          "internalType": "address",
          "name": "",
          "type": "address"
        }
      ],
      "stateMutability": "view",
      "type": "function"
    },
    {
      "inputs": [],
      "name": "perTxCap",
      "outputs": [
        {
          "internalType": "uint256",
          "name": "",
          "type": "uint256"
        }
      ],
      "stateMutability": "view",
      "type": "function"
    },
    {
      "inputs": [],
      "name": "performanceFeeBps",
      "outputs": [
        {
          "internalType": "uint32",
          "name": "",
          "type": "uint32"
        }
      ],
      "stateMutability": "view",
      "type": "function"
    },
    {
      "inputs": [],
      "name": "primaryOracle",
      "outputs": [
        {
          "internalType": "address",
          "name": "",
          "type": "address"
        }
      ],
      "stateMutability": "view",
      "type": "function"
    },
    {
      "inputs": [
        {
          "internalType": "address",
          "name": "_newAllocator",
          "type": "address"
        }
      ],
      "name": "setAllocator",
      "outputs": [
        {
          "internalType": "bool",
          "name": "success",
          "type": "bool"
        }
      ],
      "stateMutability": "nonpayable",
      "type": "function"
    },
    {
      "inputs": [
        {
          "internalType": "uint8",
          "name": "_newEpochDuration",
          "type": "uint8"
        }
      ],
      "name": "setEpochDuration",
      "outputs": [
        {
          "internalType": "bool",
          "name": "success",
          "type": "bool"
        }
      ],
      "stateMutability": "nonpayable",
      "type": "function"
    },
    {
      "inputs": [
        {
          "internalType": "address",
          "name": "_newFeeRecipient",
          "type": "address"
        }
      ],
      "name": "setFeeRecipient",
      "outputs": [
        {
          "internalType": "bool",
          "name": "success",
          "type": "bool"
        }
      ],
      "stateMutability": "nonpayable",
      "type": "function"
    },
    {
      "inputs": [
        {
          "internalType": "address",
          "name": "_newHarvester",
          "type": "address"
        }
      ],
      "name": "setHarvester",
      "outputs": [
        {
          "internalType": "bool",
          "name": "success",
          "type": "bool"
        }
      ],
      "stateMutability": "nonpayable",
      "type": "function"
    },
    {
      "inputs": [
        {
          "internalType": "uint16",
          "name": "_newLiquidityBufferBps",
          "type": "uint16"
        }
      ],
      "name": "setLiquidityBufferBps",
      "outputs": [
        {
          "internalType": "bool",
          "name": "success",
          "type": "bool"
        }
      ],
      "stateMutability": "nonpayable",
      "type": "function"
    },
    {
      "inputs": [
        {
          "internalType": "uint8",
          "name": "_newMaxSlippageBps",
          "type": "uint8"
        }
      ],
      "name": "setMaxSlippageBps",
      "outputs": [
        {
          "internalType": "bool",
          "name": "success",
          "type": "bool"
        }
      ],
      "stateMutability": "nonpayable",
      "type": "function"
    },
    {
      "inputs": [
        {
          "internalType": "address",
          "name": "_newOwner",
          "type": "address"
        }
      ],
      "name": "setOwner",
      "outputs": [
        {
          "internalType": "bool",
          "name": "success",
          "type": "bool"
        }
      ],
      "stateMutability": "nonpayable",
      "type": "function"
    },
    {
      "inputs": [
        {
          "internalType": "address",
          "name": "_newPauser",
          "type": "address"
        }
      ],
      "name": "setPauser",
      "outputs": [
        {
          "internalType": "bool",
          "name": "success",
          "type": "bool"
        }
      ],
      "stateMutability": "nonpayable",
      "type": "function"
    },
    {
      "inputs": [
        {
          "internalType": "uint256",
          "name": "_newPerTxCap",
          "type": "uint256"
        }
      ],
      "name": "setPerTxCap",
      "outputs": [
        {
          "internalType": "bool",
          "name": "success",
          "type": "bool"
        }
      ],
      "stateMutability": "nonpayable",
      "type": "function"
    },
    {
      "inputs": [
        {
          "internalType": "uint32",
          "name": "_newPerformanceFeeBps",
          "type": "uint32"
        }
      ],
      "name": "setPerformanceFeeBps",
      "outputs": [
        {
          "internalType": "bool",
          "name": "success",
          "type": "bool"
        }
      ],
      "stateMutability": "nonpayable",
      "type": "function"
    },
    {
      "inputs": [
        {
          "internalType": "address",
          "name": "_newPrimaryOracle",
          "type": "address"
        }
      ],
      "name": "setPrimaryOracle",
      "outputs": [
        {
          "internalType": "bool",
          "name": "success",
          "type": "bool"
        }
      ],
      "stateMutability": "nonpayable",
      "type": "function"
    },
    {
      "inputs": [
        {
          "internalType": "uint32",
          "name": "_newSettlementWindowUTC",
          "type": "uint32"
        }
      ],
      "name": "setSettlementWindowUTC",
      "outputs": [
        {
          "internalType": "bool",
          "name": "success",
          "type": "bool"
        }
      ],
      "stateMutability": "nonpayable",
      "type": "function"
    },
    {
      "inputs": [
        {
          "internalType": "uint256",
          "name": "_newStrategyCapS1",
          "type": "uint256"
        }
      ],
      "name": "setStrategyCapS1",
      "outputs": [
        {
          "internalType": "bool",
          "name": "success",
          "type": "bool"
        }
      ],
      "stateMutability": "nonpayable",
      "type": "function"
    },
    {
      "inputs": [
        {
          "internalType": "uint256",
          "name": "_newStrategyCapS2",
          "type": "uint256"
        }
      ],
      "name": "setStrategyCapS2",
      "outputs": [
        {
          "internalType": "bool",
          "name": "success",
          "type": "bool"
        }
      ],
      "stateMutability": "nonpayable",
      "type": "function"
    },
    {
      "inputs": [
        {
          "internalType": "uint256",
          "name": "_newStrategyCapS3",
          "type": "uint256"
        }
      ],
      "name": "setStrategyCapS3",
      "outputs": [
        {
          "internalType": "bool",
          "name": "success",
          "type": "bool"
        }
      ],
      "stateMutability": "nonpayable",
      "type": "function"
    },
    {
      "inputs": [
        {
          "internalType": "uint256",
          "name": "_newTvlGlobalCap",
          "type": "uint256"
        }
      ],
      "name": "setTvlGlobalCap",
      "outputs": [
        {
          "internalType": "bool",
          "name": "success",
          "type": "bool"
        }
      ],
      "stateMutability": "nonpayable",
      "type": "function"
    },
    {
      "inputs": [],
      "name": "settlementWindowUTC",
      "outputs": [
        {
          "internalType": "uint32",
          "name": "",
          "type": "uint32"
        }
      ],
      "stateMutability": "view",
      "type": "function"
    },
    {
      "inputs": [],
      "name": "strategyCapS1",
      "outputs": [
        {
          "internalType": "uint256",
          "name": "",
          "type": "uint256"
        }
      ],
      "stateMutability": "view",
      "type": "function"
    },
    {
      "inputs": [],
      "name": "strategyCapS2",
      "outputs": [
        {
          "internalType": "uint256",
          "name": "",
          "type": "uint256"
        }
      ],
      "stateMutability": "view",
      "type": "function"
    },
    {
      "inputs": [],
      "name": "strategyCapS3",
      "outputs": [
        {
          "internalType": "uint256",
          "name": "",
          "type": "uint256"
        }
      ],
      "stateMutability": "view",
      "type": "function"
    },
    {
      "inputs": [],
      "name": "tvlGlobalCap",
      "outputs": [
        {
          "internalType": "uint256",
          "name": "",
          "type": "uint256"
        }
      ],
      "stateMutability": "view",
      "type": "function"
    }
  ],
  "bytecode": "0x60806040526104b0600060146101000a81548161ffff021916908361ffff160217905550601e600060166101000a81548160ff021916908360ff16021790555064174876e80060015564012a05f2006002556109c4600360006101000a81548163ffffffff021916908363ffffffff1602179055506007600360046101000a81548160ff021916908360ff16021790555061a8c0600360056101000a81548163ffffffff021916908363ffffffff16021790555064174876e800600455640ba43b74006005556405d21dba006006553480156100da57600080fd5b50336000806101000a81548173ffffffffffffffffffffffffffffffffffffffff021916908373ffffffffffffffffffffffffffffffffffffffff160217905550612b358061012a6000396000f3fe608060405234801561001057600080fd5b50600436106102065760003560e01c8063969c21ae1161011a578063bf83f2a2116100ad578063e104415a1161007c578063e104415a1461065b578063e74b981b1461068b578063f2188066146106bb578063f2c67391146106eb578063f88181421461071b57610206565b8063bf83f2a2146105bf578063c4aa7395146105ef578063c796575f1461060d578063d5540b091461062b57610206565b8063b2bf3adf116100e9578063b2bf3adf14610535578063b6af85da14610565578063b9d4e87914610583578063bd8f238e146105a157610206565b8063969c21ae146104ab5780639fd0506d146104db578063aa5dcecc146104f9578063ad82cbea1461051757610206565b8063491b68ac1161019d5780636d81c6961161016c5780636d81c696146103df5780637b5bf2db146103fd5780638da5cb5b1461042d5780639164cf601461044b578063930fc1361461047b57610206565b8063491b68ac146103555780634bdaeac1146103855780634ff0876a146103a35780635c145aea146103c157610206565b80632d88af4a116101d95780632d88af4a146102b957806331e82806146102e957806341729cee14610319578063469048401461033757610206565b806313af40351461020b57806315de1daa1461023b5780631860b8d01461026b578063214c4c351461029b575b600080fd5b6102256004803603810190610220919061254c565b61074b565b6040516102329190612594565b60405180910390f35b6102556004803603810190610250919061254c565b61090c565b6040516102629190612594565b60405180910390f35b610285600480360381019061028091906125eb565b610af1565b6040516102929190612594565b60405180910390f35b6102a3610c91565b6040516102b09190612631565b60405180910390f35b6102d360048036038101906102ce919061254c565b610c97565b6040516102e09190612594565b60405180910390f35b61030360048036038101906102fe9190612678565b610e7c565b60405161031091906126b4565b60405180910390f35b610321610ebb565b60405161032e9190612631565b60405180910390f35b61033f610ec1565b60405161034c91906126b4565b60405180910390f35b61036f600480360381019061036a9190612708565b610ee7565b60405161037c9190612594565b60405180910390f35b61038d611074565b60405161039a91906126b4565b60405180910390f35b6103ab61109a565b6040516103b89190612744565b60405180910390f35b6103c96110ad565b6040516103d6919061276e565b60405180910390f35b6103e76110c3565b6040516103f491906127a6565b60405180910390f35b61041760048036038101906104129190612708565b6110d7565b6040516104249190612594565b60405180910390f35b610435611268565b60405161044291906126b4565b60405180910390f35b6104656004803603810190610460919061254c565b61128c565b6040516104729190612594565b60405180910390f35b610495600480360381019061049091906127ed565b61146c565b6040516104a29190612594565b60405180910390f35b6104c560048036038101906104c09190612678565b6115fe565b6040516104d29190612594565b60405180910390f35b6104e3611761565b6040516104f091906126b4565b60405180910390f35b610501611787565b60405161050e91906126b4565b60405180910390f35b61051f6117ad565b60405161052c9190612631565b60405180910390f35b61054f600480360381019061054a9190612678565b6117b3565b60405161055c9190612594565b60405180910390f35b61056d611919565b60405161057a9190612631565b60405180910390f35b61058b61191f565b604051610598919061276e565b60405180910390f35b6105a9611935565b6040516105b691906126b4565b60405180910390f35b6105d960048036038101906105d4919061254c565b61195b565b6040516105e69190612594565b60405180910390f35b6105f7611b40565b6040516106049190612744565b60405180910390f35b610615611b53565b6040516106229190612631565b60405180910390f35b61064560048036038101906106409190612678565b611b59565b6040516106529190612594565b60405180910390f35b610675600480360381019061067091906125eb565b611cbc565b6040516106829190612594565b60405180910390f35b6106a560048036038101906106a0919061254c565b611e59565b6040516106b29190612594565b60405180910390f35b6106d560048036038101906106d0919061254c565b61203e565b6040516106e29190612594565b60405180910390f35b61070560048036038101906107009190612678565b612223565b6040516107129190612594565b60405180910390f35b61073560048036038101906107309190612678565b612386565b6040516107429190612594565b60405180910390f35b60008060009054906101000a900473ffffffffffffffffffffffffffffffffffffffff1673ffffffffffffffffffffffffffffffffffffffff163373ffffffffffffffffffffffffffffffffffffffff16146107d3576040517fce46b0ef00000000000000000000000000000000000000000000000000000000815260040160405180910390fd5b600073ffffffffffffffffffffffffffffffffffffffff168273ffffffffffffffffffffffffffffffffffffffff1603610842576040517f08c379a00000000000000000000000000000000000000000000000000000000081526004016108399061289d565b60405180910390fd5b60008060009054906101000a900473ffffffffffffffffffffffffffffffffffffffff169050826000806101000a81548173ffffffffffffffffffffffffffffffffffffffff021916908373ffffffffffffffffffffffffffffffffffffffff1602179055507f6270edb7c868f86fda4adedba75108201087268ea345934db8bad688e1feb91b7fcdf1e7eac5794ecc1d1bdbabf566f623cbf8cb594bfcd322aff6be2f9ee8e5b182856040516108fa9291906128bd565b60405180910390a26001915050919050565b60008060009054906101000a900473ffffffffffffffffffffffffffffffffffffffff1673ffffffffffffffffffffffffffffffffffffffff163373ffffffffffffffffffffffffffffffffffffffff1614610994576040517fce46b0ef00000000000000000000000000000000000000000000000000000000815260040160405180910390fd5b600073ffffffffffffffffffffffffffffffffffffffff168273ffffffffffffffffffffffffffffffffffffffff1603610a25577f7dfc80b49d786181d141d789f0f2e802c0a8507934ad7b44c7ba63721b7090806040517f792b8f49000000000000000000000000000000000000000000000000000000008152600401610a1c91906128ff565b60405180910390fd5b6000600a60009054906101000a900473ffffffffffffffffffffffffffffffffffffffff16905082600a60006101000a81548173ffffffffffffffffffffffffffffffffffffffff021916908373ffffffffffffffffffffffffffffffffffffffff1602179055507f7dfc80b49d786181d141d789f0f2e802c0a8507934ad7b44c7ba63721b7090807fcdf1e7eac5794ecc1d1bdbabf566f623cbf8cb594bfcd322aff6be2f9ee8e5b18285604051610adf9291906128bd565b60405180910390a26001915050919050565b60008060009054906101000a900473ffffffffffffffffffffffffffffffffffffffff1673ffffffffffffffffffffffffffffffffffffffff163373ffffffffffffffffffffffffffffffffffffffff1614610b79576040517fce46b0ef00000000000000000000000000000000000000000000000000000000815260040160405180910390fd5b6201518063ffffffff168263ffffffff161115610bef577f0de31a464394f5ae7794f62aff037f7b364cdcae66c08bc1dbb072d624a615b1826040517f416fe20f000000000000000000000000000000000000000000000000000000008152600401610be6929190612955565b60405180910390fd5b6000600360059054906101000a900463ffffffff1663ffffffff16905082600360056101000a81548163ffffffff021916908363ffffffff1602179055507f0de31a464394f5ae7794f62aff037f7b364cdcae66c08bc1dbb072d624a615b17fac2ccce3de9c0816ae772598f7f65fe69f9893b637f7c490497378cbb3ea043e8285604051610c7f92919061297e565b60405180910390a26001915050919050565b60045481565b60008060009054906101000a900473ffffffffffffffffffffffffffffffffffffffff1673ffffffffffffffffffffffffffffffffffffffff163373ffffffffffffffffffffffffffffffffffffffff1614610d1f576040517fce46b0ef00000000000000000000000000000000000000000000000000000000815260040160405180910390fd5b600073ffffffffffffffffffffffffffffffffffffffff168273ffffffffffffffffffffffffffffffffffffffff1603610db0577f372d55e37651a7c6e1940a3fb8628e4b6122a3c1a8b2b70aee13e072286045676040517f792b8f49000000000000000000000000000000000000000000000000000000008152600401610da791906128ff565b60405180910390fd5b6000600960009054906101000a900473ffffffffffffffffffffffffffffffffffffffff16905082600960006101000a81548173ffffffffffffffffffffffffffffffffffffffff021916908373ffffffffffffffffffffffffffffffffffffffff1602179055507f372d55e37651a7c6e1940a3fb8628e4b6122a3c1a8b2b70aee13e072286045677fcdf1e7eac5794ecc1d1bdbabf566f623cbf8cb594bfcd322aff6be2f9ee8e5b18285604051610e6a9291906128bd565b60405180910390a26001915050919050565b600c8181548110610e8c57600080fd5b906000526020600020016000915054906101000a900473ffffffffffffffffffffffffffffffffffffffff1681565b60015481565b600760009054906101000a900473ffffffffffffffffffffffffffffffffffffffff1681565b60008060009054906101000a900473ffffffffffffffffffffffffffffffffffffffff1673ffffffffffffffffffffffffffffffffffffffff163373ffffffffffffffffffffffffffffffffffffffff1614610f6f576040517fce46b0ef00000000000000000000000000000000000000000000000000000000815260040160405180910390fd5b6101f461ffff168260ff161115610fdf577f4fcf756a5f40f99e8d620d3af270b33131943df0d8e6547411f4ef3df16ab3a2826040517f416fe20f000000000000000000000000000000000000000000000000000000008152600401610fd69291906129d8565b60405180910390fd5b60008060169054906101000a900460ff1660ff16905082600060166101000a81548160ff021916908360ff1602179055507f4fcf756a5f40f99e8d620d3af270b33131943df0d8e6547411f4ef3df16ab3a27fac2ccce3de9c0816ae772598f7f65fe69f9893b637f7c490497378cbb3ea043e8285604051611062929190612a01565b60405180910390a26001915050919050565b600a60009054906101000a900473ffffffffffffffffffffffffffffffffffffffff1681565b600360049054906101000a900460ff1681565b600360059054906101000a900463ffffffff1681565b600060149054906101000a900461ffff1681565b60008060009054906101000a900473ffffffffffffffffffffffffffffffffffffffff1673ffffffffffffffffffffffffffffffffffffffff163373ffffffffffffffffffffffffffffffffffffffff161461115f576040517fce46b0ef00000000000000000000000000000000000000000000000000000000815260040160405180910390fd5b62278d0063ffffffff168260ff1611156111d2577f7547f7d5fb0ddac9a2368070337baeb8a721034dc55a49bb0a3f428be0e6fc6d826040517f416fe20f0000000000000000000000000000000000000000000000000000000081526004016111c99291906129d8565b60405180910390fd5b6000600360049054906101000a900460ff1660ff16905082600360046101000a81548160ff021916908360ff1602179055507f7547f7d5fb0ddac9a2368070337baeb8a721034dc55a49bb0a3f428be0e6fc6d7fac2ccce3de9c0816ae772598f7f65fe69f9893b637f7c490497378cbb3ea043e8285604051611256929190612a01565b60405180910390a26001915050919050565b60008054906101000a900473ffffffffffffffffffffffffffffffffffffffff1681565b60008060009054906101000a900473ffffffffffffffffffffffffffffffffffffffff1673ffffffffffffffffffffffffffffffffffffffff163373ffffffffffffffffffffffffffffffffffffffff1614611314576040517fce46b0ef00000000000000000000000000000000000000000000000000000000815260040160405180910390fd5b600073ffffffffffffffffffffffffffffffffffffffff168273ffffffffffffffffffffffffffffffffffffffff16036113a5577f8ed7941e9d9a1353666f51e6da3eddd6369ff7a0c762f1f30d77172d3783cf746040517f792b8f4900000000000000000000000000000000000000000000000000000000815260040161139c91906128ff565b60405180910390fd5b600c829080600181540180825580915050600190039060005260206000200160009091909190916101000a81548173ffffffffffffffffffffffffffffffffffffffff021916908373ffffffffffffffffffffffffffffffffffffffff1602179055507f8ed7941e9d9a1353666f51e6da3eddd6369ff7a0c762f1f30d77172d3783cf747fcdf1e7eac5794ecc1d1bdbabf566f623cbf8cb594bfcd322aff6be2f9ee8e5b160008460405161145b9291906128bd565b60405180910390a260019050919050565b60008060009054906101000a900473ffffffffffffffffffffffffffffffffffffffff1673ffffffffffffffffffffffffffffffffffffffff163373ffffffffffffffffffffffffffffffffffffffff16146114f4576040517fce46b0ef00000000000000000000000000000000000000000000000000000000815260040160405180910390fd5b61271061ffff168261ffff161115611565577f612730efd2bb20bd8047278bd502709c2ad1446165f850ec970fe91fbbd7827c826040517f416fe20f00000000000000000000000000000000000000000000000000000000815260040161155c929190612a5b565b60405180910390fd5b60008060149054906101000a900461ffff1661ffff16905082600060146101000a81548161ffff021916908361ffff1602179055507f612730efd2bb20bd8047278bd502709c2ad1446165f850ec970fe91fbbd7827c7fac2ccce3de9c0816ae772598f7f65fe69f9893b637f7c490497378cbb3ea043e82856040516115ec929190612a84565b60405180910390a26001915050919050565b60008060009054906101000a900473ffffffffffffffffffffffffffffffffffffffff1673ffffffffffffffffffffffffffffffffffffffff163373ffffffffffffffffffffffffffffffffffffffff1614611686576040517fce46b0ef00000000000000000000000000000000000000000000000000000000815260040160405180910390fd5b6001548211156116ef577f130f477890a8ec91ab8b1758b306d7613c0d3e9d69b2190839a5bfd65948d59d826040517f416fe20f0000000000000000000000000000000000000000000000000000000081526004016116e6929190612aad565b60405180910390fd5b60006006549050826006819055507f130f477890a8ec91ab8b1758b306d7613c0d3e9d69b2190839a5bfd65948d59d7fac2ccce3de9c0816ae772598f7f65fe69f9893b637f7c490497378cbb3ea043e828560405161174f929190612ad6565b60405180910390a26001915050919050565b600960009054906101000a900473ffffffffffffffffffffffffffffffffffffffff1681565b600b60009054906101000a900473ffffffffffffffffffffffffffffffffffffffff1681565b60025481565b60008060009054906101000a900473ffffffffffffffffffffffffffffffffffffffff1673ffffffffffffffffffffffffffffffffffffffff163373ffffffffffffffffffffffffffffffffffffffff161461183b576040517fce46b0ef00000000000000000000000000000000000000000000000000000000815260040160405180910390fd5b642e90edd0008211156118a7577f408f6ee01c2c439c543624ae8996f12525edb9a089a46a2050e21ded2f0efb02826040517f416fe20f00000000000000000000000000000000000000000000000000000000815260040161189e929190612aad565b60405180910390fd5b60006001549050826001819055507f408f6ee01c2c439c543624ae8996f12525edb9a089a46a2050e21ded2f0efb027fac2ccce3de9c0816ae772598f7f65fe69f9893b637f7c490497378cbb3ea043e8285604051611907929190612ad6565b60405180910390a26001915050919050565b60055481565b600360009054906101000a900463ffffffff1681565b600860009054906101000a900473ffffffffffffffffffffffffffffffffffffffff1681565b60008060009054906101000a900473ffffffffffffffffffffffffffffffffffffffff1673ffffffffffffffffffffffffffffffffffffffff163373ffffffffffffffffffffffffffffffffffffffff16146119e3576040517fce46b0ef00000000000000000000000000000000000000000000000000000000815260040160405180910390fd5b600073ffffffffffffffffffffffffffffffffffffffff168273ffffffffffffffffffffffffffffffffffffffff1603611a74577fab4aee3767115d7fb70f2c079d21e010e9658003a7d29e349d8047ce971982726040517f792b8f49000000000000000000000000000000000000000000000000000000008152600401611a6b91906128ff565b60405180910390fd5b6000600b60009054906101000a900473ffffffffffffffffffffffffffffffffffffffff16905082600b60006101000a81548173ffffffffffffffffffffffffffffffffffffffff021916908373ffffffffffffffffffffffffffffffffffffffff1602179055507fab4aee3767115d7fb70f2c079d21e010e9658003a7d29e349d8047ce971982727fcdf1e7eac5794ecc1d1bdbabf566f623cbf8cb594bfcd322aff6be2f9ee8e5b18285604051611b2e9291906128bd565b60405180910390a26001915050919050565b600060169054906101000a900460ff1681565b60065481565b60008060009054906101000a900473ffffffffffffffffffffffffffffffffffffffff1673ffffffffffffffffffffffffffffffffffffffff163373ffffffffffffffffffffffffffffffffffffffff1614611be1576040517fce46b0ef00000000000000000000000000000000000000000000000000000000815260040160405180910390fd5b600154821115611c4a577f53711014d4744ecfb0158ee5a81b646e110bd3751a09650d80227ee5fc126c34826040517f416fe20f000000000000000000000000000000000000000000000000000000008152600401611c41929190612aad565b60405180910390fd5b60006004549050826004819055507f53711014d4744ecfb0158ee5a81b646e110bd3751a09650d80227ee5fc126c347fac2ccce3de9c0816ae772598f7f65fe69f9893b637f7c490497378cbb3ea043e8285604051611caa929190612ad6565b60405180910390a26001915050919050565b60008060009054906101000a900473ffffffffffffffffffffffffffffffffffffffff1673ffffffffffffffffffffffffffffffffffffffff163373ffffffffffffffffffffffffffffffffffffffff1614611d44576040517fce46b0ef00000000000000000000000000000000000000000000000000000000815260040160405180910390fd5b61c35061ffff168263ffffffff161115611db7577f46129da8f2c356b23834d0e6ce24b8010d6ac2873b77946445968ce7b51d35ce826040517f416fe20f000000000000000000000000000000000000000000000000000000008152600401611dae929190612955565b60405180910390fd5b6000600360009054906101000a900463ffffffff1663ffffffff16905082600360006101000a81548163ffffffff021916908363ffffffff1602179055507f46129da8f2c356b23834d0e6ce24b8010d6ac2873b77946445968ce7b51d35ce7fac2ccce3de9c0816ae772598f7f65fe69f9893b637f7c490497378cbb3ea043e8285604051611e4792919061297e565b60405180910390a26001915050919050565b60008060009054906101000a900473ffffffffffffffffffffffffffffffffffffffff1673ffffffffffffffffffffffffffffffffffffffff163373ffffffffffffffffffffffffffffffffffffffff1614611ee1576040517fce46b0ef00000000000000000000000000000000000000000000000000000000815260040160405180910390fd5b600073ffffffffffffffffffffffffffffffffffffffff168273ffffffffffffffffffffffffffffffffffffffff1603611f72577fa13bb13c7ce3dd605a79d36377f06413322c259738133384ebd55409ced351406040517f792b8f49000000000000000000000000000000000000000000000000000000008152600401611f6991906128ff565b60405180910390fd5b6000600760009054906101000a900473ffffffffffffffffffffffffffffffffffffffff16905082600760006101000a81548173ffffffffffffffffffffffffffffffffffffffff021916908373ffffffffffffffffffffffffffffffffffffffff1602179055507fa13bb13c7ce3dd605a79d36377f06413322c259738133384ebd55409ced351407fcdf1e7eac5794ecc1d1bdbabf566f623cbf8cb594bfcd322aff6be2f9ee8e5b1828560405161202c9291906128bd565b60405180910390a26001915050919050565b60008060009054906101000a900473ffffffffffffffffffffffffffffffffffffffff1673ffffffffffffffffffffffffffffffffffffffff163373ffffffffffffffffffffffffffffffffffffffff16146120c6576040517fce46b0ef00000000000000000000000000000000000000000000000000000000815260040160405180910390fd5b600073ffffffffffffffffffffffffffffffffffffffff168273ffffffffffffffffffffffffffffffffffffffff1603612157577f60a755eac858e961de9913faeaf1bb9fa75c56ca76bbfccea4437aa186c0ada76040517f792b8f4900000000000000000000000000000000000000000000000000000000815260040161214e91906128ff565b60405180910390fd5b6000600860009054906101000a900473ffffffffffffffffffffffffffffffffffffffff16905082600860006101000a81548173ffffffffffffffffffffffffffffffffffffffff021916908373ffffffffffffffffffffffffffffffffffffffff1602179055507f60a755eac858e961de9913faeaf1bb9fa75c56ca76bbfccea4437aa186c0ada77fcdf1e7eac5794ecc1d1bdbabf566f623cbf8cb594bfcd322aff6be2f9ee8e5b182856040516122119291906128bd565b60405180910390a26001915050919050565b60008060009054906101000a900473ffffffffffffffffffffffffffffffffffffffff1673ffffffffffffffffffffffffffffffffffffffff163373ffffffffffffffffffffffffffffffffffffffff16146122ab576040517fce46b0ef00000000000000000000000000000000000000000000000000000000815260040160405180910390fd5b600154821115612314577fbad17726afa72c2494e5a5eb5e00420bfb2aad6bcf64fcf38012c000869e82c7826040517f416fe20f00000000000000000000000000000000000000000000000000000000815260040161230b929190612aad565b60405180910390fd5b60006005549050826005819055507fbad17726afa72c2494e5a5eb5e00420bfb2aad6bcf64fcf38012c000869e82c77fac2ccce3de9c0816ae772598f7f65fe69f9893b637f7c490497378cbb3ea043e8285604051612374929190612ad6565b60405180910390a26001915050919050565b60008060009054906101000a900473ffffffffffffffffffffffffffffffffffffffff1673ffffffffffffffffffffffffffffffffffffffff163373ffffffffffffffffffffffffffffffffffffffff161461240e576040517fce46b0ef00000000000000000000000000000000000000000000000000000000815260040160405180910390fd5b600154821115612477577fe1056a31e9db00f0754da69d216a6fd6500b51b66ddca92513ba42fb9a6b61d0826040517f416fe20f00000000000000000000000000000000000000000000000000000000815260040161246e929190612aad565b60405180910390fd5b60006002549050826002819055507fe1056a31e9db00f0754da69d216a6fd6500b51b66ddca92513ba42fb9a6b61d07fac2ccce3de9c0816ae772598f7f65fe69f9893b637f7c490497378cbb3ea043e82856040516124d7929190612ad6565b60405180910390a26001915050919050565b600080fd5b600073ffffffffffffffffffffffffffffffffffffffff82169050919050565b6000612519826124ee565b9050919050565b6125298161250e565b811461253457600080fd5b50565b60008135905061254681612520565b92915050565b600060208284031215612562576125616124e9565b5b600061257084828501612537565b91505092915050565b60008115159050919050565b61258e81612579565b82525050565b60006020820190506125a96000830184612585565b92915050565b600063ffffffff82169050919050565b6125c8816125af565b81146125d357600080fd5b50565b6000813590506125e5816125bf565b92915050565b600060208284031215612601576126006124e9565b5b600061260f848285016125d6565b91505092915050565b6000819050919050565b61262b81612618565b82525050565b60006020820190506126466000830184612622565b92915050565b61265581612618565b811461266057600080fd5b50565b6000813590506126728161264c565b92915050565b60006020828403121561268e5761268d6124e9565b5b600061269c84828501612663565b91505092915050565b6126ae8161250e565b82525050565b60006020820190506126c960008301846126a5565b92915050565b600060ff82169050919050565b6126e5816126cf565b81146126f057600080fd5b50565b600081359050612702816126dc565b92915050565b60006020828403121561271e5761271d6124e9565b5b600061272c848285016126f3565b91505092915050565b61273e816126cf565b82525050565b60006020820190506127596000830184612735565b92915050565b612768816125af565b82525050565b6000602082019050612783600083018461275f565b92915050565b600061ffff82169050919050565b6127a081612789565b82525050565b60006020820190506127bb6000830184612797565b92915050565b6127ca81612789565b81146127d557600080fd5b50565b6000813590506127e7816127c1565b92915050565b600060208284031215612803576128026124e9565b5b6000612811848285016127d8565b91505092915050565b600082825260208201905092915050565b7f41646472657373207a65726f206973206e6f7420616c6c6f776564206173206f60008201527f776e657200000000000000000000000000000000000000000000000000000000602082015250565b600061288760248361281a565b91506128928261282b565b604082019050919050565b600060208201905081810360008301526128b68161287a565b9050919050565b60006040820190506128d260008301856126a5565b6128df60208301846126a5565b9392505050565b6000819050919050565b6128f9816128e6565b82525050565b600060208201905061291460008301846128f0565b92915050565b6000819050919050565b600061293f61293a612935846125af565b61291a565b612618565b9050919050565b61294f81612924565b82525050565b600060408201905061296a60008301856128f0565b6129776020830184612946565b9392505050565b60006040820190506129936000830185612622565b6129a06020830184612946565b9392505050565b60006129c26129bd6129b8846126cf565b61291a565b612618565b9050919050565b6129d2816129a7565b82525050565b60006040820190506129ed60008301856128f0565b6129fa60208301846129c9565b9392505050565b6000604082019050612a166000830185612622565b612a2360208301846129c9565b9392505050565b6000612a45612a40612a3b84612789565b61291a565b612618565b9050919050565b612a5581612a2a565b82525050565b6000604082019050612a7060008301856128f0565b612a7d6020830184612a4c565b9392505050565b6000604082019050612a996000830185612622565b612aa66020830184612a4c565b9392505050565b6000604082019050612ac260008301856128f0565b612acf6020830184612622565b9392505050565b6000604082019050612aeb6000830185612622565b612af86020830184612622565b939250505056fea264697066735822122035d7658a8352e2581aa49e9f4d9d18e05b3749418da949513e0071582afa0e5d64736f6c63430008130033",
  "linkReferences": {},
  "deployedLinkReferences": {}
}