{
  "_format": "hh-sol-artifact-1",
  "contractName": "dBank",
  "sourceName": "contracts/dBank.sol",
  "abi": [
    {
      "inputs": [
        {
          "internalType": "contract Token",
          "name": "_asset",
          "type": "address"
        },
        {
          "internalType": "string",
          "name": "_name",
          "type": "string"
        },
        {
          "internalType": "string",
          "name": "_symbol",
          "type": "string"
        },
        {
          "internalType": "address",
          "name": "_strategyRouter",
          "type": "address"
        },
        {
          "internalType": "address",
          "name": "_configManager",
          "type": "address"
        }
      ],
      "stateMutability": "nonpayable",
      "type": "constructor"
    },
    {
      "inputs": [],
      "name": "dBank__AllocationFailed",
      "type": "error"
    },
    {
      "inputs": [
        {
          "internalType": "uint256",
          "name": "requested",
          "type": "uint256"
        },
        {
          "internalType": "uint256",
          "name": "available",
          "type": "uint256"
        }
      ],
      "name": "dBank__CapExceeded",
      "type": "error"
    },
    {
      "inputs": [],
      "name": "dBank__EpochNotComplete",
      "type": "error"
    },
    {
      "inputs": [],
      "name": "dBank__InsufficientAllowance",
      "type": "error"
    },
    {
      "inputs": [
        {
          "internalType": "uint256",
          "name": "requested",
          "type": "uint256"
        },
        {
          "internalType": "uint256",
          "name": "available",
          "type": "uint256"
        }
      ],
      "name": "dBank__InsufficientLiquidity",
      "type": "error"
    },
    {
      "inputs": [],
      "name": "dBank__InsufficientShares",
      "type": "error"
    },
    {
      "inputs": [],
      "name": "dBank__InvalidAmount",
      "type": "error"
    },
    {
      "inputs": [],
      "name": "dBank__InvalidReceiver",
      "type": "error"
    },
    {
      "inputs": [],
      "name": "dBank__InvalidStrategy",
      "type": "error"
    },
    {
      "inputs": [],
      "name": "dBank__NotOwner",
      "type": "error"
    },
    {
      "inputs": [],
      "name": "dBank__Paused",
      "type": "error"
    },
    {
      "inputs": [
        {
          "internalType": "uint256",
          "name": "allocatedShares",
          "type": "uint256"
        }
      ],
      "name": "dBank__SharesAllocated",
      "type": "error"
    },
    {
      "inputs": [
        {
          "internalType": "uint256",
          "name": "expected",
          "type": "uint256"
        },
        {
          "internalType": "uint256",
          "name": "actual",
          "type": "uint256"
        },
        {
          "internalType": "uint256",
          "name": "maxSlippageBps",
          "type": "uint256"
        }
      ],
      "name": "dBank__SlippageExceeded",
      "type": "error"
    },
    {
      "inputs": [],
      "name": "dBank__ZeroAddress",
      "type": "error"
    },
    {
      "anonymous": false,
      "inputs": [
        {
          "indexed": true,
          "internalType": "uint256",
          "name": "strategyId",
          "type": "uint256"
        },
        {
          "indexed": false,
          "internalType": "uint256",
          "name": "amount",
          "type": "uint256"
        },
        {
          "indexed": false,
          "internalType": "uint256",
          "name": "newBuffer",
          "type": "uint256"
        }
      ],
      "name": "Allocated",
      "type": "event"
    },
    {
      "anonymous": false,
      "inputs": [
        {
          "indexed": true,
          "internalType": "address",
          "name": "owner",
          "type": "address"
        },
        {
          "indexed": true,
          "internalType": "address",
          "name": "spender",
          "type": "address"
        },
        {
          "indexed": false,
          "internalType": "uint256",
          "name": "value",
          "type": "uint256"
        }
      ],
      "name": "Approval",
      "type": "event"
    },
    {
      "anonymous": false,
      "inputs": [
        {
          "indexed": false,
          "internalType": "uint256",
          "name": "oldBuffer",
          "type": "uint256"
        },
        {
          "indexed": false,
          "internalType": "uint256",
          "name": "newBuffer",
          "type": "uint256"
        }
      ],
      "name": "BufferUpdated",
      "type": "event"
    },
    {
      "anonymous": false,
      "inputs": [
        {
          "indexed": true,
          "internalType": "bytes32",
          "name": "key",
          "type": "bytes32"
        },
        {
          "indexed": false,
          "internalType": "uint256",
          "name": "oldValue",
          "type": "uint256"
        },
        {
          "indexed": false,
          "internalType": "uint256",
          "name": "newValue",
          "type": "uint256"
        }
      ],
      "name": "ConfigUpdated",
      "type": "event"
    },
    {
      "anonymous": false,
      "inputs": [
        {
          "indexed": true,
          "internalType": "address",
          "name": "sender",
          "type": "address"
        },
        {
          "indexed": true,
          "internalType": "address",
          "name": "owner",
          "type": "address"
        },
        {
          "indexed": false,
          "internalType": "uint256",
          "name": "assets",
          "type": "uint256"
        },
        {
          "indexed": false,
          "internalType": "uint256",
          "name": "shares",
          "type": "uint256"
        }
      ],
      "name": "Deposit",
      "type": "event"
    },
    {
      "anonymous": false,
      "inputs": [
        {
          "indexed": false,
          "internalType": "uint256",
          "name": "gain",
          "type": "uint256"
        },
        {
          "indexed": false,
          "internalType": "uint256",
          "name": "feeAmount",
          "type": "uint256"
        },
        {
          "indexed": false,
          "internalType": "uint256",
          "name": "newHighWaterMark",
          "type": "uint256"
        },
        {
          "indexed": false,
          "internalType": "uint256",
          "name": "timestamp",
          "type": "uint256"
        }
      ],
      "name": "FeesCrystallized",
      "type": "event"
    },
    {
      "anonymous": false,
      "inputs": [
        {
          "indexed": false,
          "internalType": "bool",
          "name": "paused",
          "type": "bool"
        }
      ],
      "name": "Paused",
      "type": "event"
    },
    {
      "anonymous": false,
      "inputs": [
        {
          "indexed": true,
          "internalType": "address",
          "name": "from",
          "type": "address"
        },
        {
          "indexed": true,
          "internalType": "address",
          "name": "to",
          "type": "address"
        },
        {
          "indexed": false,
          "internalType": "uint256",
          "name": "value",
          "type": "uint256"
        }
      ],
      "name": "Transfer",
      "type": "event"
    },
    {
      "anonymous": false,
      "inputs": [
        {
          "indexed": true,
          "internalType": "address",
          "name": "sender",
          "type": "address"
        },
        {
          "indexed": true,
          "internalType": "address",
          "name": "receiver",
          "type": "address"
        },
        {
          "indexed": true,
          "internalType": "address",
          "name": "owner",
          "type": "address"
        },
        {
          "indexed": false,
          "internalType": "uint256",
          "name": "assets",
          "type": "uint256"
        },
        {
          "indexed": false,
          "internalType": "uint256",
          "name": "shares",
          "type": "uint256"
        }
      ],
      "name": "Withdraw",
      "type": "event"
    },
    {
      "anonymous": false,
      "inputs": [
        {
          "indexed": true,
          "internalType": "uint256",
          "name": "strategyId",
          "type": "uint256"
        },
        {
          "indexed": false,
          "internalType": "uint256",
          "name": "amount",
          "type": "uint256"
        }
      ],
      "name": "WithdrawnFromStrategy",
      "type": "event"
    },
    {
      "inputs": [
        {
          "internalType": "uint256",
          "name": "_strategyId",
          "type": "uint256"
        },
        {
          "internalType": "uint256",
          "name": "_amount",
          "type": "uint256"
        }
      ],
      "name": "allocate",
      "outputs": [
        {
          "internalType": "uint256",
          "name": "",
          "type": "uint256"
        }
      ],
      "stateMutability": "nonpayable",
      "type": "function"
    },
    {
      "inputs": [
        {
          "internalType": "address",
          "name": "",
          "type": "address"
        },
        {
          "internalType": "address",
          "name": "",
          "type": "address"
        }
      ],
      "name": "allowance",
      "outputs": [
        {
          "internalType": "uint256",
          "name": "",
          "type": "uint256"
        }
      ],
      "stateMutability": "view",
      "type": "function"
    },
    {
      "inputs": [
        {
          "internalType": "address",
          "name": "_spender",
          "type": "address"
        },
        {
          "internalType": "uint256",
          "name": "_amount",
          "type": "uint256"
        }
      ],
      "name": "approve",
      "outputs": [
        {
          "internalType": "bool",
          "name": "",
          "type": "bool"
        }
      ],
      "stateMutability": "nonpayable",
      "type": "function"
    },
    {
      "inputs": [],
      "name": "asset",
      "outputs": [
        {
          "internalType": "contract Token",
          "name": "",
          "type": "address"
        }
      ],
      "stateMutability": "view",
      "type": "function"
    },
    {
      "inputs": [
        {
          "internalType": "address",
          "name": "",
          "type": "address"
        }
      ],
      "name": "balanceOf",
      "outputs": [
        {
          "internalType": "uint256",
          "name": "",
          "type": "uint256"
        }
      ],
      "stateMutability": "view",
      "type": "function"
    },
    {
      "inputs": [],
      "name": "buffer",
      "outputs": [
        {
          "internalType": "uint256",
          "name": "",
          "type": "uint256"
        }
      ],
      "stateMutability": "view",
      "type": "function"
    },
    {
      "inputs": [],
      "name": "bufferTargetBps",
      "outputs": [
        {
          "internalType": "uint256",
          "name": "",
          "type": "uint256"
        }
      ],
      "stateMutability": "view",
      "type": "function"
    },
    {
      "inputs": [],
      "name": "configManager",
      "outputs": [
        {
          "internalType": "address",
          "name": "",
          "type": "address"
        }
      ],
      "stateMutability": "view",
      "type": "function"
    },
    {
      "inputs": [
        {
          "internalType": "uint256",
          "name": "_shares",
          "type": "uint256"
        }
      ],
      "name": "convertToAssets",
      "outputs": [
        {
          "internalType": "uint256",
          "name": "assets",
          "type": "uint256"
        }
      ],
      "stateMutability": "view",
      "type": "function"
    },
    {
      "inputs": [
        {
          "internalType": "uint256",
          "name": "_assets",
          "type": "uint256"
        }
      ],
      "name": "convertToShares",
      "outputs": [
        {
          "internalType": "uint256",
          "name": "shares",
          "type": "uint256"
        }
      ],
      "stateMutability": "view",
      "type": "function"
    },
    {
      "inputs": [],
      "name": "crystallizeFees",
      "outputs": [],
      "stateMutability": "nonpayable",
      "type": "function"
    },
    {
      "inputs": [],
      "name": "decimals",
      "outputs": [
        {
          "internalType": "uint8",
          "name": "",
          "type": "uint8"
        }
      ],
      "stateMutability": "view",
      "type": "function"
    },
    {
      "inputs": [
        {
          "internalType": "address",
          "name": "_spender",
          "type": "address"
        },
        {
          "internalType": "uint256",
          "name": "_subtractedValue",
          "type": "uint256"
        }
      ],
      "name": "decreaseAllowance",
      "outputs": [
        {
          "internalType": "bool",
          "name": "",
          "type": "bool"
        }
      ],
      "stateMutability": "nonpayable",
      "type": "function"
    },
    {
      "inputs": [
        {
          "internalType": "uint256",
          "name": "_assets",
          "type": "uint256"
        },
        {
          "internalType": "address",
          "name": "_receiver",
          "type": "address"
        }
      ],
      "name": "deposit",
      "outputs": [
        {
          "internalType": "uint256",
          "name": "shares",
          "type": "uint256"
        }
      ],
      "stateMutability": "nonpayable",
      "type": "function"
    },
    {
      "inputs": [],
      "name": "feeRecipient",
      "outputs": [
        {
          "internalType": "address",
          "name": "",
          "type": "address"
        }
      ],
      "stateMutability": "view",
      "type": "function"
    },
    {
      "inputs": [],
      "name": "highWaterMark",
      "outputs": [
        {
          "internalType": "uint256",
          "name": "",
          "type": "uint256"
        }
      ],
      "stateMutability": "view",
      "type": "function"
    },
    {
      "inputs": [
        {
          "internalType": "address",
          "name": "_spender",
          "type": "address"
        },
        {
          "internalType": "uint256",
          "name": "_addedValue",
          "type": "uint256"
        }
      ],
      "name": "increaseAllowance",
      "outputs": [
        {
          "internalType": "bool",
          "name": "",
          "type": "bool"
        }
      ],
      "stateMutability": "nonpayable",
      "type": "function"
    },
    {
      "inputs": [],
      "name": "lastEpochTimeStamp",
      "outputs": [
        {
          "internalType": "uint256",
          "name": "",
          "type": "uint256"
        }
      ],
      "stateMutability": "view",
      "type": "function"
    },
    {
      "inputs": [
        {
          "internalType": "address",
          "name": "",
          "type": "address"
        }
      ],
      "name": "maxDeposit",
      "outputs": [
        {
          "internalType": "uint256",
          "name": "",
          "type": "uint256"
        }
      ],
      "stateMutability": "view",
      "type": "function"
    },
    {
      "inputs": [
        {
          "internalType": "address",
          "name": "_receiver",
          "type": "address"
        }
      ],
      "name": "maxMint",
      "outputs": [
        {
          "internalType": "uint256",
          "name": "",
          "type": "uint256"
        }
      ],
      "stateMutability": "view",
      "type": "function"
    },
    {
      "inputs": [
        {
          "internalType": "address",
          "name": "_owner",
          "type": "address"
        }
      ],
      "name": "maxRedeem",
      "outputs": [
        {
          "internalType": "uint256",
          "name": "",
          "type": "uint256"
        }
      ],
      "stateMutability": "view",
      "type": "function"
    },
    {
      "inputs": [
        {
          "internalType": "address",
          "name": "_owner",
          "type": "address"
        }
      ],
      "name": "maxWithdraw",
      "outputs": [
        {
          "internalType": "uint256",
          "name": "",
          "type": "uint256"
        }
      ],
      "stateMutability": "view",
      "type": "function"
    },
    {
      "inputs": [
        {
          "internalType": "uint256",
          "name": "_shares",
          "type": "uint256"
        },
        {
          "internalType": "address",
          "name": "_receiver",
          "type": "address"
        }
      ],
      "name": "mint",
      "outputs": [
        {
          "internalType": "uint256",
          "name": "assets",
          "type": "uint256"
        }
      ],
      "stateMutability": "nonpayable",
      "type": "function"
    },
    {
      "inputs": [],
      "name": "name",
      "outputs": [
        {
          "internalType": "string",
          "name": "",
          "type": "string"
        }
      ],
      "stateMutability": "view",
      "type": "function"
    },
    {
      "inputs": [],
      "name": "owner",
      "outputs": [
        {
          "internalType": "address",
          "name": "",
          "type": "address"
        }
      ],
      "stateMutability": "view",
      "type": "function"
    },
    {
      "inputs": [
        {
          "internalType": "bool",
          "name": "_paused",
          "type": "bool"
        }
      ],
      "name": "pause",
      "outputs": [],
      "stateMutability": "nonpayable",
      "type": "function"
    },
    {
      "inputs": [],
      "name": "paused",
      "outputs": [
        {
          "internalType": "bool",
          "name": "",
          "type": "bool"
        }
      ],
      "stateMutability": "view",
      "type": "function"
    },
    {
      "inputs": [],
      "name": "perTxCap",
      "outputs": [
        {
          "internalType": "uint256",
          "name": "",
          "type": "uint256"
        }
      ],
      "stateMutability": "view",
      "type": "function"
    },
    {
      "inputs": [],
      "name": "performanceFeeBps",
      "outputs": [
        {
          "internalType": "uint256",
          "name": "",
          "type": "uint256"
        }
      ],
      "stateMutability": "view",
      "type": "function"
    },
    {
      "inputs": [
        {
          "internalType": "uint256",
          "name": "_assets",
          "type": "uint256"
        }
      ],
      "name": "previewDeposit",
      "outputs": [
        {
          "internalType": "uint256",
          "name": "shares",
          "type": "uint256"
        }
      ],
      "stateMutability": "view",
      "type": "function"
    },
    {
      "inputs": [
        {
          "internalType": "uint256",
          "name": "_shares",
          "type": "uint256"
        }
      ],
      "name": "previewMint",
      "outputs": [
        {
          "internalType": "uint256",
          "name": "assets",
          "type": "uint256"
        }
      ],
      "stateMutability": "view",
      "type": "function"
    },
    {
      "inputs": [
        {
          "internalType": "uint256",
          "name": "_shares",
          "type": "uint256"
        }
      ],
      "name": "previewRedeem",
      "outputs": [
        {
          "internalType": "uint256",
          "name": "assets",
          "type": "uint256"
        }
      ],
      "stateMutability": "view",
      "type": "function"
    },
    {
      "inputs": [
        {
          "internalType": "uint256",
          "name": "_assets",
          "type": "uint256"
        }
      ],
      "name": "previewWithdraw",
      "outputs": [
        {
          "internalType": "uint256",
          "name": "shares",
          "type": "uint256"
        }
      ],
      "stateMutability": "view",
      "type": "function"
    },
    {
      "inputs": [],
      "name": "pricePerShare",
      "outputs": [
        {
          "internalType": "uint256",
          "name": "",
          "type": "uint256"
        }
      ],
      "stateMutability": "view",
      "type": "function"
    },
    {
      "inputs": [
        {
          "internalType": "uint256",
          "name": "_shares",
          "type": "uint256"
        },
        {
          "internalType": "address",
          "name": "_receiver",
          "type": "address"
        },
        {
          "internalType": "address",
          "name": "_owner",
          "type": "address"
        }
      ],
      "name": "redeem",
      "outputs": [
        {
          "internalType": "uint256",
          "name": "assets",
          "type": "uint256"
        }
      ],
      "stateMutability": "nonpayable",
      "type": "function"
    },
    {
      "inputs": [
        {
          "internalType": "uint256",
          "name": "_newTargetBps",
          "type": "uint256"
        }
      ],
      "name": "setBufferTargetBps",
      "outputs": [],
      "stateMutability": "nonpayable",
      "type": "function"
    },
    {
      "inputs": [
        {
          "internalType": "address",
          "name": "_newRecipient",
          "type": "address"
        }
      ],
      "name": "setFeeRecipient",
      "outputs": [],
      "stateMutability": "nonpayable",
      "type": "function"
    },
    {
      "inputs": [
        {
          "internalType": "uint256",
          "name": "_newCap",
          "type": "uint256"
        }
      ],
      "name": "setPerTxCap",
      "outputs": [],
      "stateMutability": "nonpayable",
      "type": "function"
    },
    {
      "inputs": [
        {
          "internalType": "uint256",
          "name": "_newFeeBps",
          "type": "uint256"
        }
      ],
      "name": "setPerformanceFeeBps",
      "outputs": [],
      "stateMutability": "nonpayable",
      "type": "function"
    },
    {
      "inputs": [
        {
          "internalType": "uint256",
          "name": "_newCap",
          "type": "uint256"
        }
      ],
      "name": "setTvlCap",
      "outputs": [],
      "stateMutability": "nonpayable",
      "type": "function"
    },
    {
      "inputs": [],
      "name": "strategyRouter",
      "outputs": [
        {
          "internalType": "address",
          "name": "",
          "type": "address"
        }
      ],
      "stateMutability": "view",
      "type": "function"
    },
    {
      "inputs": [],
      "name": "symbol",
      "outputs": [
        {
          "internalType": "string",
          "name": "",
          "type": "string"
        }
      ],
      "stateMutability": "view",
      "type": "function"
    },
    {
      "inputs": [],
      "name": "totalAssets",
      "outputs": [
        {
          "internalType": "uint256",
          "name": "",
          "type": "uint256"
        }
      ],
      "stateMutability": "view",
      "type": "function"
    },
    {
      "inputs": [],
      "name": "totalSupply",
      "outputs": [
        {
          "internalType": "uint256",
          "name": "",
          "type": "uint256"
        }
      ],
      "stateMutability": "view",
      "type": "function"
    },
    {
      "inputs": [
        {
          "internalType": "address",
          "name": "_to",
          "type": "address"
        },
        {
          "internalType": "uint256",
          "name": "_amount",
          "type": "uint256"
        }
      ],
      "name": "transfer",
      "outputs": [
        {
          "internalType": "bool",
          "name": "",
          "type": "bool"
        }
      ],
      "stateMutability": "nonpayable",
      "type": "function"
    },
    {
      "inputs": [
        {
          "internalType": "address",
          "name": "_from",
          "type": "address"
        },
        {
          "internalType": "address",
          "name": "_to",
          "type": "address"
        },
        {
          "internalType": "uint256",
          "name": "_amount",
          "type": "uint256"
        }
      ],
      "name": "transferFrom",
      "outputs": [
        {
          "internalType": "bool",
          "name": "",
          "type": "bool"
        }
      ],
      "stateMutability": "nonpayable",
      "type": "function"
    },
    {
      "inputs": [],
      "name": "tvlCap",
      "outputs": [
        {
          "internalType": "uint256",
          "name": "",
          "type": "uint256"
        }
      ],
      "stateMutability": "view",
      "type": "function"
    },
    {
      "inputs": [
        {
          "internalType": "uint256",
          "name": "_assets",
          "type": "uint256"
        },
        {
          "internalType": "address",
          "name": "_receiver",
          "type": "address"
        },
        {
          "internalType": "address",
          "name": "_owner",
          "type": "address"
        }
      ],
      "name": "withdraw",
      "outputs": [
        {
          "internalType": "uint256",
          "name": "shares",
          "type": "uint256"
        }
      ],
      "stateMutability": "nonpayable",
      "type": "function"
    }
  ],
  "bytecode": "0x60a06040523480156200001157600080fd5b5060405162005ddf38038062005ddf833981810160405281019062000037919062000821565b8473ffffffffffffffffffffffffffffffffffffffff1660808173ffffffffffffffffffffffffffffffffffffffff1681525050336000806101000a81548173ffffffffffffffffffffffffffffffffffffffff021916908373ffffffffffffffffffffffffffffffffffffffff16021790555081600160006101000a81548173ffffffffffffffffffffffffffffffffffffffff021916908373ffffffffffffffffffffffffffffffffffffffff16021790555080600260006101000a81548173ffffffffffffffffffffffffffffffffffffffff021916908373ffffffffffffffffffffffffffffffffffffffff16021790555083600390816200013e919062000b32565b50826004908162000150919062000b32565b5060008573ffffffffffffffffffffffffffffffffffffffff1663313ce5676040518163ffffffff1660e01b8152600401602060405180830381865afa1580156200019f573d6000803e3d6000fd5b505050506040513d601f19601f82011682018060405250810190620001c5919062000c4a565b1015620001d457601262000247565b8473ffffffffffffffffffffffffffffffffffffffff1663313ce5676040518163ffffffff1660e01b8152600401602060405180830381865afa15801562000220573d6000803e3d6000fd5b505050506040513d601f19601f8201168201806040525081019062000246919062000c4a565b5b600560006101000a81548160ff021916908360ff1602179055506000600681905550600260009054906101000a900473ffffffffffffffffffffffffffffffffffffffff1673ffffffffffffffffffffffffffffffffffffffff16636d81c6966040518163ffffffff1660e01b8152600401602060405180830381865afa158015620002d7573d6000803e3d6000fd5b505050506040513d601f19601f82011682018060405250810190620002fd919062000cbb565b61ffff16600a81905550600260009054906101000a900473ffffffffffffffffffffffffffffffffffffffff1673ffffffffffffffffffffffffffffffffffffffff1663b9d4e8796040518163ffffffff1660e01b8152600401602060405180830381865afa15801562000375573d6000803e3d6000fd5b505050506040513d601f19601f820116820180604052508101906200039b919062000d2e565b63ffffffff16600b81905550600260009054906101000a900473ffffffffffffffffffffffffffffffffffffffff1673ffffffffffffffffffffffffffffffffffffffff1663469048406040518163ffffffff1660e01b8152600401602060405180830381865afa15801562000415573d6000803e3d6000fd5b505050506040513d601f19601f820116820180604052508101906200043b919062000d60565b600c60006101000a81548173ffffffffffffffffffffffffffffffffffffffff021916908373ffffffffffffffffffffffffffffffffffffffff16021790555042600d819055506000600e81905550600260009054906101000a900473ffffffffffffffffffffffffffffffffffffffff1673ffffffffffffffffffffffffffffffffffffffff166341729cee6040518163ffffffff1660e01b8152600401602060405180830381865afa158015620004f8573d6000803e3d6000fd5b505050506040513d601f19601f820116820180604052508101906200051e919062000c4a565b600f81905550600260009054906101000a900473ffffffffffffffffffffffffffffffffffffffff1673ffffffffffffffffffffffffffffffffffffffff1663ad82cbea6040518163ffffffff1660e01b8152600401602060405180830381865afa15801562000592573d6000803e3d6000fd5b505050506040513d601f19601f82011682018060405250810190620005b8919062000c4a565b6010819055506000601160006101000a81548160ff021916908315150217905550505050505062000d92565b6000604051905090565b600080fd5b600080fd5b600073ffffffffffffffffffffffffffffffffffffffff82169050919050565b60006200062582620005f8565b9050919050565b6000620006398262000618565b9050919050565b6200064b816200062c565b81146200065757600080fd5b50565b6000815190506200066b8162000640565b92915050565b600080fd5b600080fd5b6000601f19601f8301169050919050565b7f4e487b7100000000000000000000000000000000000000000000000000000000600052604160045260246000fd5b620006c6826200067b565b810181811067ffffffffffffffff82111715620006e857620006e76200068c565b5b80604052505050565b6000620006fd620005e4565b90506200070b8282620006bb565b919050565b600067ffffffffffffffff8211156200072e576200072d6200068c565b5b62000739826200067b565b9050602081019050919050565b60005b838110156200076657808201518184015260208101905062000749565b60008484015250505050565b600062000789620007838462000710565b620006f1565b905082815260208101848484011115620007a857620007a762000676565b5b620007b584828562000746565b509392505050565b600082601f830112620007d557620007d462000671565b5b8151620007e784826020860162000772565b91505092915050565b620007fb8162000618565b81146200080757600080fd5b50565b6000815190506200081b81620007f0565b92915050565b600080600080600060a0868803121562000840576200083f620005ee565b5b600062000850888289016200065a565b955050602086015167ffffffffffffffff811115620008745762000873620005f3565b5b6200088288828901620007bd565b945050604086015167ffffffffffffffff811115620008a657620008a5620005f3565b5b620008b488828901620007bd565b9350506060620008c7888289016200080a565b9250506080620008da888289016200080a565b9150509295509295909350565b600081519050919050565b7f4e487b7100000000000000000000000000000000000000000000000000000000600052602260045260246000fd5b600060028204905060018216806200093a57607f821691505b60208210810362000950576200094f620008f2565b5b50919050565b60008190508160005260206000209050919050565b60006020601f8301049050919050565b600082821b905092915050565b600060088302620009ba7fffffffffffffffffffffffffffffffffffffffffffffffffffffffffffffffff826200097b565b620009c686836200097b565b95508019841693508086168417925050509392505050565b6000819050919050565b6000819050919050565b600062000a1362000a0d62000a0784620009de565b620009e8565b620009de565b9050919050565b6000819050919050565b62000a2f83620009f2565b62000a4762000a3e8262000a1a565b84845462000988565b825550505050565b600090565b62000a5e62000a4f565b62000a6b81848462000a24565b505050565b5b8181101562000a935762000a8760008262000a54565b60018101905062000a71565b5050565b601f82111562000ae25762000aac8162000956565b62000ab7846200096b565b8101602085101562000ac7578190505b62000adf62000ad6856200096b565b83018262000a70565b50505b505050565b600082821c905092915050565b600062000b076000198460080262000ae7565b1980831691505092915050565b600062000b22838362000af4565b9150826002028217905092915050565b62000b3d82620008e7565b67ffffffffffffffff81111562000b595762000b586200068c565b5b62000b65825462000921565b62000b7282828562000a97565b600060209050601f83116001811462000baa576000841562000b95578287015190505b62000ba1858262000b14565b86555062000c11565b601f19841662000bba8662000956565b60005b8281101562000be45784890151825560018201915060208501945060208101905062000bbd565b8683101562000c04578489015162000c00601f89168262000af4565b8355505b6001600288020188555050505b505050505050565b62000c2481620009de565b811462000c3057600080fd5b50565b60008151905062000c448162000c19565b92915050565b60006020828403121562000c635762000c62620005ee565b5b600062000c738482850162000c33565b91505092915050565b600061ffff82169050919050565b62000c958162000c7c565b811462000ca157600080fd5b50565b60008151905062000cb58162000c8a565b92915050565b60006020828403121562000cd45762000cd3620005ee565b5b600062000ce48482850162000ca4565b91505092915050565b600063ffffffff82169050919050565b62000d088162000ced565b811462000d1457600080fd5b50565b60008151905062000d288162000cfd565b92915050565b60006020828403121562000d475762000d46620005ee565b5b600062000d578482850162000d17565b91505092915050565b60006020828403121562000d795762000d78620005ee565b5b600062000d89848285016200080a565b91505092915050565b60805161500e62000dd160003960008181610f9a01528181611347015281816119e901528181611eae01528181612ba9015261316a015261500e6000f3fe608060405234801561001057600080fd5b50600436106102a05760003560e01c806395d89b4111610167578063c2c262b3116100ce578063dd0290e211610087578063dd0290e2146108df578063dd62ed3e146108fb578063e74b981b1461092b578063edaafe2014610947578063ef8b30f714610965578063f881814214610995576102a0565b8063c2c262b3146107f7578063c63d75b614610801578063c6e6f59214610831578063ca0ab07514610861578063ce96cb771461087f578063d905777e146108af576102a0565b8063ad82cbea11610120578063ad82cbea1461070d578063af56b69f1461072b578063b3d7f6b914610749578063b460af9414610779578063b9d4e879146107a9578063ba087652146107c7576102a0565b806395d89b411461063957806399530b06146106575780639f0caac914610675578063a457c2d714610691578063a9059cbb146106c1578063ad66bb60146106f1576102a0565b806338d52e0f1161020b5780635c975abb116101c45780635c975abb1461054f5780636e553f651461056d57806370a082311461059d57806379e42b69146105cd5780638da5cb5b146105eb57806394bf804d14610609576102a0565b806338d52e0f1461046557806339509351146104835780633f23fa1a146104b3578063402d267d146104d157806346904840146105015780634cdad5061461051f576102a0565b8063172cfa4c1161025d578063172cfa4c1461038d57806318160ddd146103bd5780631e8410da146103db57806323b872dd146103f9578063313ce5671461042957806331bd38ed14610447576102a0565b806301e1d114146102a557806302329a29146102c357806306fdde03146102df57806307a2d13a146102fd578063095ea7b31461032d5780630a28a4771461035d575b600080fd5b6102ad6109b1565b6040516102ba919061463a565b60405180910390f35b6102dd60048036038101906102d89190614692565b610a61565b005b6102e7610b3a565b6040516102f4919061474f565b60405180910390f35b6103176004803603810190610312919061479d565b610bc8565b604051610324919061463a565b60405180910390f35b61034760048036038101906103429190614828565b610c6b565b6040516103549190614877565b60405180910390f35b6103776004803603810190610372919061479d565b610dc2565b604051610384919061463a565b60405180910390f35b6103a760048036038101906103a29190614892565b610e45565b6040516103b4919061463a565b60405180910390f35b6103c561119f565b6040516103d2919061463a565b60405180910390f35b6103e36111a5565b6040516103f0919061463a565b60405180910390f35b610413600480360381019061040e91906148d2565b6111ab565b6040516104209190614877565b60405180910390f35b61043161130c565b60405161043e9190614941565b60405180910390f35b61044f61131f565b60405161045c919061496b565b60405180910390f35b61046d611345565b60405161047a91906149e5565b60405180910390f35b61049d60048036038101906104989190614828565b611369565b6040516104aa9190614877565b60405180910390f35b6104bb61154e565b6040516104c8919061463a565b60405180910390f35b6104eb60048036038101906104e69190614a00565b611554565b6040516104f8919061463a565b60405180910390f35b61050961160d565b604051610516919061496b565b60405180910390f35b6105396004803603810190610534919061479d565b611633565b604051610546919061463a565b60405180910390f35b6105576116b6565b6040516105649190614877565b60405180910390f35b61058760048036038101906105829190614a2d565b6116c9565b604051610594919061463a565b60405180910390f35b6105b760048036038101906105b29190614a00565b611b65565b6040516105c4919061463a565b60405180910390f35b6105d5611b7d565b6040516105e2919061463a565b60405180910390f35b6105f3611b83565b604051610600919061496b565b60405180910390f35b610623600480360381019061061e9190614a2d565b611ba7565b604051610630919061463a565b60405180910390f35b610641611fde565b60405161064e919061474f565b60405180910390f35b61065f61206c565b60405161066c919061463a565b60405180910390f35b61068f600480360381019061068a919061479d565b61211c565b005b6106ab60048036038101906106a69190614828565b612258565b6040516106b89190614877565b60405180910390f35b6106db60048036038101906106d69190614828565b6124f3565b6040516106e89190614877565b60405180910390f35b61070b6004803603810190610706919061479d565b61250a565b005b61071561264e565b604051610722919061463a565b60405180910390f35b610733612654565b604051610740919061463a565b60405180910390f35b610763600480360381019061075e919061479d565b61265a565b604051610770919061463a565b60405180910390f35b610793600480360381019061078e9190614a6d565b6126dd565b6040516107a0919061463a565b60405180910390f35b6107b1612ccd565b6040516107be919061463a565b60405180910390f35b6107e160048036038101906107dc9190614a6d565b612cd3565b6040516107ee919061463a565b60405180910390f35b6107ff61328e565b005b61081b60048036038101906108169190614a00565b613408565b604051610828919061463a565b60405180910390f35b61084b6004803603810190610846919061479d565b613504565b604051610858919061463a565b60405180910390f35b6108696135ac565b604051610876919061496b565b60405180910390f35b61089960048036038101906108949190614a00565b6135d2565b6040516108a6919061463a565b60405180910390f35b6108c960048036038101906108c49190614a00565b6136bd565b6040516108d6919061463a565b60405180910390f35b6108f960048036038101906108f4919061479d565b6137ab565b005b61091560048036038101906109109190614ac0565b61389c565b604051610922919061463a565b60405180910390f35b61094560048036038101906109409190614a00565b6138c1565b005b61094f613aa0565b60405161095c919061463a565b60405180910390f35b61097f600480360381019061097a919061479d565b613aa6565b60405161098c919061463a565b60405180910390f35b6109af60048036038101906109aa919061479d565b613b29565b005b6000600160009054906101000a900473ffffffffffffffffffffffffffffffffffffffff1673ffffffffffffffffffffffffffffffffffffffff1663e3e9638a306040518263ffffffff1660e01b8152600401610a0e919061496b565b602060405180830381865afa158015610a2b573d6000803e3d6000fd5b505050506040513d601f19601f82011682018060405250810190610a4f9190614b15565b600954610a5c9190614b71565b905090565b60008054906101000a900473ffffffffffffffffffffffffffffffffffffffff1673ffffffffffffffffffffffffffffffffffffffff163373ffffffffffffffffffffffffffffffffffffffff1614610ae6576040517f1abf68b300000000000000000000000000000000000000000000000000000000815260040160405180910390fd5b80601160006101000a81548160ff0219169083151502179055507f0e2fb031ee032dc02d8011dc50b816eb450cf856abd8261680dac74f72165bd281604051610b2f9190614877565b60405180910390a150565b60038054610b4790614bd4565b80601f0160208091040260200160405190810160405280929190818152602001828054610b7390614bd4565b8015610bc05780601f10610b9557610100808354040283529160200191610bc0565b820191906000526020600020905b815481529060010190602001808311610ba357829003601f168201915b505050505081565b60008060065403610bdc5760009050610c66565b6006543073ffffffffffffffffffffffffffffffffffffffff166301e1d1146040518163ffffffff1660e01b8152600401602060405180830381865afa158015610c2a573d6000803e3d6000fd5b505050506040513d601f19601f82011682018060405250810190610c4e9190614b15565b83610c599190614c05565b610c639190614c76565b90505b919050565b60008073ffffffffffffffffffffffffffffffffffffffff168373ffffffffffffffffffffffffffffffffffffffff1603610cd2576040517f157d777100000000000000000000000000000000000000000000000000000000815260040160405180910390fd5b81600860003373ffffffffffffffffffffffffffffffffffffffff1673ffffffffffffffffffffffffffffffffffffffff16815260200190815260200160002060008573ffffffffffffffffffffffffffffffffffffffff1673ffffffffffffffffffffffffffffffffffffffff168152602001908152602001600020819055508273ffffffffffffffffffffffffffffffffffffffff163373ffffffffffffffffffffffffffffffffffffffff167f8c5be1e5ebec7d5bd14f71427d1e84f3dd0314c0f7b2291e5b200ac8c7c3b92584604051610db0919061463a565b60405180910390a36001905092915050565b60003073ffffffffffffffffffffffffffffffffffffffff1663c6e6f592836040518263ffffffff1660e01b8152600401610dfd919061463a565b602060405180830381865afa158015610e1a573d6000803e3d6000fd5b505050506040513d601f19601f82011682018060405250810190610e3e9190614b15565b9050919050565b60008060009054906101000a900473ffffffffffffffffffffffffffffffffffffffff1673ffffffffffffffffffffffffffffffffffffffff163373ffffffffffffffffffffffffffffffffffffffff1614610ecd576040517f1abf68b300000000000000000000000000000000000000000000000000000000815260040160405180910390fd5b601160009054906101000a900460ff1615610f14576040517ff61cb5e000000000000000000000000000000000000000000000000000000000815260040160405180910390fd5b60008203610f4e576040517f7411319100000000000000000000000000000000000000000000000000000000815260040160405180910390fd5b600954821115610f9857816009546040517e907875000000000000000000000000000000000000000000000000000000008152600401610f8f929190614ca7565b60405180910390fd5b7f000000000000000000000000000000000000000000000000000000000000000073ffffffffffffffffffffffffffffffffffffffff1663095ea7b3600160009054906101000a900473ffffffffffffffffffffffffffffffffffffffff16846040518363ffffffff1660e01b8152600401611015929190614cd0565b6020604051808303816000875af1158015611034573d6000803e3d6000fd5b505050506040513d601f19601f820116820180604052508101906110589190614d0e565b506000600160009054906101000a900473ffffffffffffffffffffffffffffffffffffffff1673ffffffffffffffffffffffffffffffffffffffff1663b0656c3985856040518363ffffffff1660e01b81526004016110b8929190614ca7565b6020604051808303816000875af11580156110d7573d6000803e3d6000fd5b505050506040513d601f19601f820116820180604052508101906110fb9190614b15565b90506000600954905081600960008282546111169190614d3b565b92505081905550847f2daf7483bd1eea3ef9b7f22119cc10298e3a9eac8950530f9a9bfa2c8689a61883600954604051611151929190614ca7565b60405180910390a27f84c97b35c64ce8096861a19dc36faedc374e0ab4c29482e5d805ba6bc2d52b888160095460405161118c929190614ca7565b60405180910390a1819250505092915050565b60065481565b600e5481565b600081600860008673ffffffffffffffffffffffffffffffffffffffff1673ffffffffffffffffffffffffffffffffffffffff16815260200190815260200160002060003373ffffffffffffffffffffffffffffffffffffffff1673ffffffffffffffffffffffffffffffffffffffff168152602001908152602001600020541015611263576040517f23af47c500000000000000000000000000000000000000000000000000000000815260040160405180910390fd5b81600860008673ffffffffffffffffffffffffffffffffffffffff1673ffffffffffffffffffffffffffffffffffffffff16815260200190815260200160002060003373ffffffffffffffffffffffffffffffffffffffff1673ffffffffffffffffffffffffffffffffffffffff16815260200190815260200160002060008282546112ef9190614d3b565b92505081905550611301848484613c1a565b600190509392505050565b600560009054906101000a900460ff1681565b600160009054906101000a900473ffffffffffffffffffffffffffffffffffffffff1681565b7f000000000000000000000000000000000000000000000000000000000000000081565b60008073ffffffffffffffffffffffffffffffffffffffff168373ffffffffffffffffffffffffffffffffffffffff16036113d0576040517f157d777100000000000000000000000000000000000000000000000000000000815260040160405180910390fd5b81600860003373ffffffffffffffffffffffffffffffffffffffff1673ffffffffffffffffffffffffffffffffffffffff16815260200190815260200160002060008573ffffffffffffffffffffffffffffffffffffffff1673ffffffffffffffffffffffffffffffffffffffff168152602001908152602001600020600082825461145c9190614b71565b925050819055508273ffffffffffffffffffffffffffffffffffffffff163373ffffffffffffffffffffffffffffffffffffffff167f8c5be1e5ebec7d5bd14f71427d1e84f3dd0314c0f7b2291e5b200ac8c7c3b925600860003373ffffffffffffffffffffffffffffffffffffffff1673ffffffffffffffffffffffffffffffffffffffff16815260200190815260200160002060008773ffffffffffffffffffffffffffffffffffffffff1673ffffffffffffffffffffffffffffffffffffffff1681526020019081526020016000205460405161153c919061463a565b60405180910390a36001905092915050565b600f5481565b6000803073ffffffffffffffffffffffffffffffffffffffff166301e1d1146040518163ffffffff1660e01b8152600401602060405180830381865afa1580156115a2573d6000803e3d6000fd5b505050506040513d601f19601f820116820180604052508101906115c69190614b15565b90506000600f548210156115e75781600f546115e29190614d3b565b6115ea565b60005b9050601054811015611600578092505050611608565b601054925050505b919050565b600c60009054906101000a900473ffffffffffffffffffffffffffffffffffffffff1681565b60003073ffffffffffffffffffffffffffffffffffffffff166307a2d13a836040518263ffffffff1660e01b815260040161166e919061463a565b602060405180830381865afa15801561168b573d6000803e3d6000fd5b505050506040513d601f19601f820116820180604052508101906116af9190614b15565b9050919050565b601160009054906101000a900460ff1681565b6000601160009054906101000a900460ff1615611712576040517ff61cb5e000000000000000000000000000000000000000000000000000000000815260040160405180910390fd5b81600073ffffffffffffffffffffffffffffffffffffffff168173ffffffffffffffffffffffffffffffffffffffff1603611779576040517f157d777100000000000000000000000000000000000000000000000000000000815260040160405180910390fd5b600084036117b3576040517f7411319100000000000000000000000000000000000000000000000000000000815260040160405180910390fd5b600073ffffffffffffffffffffffffffffffffffffffff168373ffffffffffffffffffffffffffffffffffffffff1603611819576040517fc484bc9c00000000000000000000000000000000000000000000000000000000815260040160405180910390fd5b3073ffffffffffffffffffffffffffffffffffffffff1663c6e6f592856040518263ffffffff1660e01b8152600401611852919061463a565b602060405180830381865afa15801561186f573d6000803e3d6000fd5b505050506040513d601f19601f820116820180604052508101906118939190614b15565b91503073ffffffffffffffffffffffffffffffffffffffff1663402d267d846040518263ffffffff1660e01b81526004016118ce919061496b565b602060405180830381865afa1580156118eb573d6000803e3d6000fd5b505050506040513d601f19601f8201168201806040525081019061190f9190614b15565b8411156119ce57833073ffffffffffffffffffffffffffffffffffffffff1663402d267d856040518263ffffffff1660e01b8152600401611950919061496b565b602060405180830381865afa15801561196d573d6000803e3d6000fd5b505050506040513d601f19601f820116820180604052508101906119919190614b15565b6040517fc11ad0b50000000000000000000000000000000000000000000000000000000081526004016119c5929190614ca7565b60405180910390fd5b83600960008282546119e09190614b71565b925050819055507f000000000000000000000000000000000000000000000000000000000000000073ffffffffffffffffffffffffffffffffffffffff166323b872dd3330876040518463ffffffff1660e01b8152600401611a4493929190614d6f565b6020604051808303816000875af1158015611a63573d6000803e3d6000fd5b505050506040513d601f19601f82011682018060405250810190611a879190614d0e565b508160066000828254611a9a9190614b71565b9250508190555081600760008573ffffffffffffffffffffffffffffffffffffffff1673ffffffffffffffffffffffffffffffffffffffff1681526020019081526020016000206000828254611af09190614b71565b925050819055508273ffffffffffffffffffffffffffffffffffffffff163373ffffffffffffffffffffffffffffffffffffffff167fdcbc1c05240f31ff3ad067ef1ee35ce4997762752e3a095284754544f4c709d78685604051611b56929190614ca7565b60405180910390a35092915050565b60076020528060005260406000206000915090505481565b600d5481565b60008054906101000a900473ffffffffffffffffffffffffffffffffffffffff1681565b6000601160009054906101000a900460ff1615611bf0576040517ff61cb5e000000000000000000000000000000000000000000000000000000000815260040160405180910390fd5b81600073ffffffffffffffffffffffffffffffffffffffff168173ffffffffffffffffffffffffffffffffffffffff1603611c57576040517f157d777100000000000000000000000000000000000000000000000000000000815260040160405180910390fd5b60008403611c91576040517f7411319100000000000000000000000000000000000000000000000000000000815260040160405180910390fd5b600073ffffffffffffffffffffffffffffffffffffffff168373ffffffffffffffffffffffffffffffffffffffff1603611cf7576040517fc484bc9c00000000000000000000000000000000000000000000000000000000815260040160405180910390fd5b3073ffffffffffffffffffffffffffffffffffffffff166307a2d13a856040518263ffffffff1660e01b8152600401611d30919061463a565b602060405180830381865afa158015611d4d573d6000803e3d6000fd5b505050506040513d601f19601f82011682018060405250810190611d719190614b15565b91503073ffffffffffffffffffffffffffffffffffffffff1663402d267d846040518263ffffffff1660e01b8152600401611dac919061496b565b602060405180830381865afa158015611dc9573d6000803e3d6000fd5b505050506040513d601f19601f82011682018060405250810190611ded9190614b15565b821115611eac57813073ffffffffffffffffffffffffffffffffffffffff1663402d267d856040518263ffffffff1660e01b8152600401611e2e919061496b565b602060405180830381865afa158015611e4b573d6000803e3d6000fd5b505050506040513d601f19601f82011682018060405250810190611e6f9190614b15565b6040517fc11ad0b5000000000000000000000000000000000000000000000000000000008152600401611ea3929190614ca7565b60405180910390fd5b7f000000000000000000000000000000000000000000000000000000000000000073ffffffffffffffffffffffffffffffffffffffff166323b872dd3330856040518463ffffffff1660e01b8152600401611f0993929190614d6f565b6020604051808303816000875af1158015611f28573d6000803e3d6000fd5b505050506040513d601f19601f82011682018060405250810190611f4c9190614d0e565b508160096000828254611f5f9190614b71565b92505081905550611f708385613e0f565b8273ffffffffffffffffffffffffffffffffffffffff163373ffffffffffffffffffffffffffffffffffffffff167fdcbc1c05240f31ff3ad067ef1ee35ce4997762752e3a095284754544f4c709d78487604051611fcf929190614ca7565b60405180910390a35092915050565b60048054611feb90614bd4565b80601f016020809104026020016040519081016040528092919081815260200182805461201790614bd4565b80156120645780601f1061203957610100808354040283529160200191612064565b820191906000526020600020905b81548152906001019060200180831161204757829003601f168201915b505050505081565b6000806006540361208757670de0b6b3a76400009050612119565b600654670de0b6b3a76400003073ffffffffffffffffffffffffffffffffffffffff166301e1d1146040518163ffffffff1660e01b8152600401602060405180830381865afa1580156120de573d6000803e3d6000fd5b505050506040513d601f19601f820116820180604052508101906121029190614b15565b61210c9190614c05565b6121169190614c76565b90505b90565b60008054906101000a900473ffffffffffffffffffffffffffffffffffffffff1673ffffffffffffffffffffffffffffffffffffffff163373ffffffffffffffffffffffffffffffffffffffff16146121a1576040517f1abf68b300000000000000000000000000000000000000000000000000000000815260040160405180910390fd5b6127108111156121ec57806127106040517fc11ad0b50000000000000000000000000000000000000000000000000000000081526004016121e3929190614ca7565b60405180910390fd5b6000600b54905081600b819055507f46129da8f2c356b23834d0e6ce24b8010d6ac2873b77946445968ce7b51d35ce7fac2ccce3de9c0816ae772598f7f65fe69f9893b637f7c490497378cbb3ea043e828460405161224c929190614ca7565b60405180910390a25050565b60008073ffffffffffffffffffffffffffffffffffffffff168373ffffffffffffffffffffffffffffffffffffffff16036122bf576040517f157d777100000000000000000000000000000000000000000000000000000000815260040160405180910390fd5b81600860003373ffffffffffffffffffffffffffffffffffffffff1673ffffffffffffffffffffffffffffffffffffffff16815260200190815260200160002060008573ffffffffffffffffffffffffffffffffffffffff1673ffffffffffffffffffffffffffffffffffffffff168152602001908152602001600020541015612375576040517f23af47c500000000000000000000000000000000000000000000000000000000815260040160405180910390fd5b81600860003373ffffffffffffffffffffffffffffffffffffffff1673ffffffffffffffffffffffffffffffffffffffff16815260200190815260200160002060008573ffffffffffffffffffffffffffffffffffffffff1673ffffffffffffffffffffffffffffffffffffffff16815260200190815260200160002060008282546124019190614d3b565b925050819055508273ffffffffffffffffffffffffffffffffffffffff163373ffffffffffffffffffffffffffffffffffffffff167f8c5be1e5ebec7d5bd14f71427d1e84f3dd0314c0f7b2291e5b200ac8c7c3b925600860003373ffffffffffffffffffffffffffffffffffffffff1673ffffffffffffffffffffffffffffffffffffffff16815260200190815260200160002060008773ffffffffffffffffffffffffffffffffffffffff1673ffffffffffffffffffffffffffffffffffffffff168152602001908152602001600020546040516124e1919061463a565b60405180910390a36001905092915050565b6000612500338484613c1a565b6001905092915050565b60008054906101000a900473ffffffffffffffffffffffffffffffffffffffff1673ffffffffffffffffffffffffffffffffffffffff163373ffffffffffffffffffffffffffffffffffffffff161461258f576040517f1abf68b300000000000000000000000000000000000000000000000000000000815260040160405180910390fd5b6127108111156125da57806127106040517fc11ad0b50000000000000000000000000000000000000000000000000000000081526004016125d1929190614ca7565b60405180910390fd5b6000600a54905081600a819055506125f0613f4e565b7f93ed7e88685b7807c63a2474a719990b72b0660cf5e7c396669b7f63632fd0fe7fac2ccce3de9c0816ae772598f7f65fe69f9893b637f7c490497378cbb3ea043e8284604051612642929190614ca7565b60405180910390a25050565b60105481565b600a5481565b60003073ffffffffffffffffffffffffffffffffffffffff166307a2d13a836040518263ffffffff1660e01b8152600401612695919061463a565b602060405180830381865afa1580156126b2573d6000803e3d6000fd5b505050506040513d601f19601f820116820180604052508101906126d69190614b15565b9050919050565b6000601160009054906101000a900460ff1615612726576040517ff61cb5e000000000000000000000000000000000000000000000000000000000815260040160405180910390fd5b82600073ffffffffffffffffffffffffffffffffffffffff168173ffffffffffffffffffffffffffffffffffffffff160361278d576040517f157d777100000000000000000000000000000000000000000000000000000000815260040160405180910390fd5b82600073ffffffffffffffffffffffffffffffffffffffff168173ffffffffffffffffffffffffffffffffffffffff16036127f4576040517f157d777100000000000000000000000000000000000000000000000000000000815260040160405180910390fd5b6000860361282e576040517f7411319100000000000000000000000000000000000000000000000000000000815260040160405180910390fd5b3073ffffffffffffffffffffffffffffffffffffffff1663ce96cb77856040518263ffffffff1660e01b8152600401612867919061496b565b602060405180830381865afa158015612884573d6000803e3d6000fd5b505050506040513d601f19601f820116820180604052508101906128a89190614b15565b86111561296757853073ffffffffffffffffffffffffffffffffffffffff1663ce96cb77866040518263ffffffff1660e01b81526004016128e9919061496b565b602060405180830381865afa158015612906573d6000803e3d6000fd5b505050506040513d601f19601f8201168201806040525081019061292a9190614b15565b6040517fc11ad0b500000000000000000000000000000000000000000000000000000000815260040161295e929190614ca7565b60405180910390fd5b3073ffffffffffffffffffffffffffffffffffffffff1663c6e6f592876040518263ffffffff1660e01b81526004016129a0919061463a565b602060405180830381865afa1580156129bd573d6000803e3d6000fd5b505050506040513d601f19601f820116820180604052508101906129e19190614b15565b9250600760008573ffffffffffffffffffffffffffffffffffffffff1673ffffffffffffffffffffffffffffffffffffffff16815260200190815260200160002054831115612a5c576040517f1243c70b00000000000000000000000000000000000000000000000000000000815260040160405180910390fd5b612a6684846140f3565b612a7084846140f7565b6009548611612a97578560096000828254612a8b9190614d3b565b92505081905550612ba7565b6000600954905060008188612aac9190614d3b565b905060006009819055506000600260009054906101000a900473ffffffffffffffffffffffffffffffffffffffff1673ffffffffffffffffffffffffffffffffffffffff1663c4aa73956040518163ffffffff1660e01b8152600401602060405180830381865afa158015612b25573d6000803e3d6000fd5b505050506040513d601f19601f82011682018060405250810190612b499190614dd2565b60ff1690506000612b5a8383614249565b905082811015612ba25782816040517e907875000000000000000000000000000000000000000000000000000000008152600401612b99929190614ca7565b60405180910390fd5b505050505b7f000000000000000000000000000000000000000000000000000000000000000073ffffffffffffffffffffffffffffffffffffffff1663a9059cbb86886040518363ffffffff1660e01b8152600401612c02929190614cd0565b6020604051808303816000875af1158015612c21573d6000803e3d6000fd5b505050506040513d601f19601f82011682018060405250810190612c459190614d0e565b508373ffffffffffffffffffffffffffffffffffffffff168573ffffffffffffffffffffffffffffffffffffffff163373ffffffffffffffffffffffffffffffffffffffff167ffbde797d201c681b91056529119e0b02407c7bb96a4a2c75c01fc9667232c8db8987604051612cbc929190614ca7565b60405180910390a450509392505050565b600b5481565b6000601160009054906101000a900460ff1615612d1c576040517ff61cb5e000000000000000000000000000000000000000000000000000000000815260040160405180910390fd5b82600073ffffffffffffffffffffffffffffffffffffffff168173ffffffffffffffffffffffffffffffffffffffff1603612d83576040517f157d777100000000000000000000000000000000000000000000000000000000815260040160405180910390fd5b82600073ffffffffffffffffffffffffffffffffffffffff168173ffffffffffffffffffffffffffffffffffffffff1603612dea576040517f157d777100000000000000000000000000000000000000000000000000000000815260040160405180910390fd5b60008603612e24576040517f7411319100000000000000000000000000000000000000000000000000000000815260040160405180910390fd5b3073ffffffffffffffffffffffffffffffffffffffff166307a2d13a876040518263ffffffff1660e01b8152600401612e5d919061463a565b602060405180830381865afa158015612e7a573d6000803e3d6000fd5b505050506040513d601f19601f82011682018060405250810190612e9e9190614b15565b9250612eaa84876140f3565b3373ffffffffffffffffffffffffffffffffffffffff168473ffffffffffffffffffffffffffffffffffffffff16146130275785600860008673ffffffffffffffffffffffffffffffffffffffff1673ffffffffffffffffffffffffffffffffffffffff16815260200190815260200160002060003373ffffffffffffffffffffffffffffffffffffffff1673ffffffffffffffffffffffffffffffffffffffff168152602001908152602001600020541015612f93576040517f23af47c500000000000000000000000000000000000000000000000000000000815260040160405180910390fd5b85600860008673ffffffffffffffffffffffffffffffffffffffff1673ffffffffffffffffffffffffffffffffffffffff16815260200190815260200160002060003373ffffffffffffffffffffffffffffffffffffffff1673ffffffffffffffffffffffffffffffffffffffff168152602001908152602001600020600082825461301f9190614d3b565b925050819055505b61303184876140f7565b600954831161305857826009600082825461304c9190614d3b565b92505081905550613168565b600060095490506000818561306d9190614d3b565b905060006009819055506000600260009054906101000a900473ffffffffffffffffffffffffffffffffffffffff1673ffffffffffffffffffffffffffffffffffffffff1663c4aa73956040518163ffffffff1660e01b8152600401602060405180830381865afa1580156130e6573d6000803e3d6000fd5b505050506040513d601f19601f8201168201806040525081019061310a9190614dd2565b60ff169050600061311b8383614249565b9050828110156131635782816040517e90787500000000000000000000000000000000000000000000000000000000815260040161315a929190614ca7565b60405180910390fd5b505050505b7f000000000000000000000000000000000000000000000000000000000000000073ffffffffffffffffffffffffffffffffffffffff1663a9059cbb86856040518363ffffffff1660e01b81526004016131c3929190614cd0565b6020604051808303816000875af11580156131e2573d6000803e3d6000fd5b505050506040513d601f19601f820116820180604052508101906132069190614d0e565b508373ffffffffffffffffffffffffffffffffffffffff168573ffffffffffffffffffffffffffffffffffffffff163373ffffffffffffffffffffffffffffffffffffffff167ffbde797d201c681b91056529119e0b02407c7bb96a4a2c75c01fc9667232c8db868a60405161327d929190614ca7565b60405180910390a450509392505050565b62093a80600d5461329f9190614b71565b4210156132d8576040517f44b4814d00000000000000000000000000000000000000000000000000000000815260040160405180910390fd5b60003073ffffffffffffffffffffffffffffffffffffffff166301e1d1146040518163ffffffff1660e01b8152600401602060405180830381865afa158015613325573d6000803e3d6000fd5b505050506040513d601f19601f820116820180604052508101906133499190614b15565b905060006006549050600081036133685742600d819055505050613406565b600081670de0b6b3a76400008461337f9190614c05565b6133899190614c76565b90506000600e548211156133a857600e54826133a59190614d3b565b90505b600e548211156133ba5781600e819055505b42600d819055507ffe6f1e49d233d7df346237311b5b935a66977eb3790db3e0cf6a2c98ac77dfbc816000600e54426040516133f99493929190614e3a565b60405180910390a1505050505b565b60003073ffffffffffffffffffffffffffffffffffffffff1663c6e6f5923073ffffffffffffffffffffffffffffffffffffffff1663402d267d856040518263ffffffff1660e01b815260040161345f919061496b565b602060405180830381865afa15801561347c573d6000803e3d6000fd5b505050506040513d601f19601f820116820180604052508101906134a09190614b15565b6040518263ffffffff1660e01b81526004016134bc919061463a565b602060405180830381865afa1580156134d9573d6000803e3d6000fd5b505050506040513d601f19601f820116820180604052508101906134fd9190614b15565b9050919050565b6000803073ffffffffffffffffffffffffffffffffffffffff166301e1d1146040518163ffffffff1660e01b8152600401602060405180830381865afa158015613552573d6000803e3d6000fd5b505050506040513d601f19601f820116820180604052508101906135769190614b15565b905060006006540361358a578291506135a6565b80600654846135999190614c05565b6135a39190614c76565b91505b50919050565b600260009054906101000a900473ffffffffffffffffffffffffffffffffffffffff1681565b6000803073ffffffffffffffffffffffffffffffffffffffff166307a2d13a600760008673ffffffffffffffffffffffffffffffffffffffff1673ffffffffffffffffffffffffffffffffffffffff168152602001908152602001600020546040518263ffffffff1660e01b815260040161364d919061463a565b602060405180830381865afa15801561366a573d6000803e3d6000fd5b505050506040513d601f19601f8201168201806040525081019061368e9190614b15565b905060006010541180156136a3575060105481115b156136b3576010549150506136b8565b809150505b919050565b600080600760008473ffffffffffffffffffffffffffffffffffffffff1673ffffffffffffffffffffffffffffffffffffffff168152602001908152602001600020549050600060105411156137a15760003073ffffffffffffffffffffffffffffffffffffffff1663c6e6f5926010546040518263ffffffff1660e01b815260040161374a919061463a565b602060405180830381865afa158015613767573d6000803e3d6000fd5b505050506040513d601f19601f8201168201806040525081019061378b9190614b15565b90508082111561379f5780925050506137a6565b505b809150505b919050565b60008054906101000a900473ffffffffffffffffffffffffffffffffffffffff1673ffffffffffffffffffffffffffffffffffffffff163373ffffffffffffffffffffffffffffffffffffffff1614613830576040517f1abf68b300000000000000000000000000000000000000000000000000000000815260040160405180910390fd5b6000600f54905081600f819055507f1e179f9acf77f1bf4cdf0f584b1bd985770ea9801819edc98d34f09bab0e187e7fac2ccce3de9c0816ae772598f7f65fe69f9893b637f7c490497378cbb3ea043e8284604051613890929190614ca7565b60405180910390a25050565b6008602052816000526040600020602052806000526040600020600091509150505481565b60008054906101000a900473ffffffffffffffffffffffffffffffffffffffff1673ffffffffffffffffffffffffffffffffffffffff163373ffffffffffffffffffffffffffffffffffffffff1614613946576040517f1abf68b300000000000000000000000000000000000000000000000000000000815260040160405180910390fd5b80600073ffffffffffffffffffffffffffffffffffffffff168173ffffffffffffffffffffffffffffffffffffffff16036139ad576040517f157d777100000000000000000000000000000000000000000000000000000000815260040160405180910390fd5b6000600c60009054906101000a900473ffffffffffffffffffffffffffffffffffffffff16905082600c60006101000a81548173ffffffffffffffffffffffffffffffffffffffff021916908373ffffffffffffffffffffffffffffffffffffffff1602179055507fa13bb13c7ce3dd605a79d36377f06413322c259738133384ebd55409ced351407fac2ccce3de9c0816ae772598f7f65fe69f9893b637f7c490497378cbb3ea043e8273ffffffffffffffffffffffffffffffffffffffff168573ffffffffffffffffffffffffffffffffffffffff16604051613a93929190614ca7565b60405180910390a2505050565b60095481565b60003073ffffffffffffffffffffffffffffffffffffffff1663c6e6f592836040518263ffffffff1660e01b8152600401613ae1919061463a565b602060405180830381865afa158015613afe573d6000803e3d6000fd5b505050506040513d601f19601f82011682018060405250810190613b229190614b15565b9050919050565b60008054906101000a900473ffffffffffffffffffffffffffffffffffffffff1673ffffffffffffffffffffffffffffffffffffffff163373ffffffffffffffffffffffffffffffffffffffff1614613bae576040517f1abf68b300000000000000000000000000000000000000000000000000000000815260040160405180910390fd5b60006010549050816010819055507fe1056a31e9db00f0754da69d216a6fd6500b51b66ddca92513ba42fb9a6b61d07fac2ccce3de9c0816ae772598f7f65fe69f9893b637f7c490497378cbb3ea043e8284604051613c0e929190614ca7565b60405180910390a25050565b600073ffffffffffffffffffffffffffffffffffffffff168273ffffffffffffffffffffffffffffffffffffffff1603613c80576040517f157d777100000000000000000000000000000000000000000000000000000000815260040160405180910390fd5b80600760008573ffffffffffffffffffffffffffffffffffffffff1673ffffffffffffffffffffffffffffffffffffffff168152602001908152602001600020541015613cf9576040517f1243c70b00000000000000000000000000000000000000000000000000000000815260040160405180910390fd5b80600760008573ffffffffffffffffffffffffffffffffffffffff1673ffffffffffffffffffffffffffffffffffffffff1681526020019081526020016000206000828254613d489190614d3b565b9250508190555080600760008473ffffffffffffffffffffffffffffffffffffffff1673ffffffffffffffffffffffffffffffffffffffff1681526020019081526020016000206000828254613d9e9190614b71565b925050819055508173ffffffffffffffffffffffffffffffffffffffff168373ffffffffffffffffffffffffffffffffffffffff167fddf252ad1be2c89b69c2b068fc378daa952ba7f163c4a11628f55a4df523b3ef83604051613e02919061463a565b60405180910390a3505050565b600073ffffffffffffffffffffffffffffffffffffffff168273ffffffffffffffffffffffffffffffffffffffff1603613e75576040517f157d777100000000000000000000000000000000000000000000000000000000815260040160405180910390fd5b8060066000828254613e879190614b71565b9250508190555080600760008473ffffffffffffffffffffffffffffffffffffffff1673ffffffffffffffffffffffffffffffffffffffff1681526020019081526020016000206000828254613edd9190614b71565b925050819055508173ffffffffffffffffffffffffffffffffffffffff16600073ffffffffffffffffffffffffffffffffffffffff167fddf252ad1be2c89b69c2b068fc378daa952ba7f163c4a11628f55a4df523b3ef83604051613f42919061463a565b60405180910390a35050565b60003073ffffffffffffffffffffffffffffffffffffffff166301e1d1146040518163ffffffff1660e01b8152600401602060405180830381865afa158015613f9b573d6000803e3d6000fd5b505050506040513d601f19601f82011682018060405250810190613fbf9190614b15565b90506000612710600a5483613fd49190614c05565b613fde9190614c76565b9050600060095490508160095410156140a9576000600954836140019190614d3b565b90506000600260009054906101000a900473ffffffffffffffffffffffffffffffffffffffff1673ffffffffffffffffffffffffffffffffffffffff1663c4aa73956040518163ffffffff1660e01b8152600401602060405180830381865afa158015614072573d6000803e3d6000fd5b505050506040513d601f19601f820116820180604052508101906140969190614dd2565b60ff1690506140a58282614249565b5050505b60095481146140ee577f84c97b35c64ce8096861a19dc36faedc374e0ab4c29482e5d805ba6bc2d52b88816009546040516140e5929190614ca7565b60405180910390a15b505050565b5050565b80600760008473ffffffffffffffffffffffffffffffffffffffff1673ffffffffffffffffffffffffffffffffffffffff168152602001908152602001600020541015614170576040517f1243c70b00000000000000000000000000000000000000000000000000000000815260040160405180910390fd5b80600760008473ffffffffffffffffffffffffffffffffffffffff1673ffffffffffffffffffffffffffffffffffffffff16815260200190815260200160002060008282546141bf9190614d3b565b9250508190555080600660008282546141d89190614d3b565b92505081905550600073ffffffffffffffffffffffffffffffffffffffff168273ffffffffffffffffffffffffffffffffffffffff167fddf252ad1be2c89b69c2b068fc378daa952ba7f163c4a11628f55a4df523b3ef8360405161423d919061463a565b60405180910390a35050565b600080600160009054906101000a900473ffffffffffffffffffffffffffffffffffffffff169050600084905060008273ffffffffffffffffffffffffffffffffffffffff1663f96d7b806040518163ffffffff1660e01b8152600401602060405180830381865afa1580156142c3573d6000803e3d6000fd5b505050506040513d601f19601f820116820180604052508101906142e79190614b15565b90506000600190505b8181111580156143005750600083115b15614617576000808573ffffffffffffffffffffffffffffffffffffffff1663cfc0cc34846040518263ffffffff1660e01b8152600401614341919061463a565b608060405180830381865afa15801561435e573d6000803e3d6000fd5b505050506040513d601f19601f820116820180604052508101906143829190614e94565b505091509150600073ffffffffffffffffffffffffffffffffffffffff168273ffffffffffffffffffffffffffffffffffffffff1614806143c1575080155b156143cd575050614604565b6000808373ffffffffffffffffffffffffffffffffffffffff166040516024016040516020818303038152906040527f01e1d114000000000000000000000000000000000000000000000000000000007bffffffffffffffffffffffffffffffffffffffffffffffffffffffff19166020820180517bffffffffffffffffffffffffffffffffffffffffffffffffffffffff83818316178352505050506040516144779190614f42565b600060405180830381855afa9150503d80600081146144b2576040519150601f19603f3d011682016040523d82523d6000602084013e6144b7565b606091505b5091509150816144ca5750505050614604565b6000818060200190518101906144e09190614b15565b9050600081036144f4575050505050614604565b60008189116145035788614505565b815b90508973ffffffffffffffffffffffffffffffffffffffff16631083534588838f6040518463ffffffff1660e01b815260040161454493929190614f59565b6020604051808303816000875af192505050801561458057506040513d601f19601f8201168201806040525081019061457d9190614b15565b60015b61458f57505050505050614604565b808c61459b9190614b71565b9b50808a6145a99190614d3b565b995080600960008282546145bd9190614b71565b92505081905550877fdd42afdcf46eb795b638427459f02b0d5b94751009a7e0b23b39b7289b42117b826040516145f4919061463a565b60405180910390a2505050505050505b808061460f90614f90565b9150506142f0565b5050505092915050565b6000819050919050565b61463481614621565b82525050565b600060208201905061464f600083018461462b565b92915050565b600080fd5b60008115159050919050565b61466f8161465a565b811461467a57600080fd5b50565b60008135905061468c81614666565b92915050565b6000602082840312156146a8576146a7614655565b5b60006146b68482850161467d565b91505092915050565b600081519050919050565b600082825260208201905092915050565b60005b838110156146f95780820151818401526020810190506146de565b60008484015250505050565b6000601f19601f8301169050919050565b6000614721826146bf565b61472b81856146ca565b935061473b8185602086016146db565b61474481614705565b840191505092915050565b600060208201905081810360008301526147698184614716565b905092915050565b61477a81614621565b811461478557600080fd5b50565b60008135905061479781614771565b92915050565b6000602082840312156147b3576147b2614655565b5b60006147c184828501614788565b91505092915050565b600073ffffffffffffffffffffffffffffffffffffffff82169050919050565b60006147f5826147ca565b9050919050565b614805816147ea565b811461481057600080fd5b50565b600081359050614822816147fc565b92915050565b6000806040838503121561483f5761483e614655565b5b600061484d85828601614813565b925050602061485e85828601614788565b9150509250929050565b6148718161465a565b82525050565b600060208201905061488c6000830184614868565b92915050565b600080604083850312156148a9576148a8614655565b5b60006148b785828601614788565b92505060206148c885828601614788565b9150509250929050565b6000806000606084860312156148eb576148ea614655565b5b60006148f986828701614813565b935050602061490a86828701614813565b925050604061491b86828701614788565b9150509250925092565b600060ff82169050919050565b61493b81614925565b82525050565b60006020820190506149566000830184614932565b92915050565b614965816147ea565b82525050565b6000602082019050614980600083018461495c565b92915050565b6000819050919050565b60006149ab6149a66149a1846147ca565b614986565b6147ca565b9050919050565b60006149bd82614990565b9050919050565b60006149cf826149b2565b9050919050565b6149df816149c4565b82525050565b60006020820190506149fa60008301846149d6565b92915050565b600060208284031215614a1657614a15614655565b5b6000614a2484828501614813565b91505092915050565b60008060408385031215614a4457614a43614655565b5b6000614a5285828601614788565b9250506020614a6385828601614813565b9150509250929050565b600080600060608486031215614a8657614a85614655565b5b6000614a9486828701614788565b9350506020614aa586828701614813565b9250506040614ab686828701614813565b9150509250925092565b60008060408385031215614ad757614ad6614655565b5b6000614ae585828601614813565b9250506020614af685828601614813565b9150509250929050565b600081519050614b0f81614771565b92915050565b600060208284031215614b2b57614b2a614655565b5b6000614b3984828501614b00565b91505092915050565b7f4e487b7100000000000000000000000000000000000000000000000000000000600052601160045260246000fd5b6000614b7c82614621565b9150614b8783614621565b9250828201905080821115614b9f57614b9e614b42565b5b92915050565b7f4e487b7100000000000000000000000000000000000000000000000000000000600052602260045260246000fd5b60006002820490506001821680614bec57607f821691505b602082108103614bff57614bfe614ba5565b5b50919050565b6000614c1082614621565b9150614c1b83614621565b9250828202614c2981614621565b91508282048414831517614c4057614c3f614b42565b5b5092915050565b7f4e487b7100000000000000000000000000000000000000000000000000000000600052601260045260246000fd5b6000614c8182614621565b9150614c8c83614621565b925082614c9c57614c9b614c47565b5b828204905092915050565b6000604082019050614cbc600083018561462b565b614cc9602083018461462b565b9392505050565b6000604082019050614ce5600083018561495c565b614cf2602083018461462b565b9392505050565b600081519050614d0881614666565b92915050565b600060208284031215614d2457614d23614655565b5b6000614d3284828501614cf9565b91505092915050565b6000614d4682614621565b9150614d5183614621565b9250828203905081811115614d6957614d68614b42565b5b92915050565b6000606082019050614d84600083018661495c565b614d91602083018561495c565b614d9e604083018461462b565b949350505050565b614daf81614925565b8114614dba57600080fd5b50565b600081519050614dcc81614da6565b92915050565b600060208284031215614de857614de7614655565b5b6000614df684828501614dbd565b91505092915050565b6000819050919050565b6000614e24614e1f614e1a84614dff565b614986565b614621565b9050919050565b614e3481614e09565b82525050565b6000608082019050614e4f600083018761462b565b614e5c6020830186614e2b565b614e69604083018561462b565b614e76606083018461462b565b95945050505050565b600081519050614e8e816147fc565b92915050565b60008060008060808587031215614eae57614ead614655565b5b6000614ebc87828801614e7f565b9450506020614ecd87828801614cf9565b9350506040614ede87828801614b00565b9250506060614eef87828801614b00565b91505092959194509250565b600081519050919050565b600081905092915050565b6000614f1c82614efb565b614f268185614f06565b9350614f368185602086016146db565b80840191505092915050565b6000614f4e8284614f11565b915081905092915050565b6000606082019050614f6e600083018661462b565b614f7b602083018561462b565b614f88604083018461462b565b949350505050565b6000614f9b82614621565b91507fffffffffffffffffffffffffffffffffffffffffffffffffffffffffffffffff8203614fcd57614fcc614b42565b5b60018201905091905056fea26469706673582212206719f44a2b5236659bd64f2ef5284953519c391669870e9813d8850de0dc1c7664736f6c63430008130033",
  "linkReferences": {},
  "deployedLinkReferences": {}
}