{
  "_format": "hh-sol-artifact-1",
  "contractName": "dBank",
  "sourceName": "contracts/dBank.sol",
  "abi": [
    {
      "inputs": [
        {
          "internalType": "contract Token",
          "name": "_asset",
          "type": "address"
        },
        {
          "internalType": "string",
          "name": "_name",
          "type": "string"
        },
        {
          "internalType": "string",
          "name": "_symbol",
          "type": "string"
        },
        {
          "internalType": "address",
          "name": "_strategyRouter",
          "type": "address"
        },
        {
          "internalType": "address",
          "name": "_configManager",
          "type": "address"
        }
      ],
      "stateMutability": "nonpayable",
      "type": "constructor"
    },
    {
      "inputs": [],
      "name": "dBank__AllocationFailed",
      "type": "error"
    },
    {
      "inputs": [
        {
          "internalType": "uint256",
          "name": "requested",
          "type": "uint256"
        },
        {
          "internalType": "uint256",
          "name": "available",
          "type": "uint256"
        }
      ],
      "name": "dBank__CapExceeded",
      "type": "error"
    },
    {
      "inputs": [],
      "name": "dBank__EpochNotComplete",
      "type": "error"
    },
    {
      "inputs": [],
      "name": "dBank__InsufficientAllowance",
      "type": "error"
    },
    {
      "inputs": [
        {
          "internalType": "uint256",
          "name": "requested",
          "type": "uint256"
        },
        {
          "internalType": "uint256",
          "name": "available",
          "type": "uint256"
        }
      ],
      "name": "dBank__InsufficientLiquidity",
      "type": "error"
    },
    {
      "inputs": [],
      "name": "dBank__InsufficientShares",
      "type": "error"
    },
    {
      "inputs": [],
      "name": "dBank__InvalidAmount",
      "type": "error"
    },
    {
      "inputs": [],
      "name": "dBank__InvalidReceiver",
      "type": "error"
    },
    {
      "inputs": [],
      "name": "dBank__InvalidStrategy",
      "type": "error"
    },
    {
      "inputs": [],
      "name": "dBank__NotOwner",
      "type": "error"
    },
    {
      "inputs": [],
      "name": "dBank__Paused",
      "type": "error"
    },
    {
      "inputs": [
        {
          "internalType": "uint256",
          "name": "allocatedShares",
          "type": "uint256"
        }
      ],
      "name": "dBank__SharesAllocated",
      "type": "error"
    },
    {
      "inputs": [
        {
          "internalType": "uint256",
          "name": "expected",
          "type": "uint256"
        },
        {
          "internalType": "uint256",
          "name": "actual",
          "type": "uint256"
        },
        {
          "internalType": "uint256",
          "name": "maxSlippageBps",
          "type": "uint256"
        }
      ],
      "name": "dBank__SlippageExceeded",
      "type": "error"
    },
    {
      "inputs": [],
      "name": "dBank__ZeroAddress",
      "type": "error"
    },
    {
      "anonymous": false,
      "inputs": [
        {
          "indexed": true,
          "internalType": "uint256",
          "name": "strategyId",
          "type": "uint256"
        },
        {
          "indexed": false,
          "internalType": "uint256",
          "name": "amount",
          "type": "uint256"
        },
        {
          "indexed": false,
          "internalType": "uint256",
          "name": "newBuffer",
          "type": "uint256"
        }
      ],
      "name": "Allocated",
      "type": "event"
    },
    {
      "anonymous": false,
      "inputs": [
        {
          "indexed": true,
          "internalType": "address",
          "name": "owner",
          "type": "address"
        },
        {
          "indexed": true,
          "internalType": "address",
          "name": "spender",
          "type": "address"
        },
        {
          "indexed": false,
          "internalType": "uint256",
          "name": "value",
          "type": "uint256"
        }
      ],
      "name": "Approval",
      "type": "event"
    },
    {
      "anonymous": false,
      "inputs": [
        {
          "indexed": false,
          "internalType": "uint256",
          "name": "oldBuffer",
          "type": "uint256"
        },
        {
          "indexed": false,
          "internalType": "uint256",
          "name": "newBuffer",
          "type": "uint256"
        }
      ],
      "name": "BufferUpdated",
      "type": "event"
    },
    {
      "anonymous": false,
      "inputs": [
        {
          "indexed": true,
          "internalType": "bytes32",
          "name": "key",
          "type": "bytes32"
        },
        {
          "indexed": false,
          "internalType": "uint256",
          "name": "oldValue",
          "type": "uint256"
        },
        {
          "indexed": false,
          "internalType": "uint256",
          "name": "newValue",
          "type": "uint256"
        }
      ],
      "name": "ConfigUpdated",
      "type": "event"
    },
    {
      "anonymous": false,
      "inputs": [
        {
          "indexed": true,
          "internalType": "address",
          "name": "sender",
          "type": "address"
        },
        {
          "indexed": true,
          "internalType": "address",
          "name": "owner",
          "type": "address"
        },
        {
          "indexed": false,
          "internalType": "uint256",
          "name": "assets",
          "type": "uint256"
        },
        {
          "indexed": false,
          "internalType": "uint256",
          "name": "shares",
          "type": "uint256"
        }
      ],
      "name": "Deposit",
      "type": "event"
    },
    {
      "anonymous": false,
      "inputs": [
        {
          "indexed": false,
          "internalType": "uint256",
          "name": "gain",
          "type": "uint256"
        },
        {
          "indexed": false,
          "internalType": "uint256",
          "name": "feeAmount",
          "type": "uint256"
        },
        {
          "indexed": false,
          "internalType": "uint256",
          "name": "newHighWaterMark",
          "type": "uint256"
        },
        {
          "indexed": false,
          "internalType": "uint256",
          "name": "timestamp",
          "type": "uint256"
        }
      ],
      "name": "FeesCrystallized",
      "type": "event"
    },
    {
      "anonymous": false,
      "inputs": [
        {
          "indexed": false,
          "internalType": "bool",
          "name": "paused",
          "type": "bool"
        }
      ],
      "name": "Paused",
      "type": "event"
    },
    {
      "anonymous": false,
      "inputs": [
        {
          "indexed": true,
          "internalType": "address",
          "name": "from",
          "type": "address"
        },
        {
          "indexed": true,
          "internalType": "address",
          "name": "to",
          "type": "address"
        },
        {
          "indexed": false,
          "internalType": "uint256",
          "name": "value",
          "type": "uint256"
        }
      ],
      "name": "Transfer",
      "type": "event"
    },
    {
      "anonymous": false,
      "inputs": [
        {
          "indexed": true,
          "internalType": "address",
          "name": "sender",
          "type": "address"
        },
        {
          "indexed": true,
          "internalType": "address",
          "name": "receiver",
          "type": "address"
        },
        {
          "indexed": true,
          "internalType": "address",
          "name": "owner",
          "type": "address"
        },
        {
          "indexed": false,
          "internalType": "uint256",
          "name": "assets",
          "type": "uint256"
        },
        {
          "indexed": false,
          "internalType": "uint256",
          "name": "shares",
          "type": "uint256"
        }
      ],
      "name": "Withdraw",
      "type": "event"
    },
    {
      "anonymous": false,
      "inputs": [
        {
          "indexed": true,
          "internalType": "uint256",
          "name": "strategyId",
          "type": "uint256"
        },
        {
          "indexed": false,
          "internalType": "uint256",
          "name": "amount",
          "type": "uint256"
        }
      ],
      "name": "WithdrawnFromStrategy",
      "type": "event"
    },
    {
      "inputs": [
        {
          "internalType": "uint256",
          "name": "_strategyId",
          "type": "uint256"
        },
        {
          "internalType": "uint256",
          "name": "_amount",
          "type": "uint256"
        }
      ],
      "name": "allocate",
      "outputs": [
        {
          "internalType": "uint256",
          "name": "",
          "type": "uint256"
        }
      ],
      "stateMutability": "nonpayable",
      "type": "function"
    },
    {
      "inputs": [
        {
          "internalType": "address",
          "name": "",
          "type": "address"
        },
        {
          "internalType": "address",
          "name": "",
          "type": "address"
        }
      ],
      "name": "allowance",
      "outputs": [
        {
          "internalType": "uint256",
          "name": "",
          "type": "uint256"
        }
      ],
      "stateMutability": "view",
      "type": "function"
    },
    {
      "inputs": [
        {
          "internalType": "address",
          "name": "_spender",
          "type": "address"
        },
        {
          "internalType": "uint256",
          "name": "_amount",
          "type": "uint256"
        }
      ],
      "name": "approve",
      "outputs": [
        {
          "internalType": "bool",
          "name": "",
          "type": "bool"
        }
      ],
      "stateMutability": "nonpayable",
      "type": "function"
    },
    {
      "inputs": [],
      "name": "asset",
      "outputs": [
        {
          "internalType": "contract Token",
          "name": "",
          "type": "address"
        }
      ],
      "stateMutability": "view",
      "type": "function"
    },
    {
      "inputs": [
        {
          "internalType": "address",
          "name": "",
          "type": "address"
        }
      ],
      "name": "balanceOf",
      "outputs": [
        {
          "internalType": "uint256",
          "name": "",
          "type": "uint256"
        }
      ],
      "stateMutability": "view",
      "type": "function"
    },
    {
      "inputs": [],
      "name": "buffer",
      "outputs": [
        {
          "internalType": "uint256",
          "name": "",
          "type": "uint256"
        }
      ],
      "stateMutability": "view",
      "type": "function"
    },
    {
      "inputs": [],
      "name": "bufferTargetBps",
      "outputs": [
        {
          "internalType": "uint256",
          "name": "",
          "type": "uint256"
        }
      ],
      "stateMutability": "view",
      "type": "function"
    },
    {
      "inputs": [],
      "name": "configManager",
      "outputs": [
        {
          "internalType": "address",
          "name": "",
          "type": "address"
        }
      ],
      "stateMutability": "view",
      "type": "function"
    },
    {
      "inputs": [
        {
          "internalType": "uint256",
          "name": "_shares",
          "type": "uint256"
        }
      ],
      "name": "convertToAssets",
      "outputs": [
        {
          "internalType": "uint256",
          "name": "assets",
          "type": "uint256"
        }
      ],
      "stateMutability": "view",
      "type": "function"
    },
    {
      "inputs": [
        {
          "internalType": "uint256",
          "name": "_assets",
          "type": "uint256"
        }
      ],
      "name": "convertToShares",
      "outputs": [
        {
          "internalType": "uint256",
          "name": "shares",
          "type": "uint256"
        }
      ],
      "stateMutability": "view",
      "type": "function"
    },
    {
      "inputs": [],
      "name": "crystallizeFees",
      "outputs": [],
      "stateMutability": "nonpayable",
      "type": "function"
    },
    {
      "inputs": [],
      "name": "decimals",
      "outputs": [
        {
          "internalType": "uint8",
          "name": "",
          "type": "uint8"
        }
      ],
      "stateMutability": "view",
      "type": "function"
    },
    {
      "inputs": [
        {
          "internalType": "address",
          "name": "_spender",
          "type": "address"
        },
        {
          "internalType": "uint256",
          "name": "_subtractedValue",
          "type": "uint256"
        }
      ],
      "name": "decreaseAllowance",
      "outputs": [
        {
          "internalType": "bool",
          "name": "",
          "type": "bool"
        }
      ],
      "stateMutability": "nonpayable",
      "type": "function"
    },
    {
      "inputs": [
        {
          "internalType": "uint256",
          "name": "_assets",
          "type": "uint256"
        },
        {
          "internalType": "address",
          "name": "_receiver",
          "type": "address"
        }
      ],
      "name": "deposit",
      "outputs": [
        {
          "internalType": "uint256",
          "name": "shares",
          "type": "uint256"
        }
      ],
      "stateMutability": "nonpayable",
      "type": "function"
    },
    {
      "inputs": [],
      "name": "feeRecipient",
      "outputs": [
        {
          "internalType": "address",
          "name": "",
          "type": "address"
        }
      ],
      "stateMutability": "view",
      "type": "function"
    },
    {
      "inputs": [],
      "name": "highWaterMark",
      "outputs": [
        {
          "internalType": "uint256",
          "name": "",
          "type": "uint256"
        }
      ],
      "stateMutability": "view",
      "type": "function"
    },
    {
      "inputs": [
        {
          "internalType": "address",
          "name": "_spender",
          "type": "address"
        },
        {
          "internalType": "uint256",
          "name": "_addedValue",
          "type": "uint256"
        }
      ],
      "name": "increaseAllowance",
      "outputs": [
        {
          "internalType": "bool",
          "name": "",
          "type": "bool"
        }
      ],
      "stateMutability": "nonpayable",
      "type": "function"
    },
    {
      "inputs": [],
      "name": "lastEpochTimeStamp",
      "outputs": [
        {
          "internalType": "uint256",
          "name": "",
          "type": "uint256"
        }
      ],
      "stateMutability": "view",
      "type": "function"
    },
    {
      "inputs": [
        {
          "internalType": "address",
          "name": "",
          "type": "address"
        }
      ],
      "name": "maxDeposit",
      "outputs": [
        {
          "internalType": "uint256",
          "name": "",
          "type": "uint256"
        }
      ],
      "stateMutability": "view",
      "type": "function"
    },
    {
      "inputs": [
        {
          "internalType": "address",
          "name": "_receiver",
          "type": "address"
        }
      ],
      "name": "maxMint",
      "outputs": [
        {
          "internalType": "uint256",
          "name": "",
          "type": "uint256"
        }
      ],
      "stateMutability": "view",
      "type": "function"
    },
    {
      "inputs": [
        {
          "internalType": "address",
          "name": "_owner",
          "type": "address"
        }
      ],
      "name": "maxRedeem",
      "outputs": [
        {
          "internalType": "uint256",
          "name": "",
          "type": "uint256"
        }
      ],
      "stateMutability": "view",
      "type": "function"
    },
    {
      "inputs": [
        {
          "internalType": "address",
          "name": "_owner",
          "type": "address"
        }
      ],
      "name": "maxWithdraw",
      "outputs": [
        {
          "internalType": "uint256",
          "name": "",
          "type": "uint256"
        }
      ],
      "stateMutability": "view",
      "type": "function"
    },
    {
      "inputs": [
        {
          "internalType": "uint256",
          "name": "_shares",
          "type": "uint256"
        },
        {
          "internalType": "address",
          "name": "_receiver",
          "type": "address"
        }
      ],
      "name": "mint",
      "outputs": [
        {
          "internalType": "uint256",
          "name": "assets",
          "type": "uint256"
        }
      ],
      "stateMutability": "nonpayable",
      "type": "function"
    },
    {
      "inputs": [],
      "name": "name",
      "outputs": [
        {
          "internalType": "string",
          "name": "",
          "type": "string"
        }
      ],
      "stateMutability": "view",
      "type": "function"
    },
    {
      "inputs": [],
      "name": "owner",
      "outputs": [
        {
          "internalType": "address",
          "name": "",
          "type": "address"
        }
      ],
      "stateMutability": "view",
      "type": "function"
    },
    {
      "inputs": [
        {
          "internalType": "bool",
          "name": "_paused",
          "type": "bool"
        }
      ],
      "name": "pause",
      "outputs": [],
      "stateMutability": "nonpayable",
      "type": "function"
    },
    {
      "inputs": [],
      "name": "paused",
      "outputs": [
        {
          "internalType": "bool",
          "name": "",
          "type": "bool"
        }
      ],
      "stateMutability": "view",
      "type": "function"
    },
    {
      "inputs": [],
      "name": "perTxCap",
      "outputs": [
        {
          "internalType": "uint256",
          "name": "",
          "type": "uint256"
        }
      ],
      "stateMutability": "view",
      "type": "function"
    },
    {
      "inputs": [],
      "name": "performanceFeeBps",
      "outputs": [
        {
          "internalType": "uint256",
          "name": "",
          "type": "uint256"
        }
      ],
      "stateMutability": "view",
      "type": "function"
    },
    {
      "inputs": [
        {
          "internalType": "uint256",
          "name": "_assets",
          "type": "uint256"
        }
      ],
      "name": "previewDeposit",
      "outputs": [
        {
          "internalType": "uint256",
          "name": "shares",
          "type": "uint256"
        }
      ],
      "stateMutability": "view",
      "type": "function"
    },
    {
      "inputs": [
        {
          "internalType": "uint256",
          "name": "_shares",
          "type": "uint256"
        }
      ],
      "name": "previewMint",
      "outputs": [
        {
          "internalType": "uint256",
          "name": "assets",
          "type": "uint256"
        }
      ],
      "stateMutability": "view",
      "type": "function"
    },
    {
      "inputs": [
        {
          "internalType": "uint256",
          "name": "_shares",
          "type": "uint256"
        }
      ],
      "name": "previewRedeem",
      "outputs": [
        {
          "internalType": "uint256",
          "name": "assets",
          "type": "uint256"
        }
      ],
      "stateMutability": "view",
      "type": "function"
    },
    {
      "inputs": [
        {
          "internalType": "uint256",
          "name": "_assets",
          "type": "uint256"
        }
      ],
      "name": "previewWithdraw",
      "outputs": [
        {
          "internalType": "uint256",
          "name": "shares",
          "type": "uint256"
        }
      ],
      "stateMutability": "view",
      "type": "function"
    },
    {
      "inputs": [],
      "name": "pricePerShare",
      "outputs": [
        {
          "internalType": "uint256",
          "name": "",
          "type": "uint256"
        }
      ],
      "stateMutability": "view",
      "type": "function"
    },
    {
      "inputs": [
        {
          "internalType": "uint256",
          "name": "_shares",
          "type": "uint256"
        },
        {
          "internalType": "address",
          "name": "_receiver",
          "type": "address"
        },
        {
          "internalType": "address",
          "name": "_owner",
          "type": "address"
        }
      ],
      "name": "redeem",
      "outputs": [
        {
          "internalType": "uint256",
          "name": "assets",
          "type": "uint256"
        }
      ],
      "stateMutability": "nonpayable",
      "type": "function"
    },
    {
      "inputs": [
        {
          "internalType": "uint256",
          "name": "_newTargetBps",
          "type": "uint256"
        }
      ],
      "name": "setBufferTargetBps",
      "outputs": [],
      "stateMutability": "nonpayable",
      "type": "function"
    },
    {
      "inputs": [
        {
          "internalType": "address",
          "name": "_newRecipient",
          "type": "address"
        }
      ],
      "name": "setFeeRecipient",
      "outputs": [],
      "stateMutability": "nonpayable",
      "type": "function"
    },
    {
      "inputs": [
        {
          "internalType": "uint256",
          "name": "_newCap",
          "type": "uint256"
        }
      ],
      "name": "setPerTxCap",
      "outputs": [],
      "stateMutability": "nonpayable",
      "type": "function"
    },
    {
      "inputs": [
        {
          "internalType": "uint256",
          "name": "_newFeeBps",
          "type": "uint256"
        }
      ],
      "name": "setPerformanceFeeBps",
      "outputs": [],
      "stateMutability": "nonpayable",
      "type": "function"
    },
    {
      "inputs": [
        {
          "internalType": "uint256",
          "name": "_newCap",
          "type": "uint256"
        }
      ],
      "name": "setTvlCap",
      "outputs": [],
      "stateMutability": "nonpayable",
      "type": "function"
    },
    {
      "inputs": [],
      "name": "strategyRouter",
      "outputs": [
        {
          "internalType": "address",
          "name": "",
          "type": "address"
        }
      ],
      "stateMutability": "view",
      "type": "function"
    },
    {
      "inputs": [],
      "name": "symbol",
      "outputs": [
        {
          "internalType": "string",
          "name": "",
          "type": "string"
        }
      ],
      "stateMutability": "view",
      "type": "function"
    },
    {
      "inputs": [],
      "name": "totalAssets",
      "outputs": [
        {
          "internalType": "uint256",
          "name": "",
          "type": "uint256"
        }
      ],
      "stateMutability": "view",
      "type": "function"
    },
    {
      "inputs": [],
      "name": "totalSupply",
      "outputs": [
        {
          "internalType": "uint256",
          "name": "",
          "type": "uint256"
        }
      ],
      "stateMutability": "view",
      "type": "function"
    },
    {
      "inputs": [
        {
          "internalType": "address",
          "name": "_to",
          "type": "address"
        },
        {
          "internalType": "uint256",
          "name": "_amount",
          "type": "uint256"
        }
      ],
      "name": "transfer",
      "outputs": [
        {
          "internalType": "bool",
          "name": "",
          "type": "bool"
        }
      ],
      "stateMutability": "nonpayable",
      "type": "function"
    },
    {
      "inputs": [
        {
          "internalType": "address",
          "name": "_from",
          "type": "address"
        },
        {
          "internalType": "address",
          "name": "_to",
          "type": "address"
        },
        {
          "internalType": "uint256",
          "name": "_amount",
          "type": "uint256"
        }
      ],
      "name": "transferFrom",
      "outputs": [
        {
          "internalType": "bool",
          "name": "",
          "type": "bool"
        }
      ],
      "stateMutability": "nonpayable",
      "type": "function"
    },
    {
      "inputs": [],
      "name": "tvlCap",
      "outputs": [
        {
          "internalType": "uint256",
          "name": "",
          "type": "uint256"
        }
      ],
      "stateMutability": "view",
      "type": "function"
    },
    {
      "inputs": [
        {
          "internalType": "uint256",
          "name": "_assets",
          "type": "uint256"
        },
        {
          "internalType": "address",
          "name": "_receiver",
          "type": "address"
        },
        {
          "internalType": "address",
          "name": "_owner",
          "type": "address"
        }
      ],
      "name": "withdraw",
      "outputs": [
        {
          "internalType": "uint256",
          "name": "shares",
          "type": "uint256"
        }
      ],
      "stateMutability": "nonpayable",
      "type": "function"
    }
  ],
  "bytecode": "0x60a06040523480156200001157600080fd5b506040516200607838038062006078833981810160405281019062000037919062000821565b8473ffffffffffffffffffffffffffffffffffffffff1660808173ffffffffffffffffffffffffffffffffffffffff1681525050336000806101000a81548173ffffffffffffffffffffffffffffffffffffffff021916908373ffffffffffffffffffffffffffffffffffffffff16021790555081600160006101000a81548173ffffffffffffffffffffffffffffffffffffffff021916908373ffffffffffffffffffffffffffffffffffffffff16021790555080600260006101000a81548173ffffffffffffffffffffffffffffffffffffffff021916908373ffffffffffffffffffffffffffffffffffffffff16021790555083600390816200013e919062000b32565b50826004908162000150919062000b32565b5060008573ffffffffffffffffffffffffffffffffffffffff1663313ce5676040518163ffffffff1660e01b8152600401602060405180830381865afa1580156200019f573d6000803e3d6000fd5b505050506040513d601f19601f82011682018060405250810190620001c5919062000c4a565b1015620001d457601262000247565b8473ffffffffffffffffffffffffffffffffffffffff1663313ce5676040518163ffffffff1660e01b8152600401602060405180830381865afa15801562000220573d6000803e3d6000fd5b505050506040513d601f19601f8201168201806040525081019062000246919062000c4a565b5b600560006101000a81548160ff021916908360ff1602179055506000600681905550600260009054906101000a900473ffffffffffffffffffffffffffffffffffffffff1673ffffffffffffffffffffffffffffffffffffffff16636d81c6966040518163ffffffff1660e01b8152600401602060405180830381865afa158015620002d7573d6000803e3d6000fd5b505050506040513d601f19601f82011682018060405250810190620002fd919062000cbb565b61ffff16600a81905550600260009054906101000a900473ffffffffffffffffffffffffffffffffffffffff1673ffffffffffffffffffffffffffffffffffffffff1663b9d4e8796040518163ffffffff1660e01b8152600401602060405180830381865afa15801562000375573d6000803e3d6000fd5b505050506040513d601f19601f820116820180604052508101906200039b919062000d2e565b63ffffffff16600b81905550600260009054906101000a900473ffffffffffffffffffffffffffffffffffffffff1673ffffffffffffffffffffffffffffffffffffffff1663469048406040518163ffffffff1660e01b8152600401602060405180830381865afa15801562000415573d6000803e3d6000fd5b505050506040513d601f19601f820116820180604052508101906200043b919062000d60565b600c60006101000a81548173ffffffffffffffffffffffffffffffffffffffff021916908373ffffffffffffffffffffffffffffffffffffffff16021790555042600d819055506000600e81905550600260009054906101000a900473ffffffffffffffffffffffffffffffffffffffff1673ffffffffffffffffffffffffffffffffffffffff166341729cee6040518163ffffffff1660e01b8152600401602060405180830381865afa158015620004f8573d6000803e3d6000fd5b505050506040513d601f19601f820116820180604052508101906200051e919062000c4a565b600f81905550600260009054906101000a900473ffffffffffffffffffffffffffffffffffffffff1673ffffffffffffffffffffffffffffffffffffffff1663ad82cbea6040518163ffffffff1660e01b8152600401602060405180830381865afa15801562000592573d6000803e3d6000fd5b505050506040513d601f19601f82011682018060405250810190620005b8919062000c4a565b6010819055506000601160006101000a81548160ff021916908315150217905550505050505062000d92565b6000604051905090565b600080fd5b600080fd5b600073ffffffffffffffffffffffffffffffffffffffff82169050919050565b60006200062582620005f8565b9050919050565b6000620006398262000618565b9050919050565b6200064b816200062c565b81146200065757600080fd5b50565b6000815190506200066b8162000640565b92915050565b600080fd5b600080fd5b6000601f19601f8301169050919050565b7f4e487b7100000000000000000000000000000000000000000000000000000000600052604160045260246000fd5b620006c6826200067b565b810181811067ffffffffffffffff82111715620006e857620006e76200068c565b5b80604052505050565b6000620006fd620005e4565b90506200070b8282620006bb565b919050565b600067ffffffffffffffff8211156200072e576200072d6200068c565b5b62000739826200067b565b9050602081019050919050565b60005b838110156200076657808201518184015260208101905062000749565b60008484015250505050565b600062000789620007838462000710565b620006f1565b905082815260208101848484011115620007a857620007a762000676565b5b620007b584828562000746565b509392505050565b600082601f830112620007d557620007d462000671565b5b8151620007e784826020860162000772565b91505092915050565b620007fb8162000618565b81146200080757600080fd5b50565b6000815190506200081b81620007f0565b92915050565b600080600080600060a0868803121562000840576200083f620005ee565b5b600062000850888289016200065a565b955050602086015167ffffffffffffffff811115620008745762000873620005f3565b5b6200088288828901620007bd565b945050604086015167ffffffffffffffff811115620008a657620008a5620005f3565b5b620008b488828901620007bd565b9350506060620008c7888289016200080a565b9250506080620008da888289016200080a565b9150509295509295909350565b600081519050919050565b7f4e487b7100000000000000000000000000000000000000000000000000000000600052602260045260246000fd5b600060028204905060018216806200093a57607f821691505b60208210810362000950576200094f620008f2565b5b50919050565b60008190508160005260206000209050919050565b60006020601f8301049050919050565b600082821b905092915050565b600060088302620009ba7fffffffffffffffffffffffffffffffffffffffffffffffffffffffffffffffff826200097b565b620009c686836200097b565b95508019841693508086168417925050509392505050565b6000819050919050565b6000819050919050565b600062000a1362000a0d62000a0784620009de565b620009e8565b620009de565b9050919050565b6000819050919050565b62000a2f83620009f2565b62000a4762000a3e8262000a1a565b84845462000988565b825550505050565b600090565b62000a5e62000a4f565b62000a6b81848462000a24565b505050565b5b8181101562000a935762000a8760008262000a54565b60018101905062000a71565b5050565b601f82111562000ae25762000aac8162000956565b62000ab7846200096b565b8101602085101562000ac7578190505b62000adf62000ad6856200096b565b83018262000a70565b50505b505050565b600082821c905092915050565b600062000b076000198460080262000ae7565b1980831691505092915050565b600062000b22838362000af4565b9150826002028217905092915050565b62000b3d82620008e7565b67ffffffffffffffff81111562000b595762000b586200068c565b5b62000b65825462000921565b62000b7282828562000a97565b600060209050601f83116001811462000baa576000841562000b95578287015190505b62000ba1858262000b14565b86555062000c11565b601f19841662000bba8662000956565b60005b8281101562000be45784890151825560018201915060208501945060208101905062000bbd565b8683101562000c04578489015162000c00601f89168262000af4565b8355505b6001600288020188555050505b505050505050565b62000c2481620009de565b811462000c3057600080fd5b50565b60008151905062000c448162000c19565b92915050565b60006020828403121562000c635762000c62620005ee565b5b600062000c738482850162000c33565b91505092915050565b600061ffff82169050919050565b62000c958162000c7c565b811462000ca157600080fd5b50565b60008151905062000cb58162000c8a565b92915050565b60006020828403121562000cd45762000cd3620005ee565b5b600062000ce48482850162000ca4565b91505092915050565b600063ffffffff82169050919050565b62000d088162000ced565b811462000d1457600080fd5b50565b60008151905062000d288162000cfd565b92915050565b60006020828403121562000d475762000d46620005ee565b5b600062000d578482850162000d17565b91505092915050565b60006020828403121562000d795762000d78620005ee565b5b600062000d89848285016200080a565b91505092915050565b6080516152a762000dd160003960008181610f8f0152818161133c015281816119de01528181611ea301528181612d5701526134d301526152a76000f3fe608060405234801561001057600080fd5b50600436106102a05760003560e01c806395d89b4111610167578063c2c262b3116100ce578063dd0290e211610087578063dd0290e2146108df578063dd62ed3e146108fb578063e74b981b1461092b578063edaafe2014610947578063ef8b30f714610965578063f881814214610995576102a0565b8063c2c262b3146107f7578063c63d75b614610801578063c6e6f59214610831578063ca0ab07514610861578063ce96cb771461087f578063d905777e146108af576102a0565b8063ad82cbea11610120578063ad82cbea1461070d578063af56b69f1461072b578063b3d7f6b914610749578063b460af9414610779578063b9d4e879146107a9578063ba087652146107c7576102a0565b806395d89b411461063957806399530b06146106575780639f0caac914610675578063a457c2d714610691578063a9059cbb146106c1578063ad66bb60146106f1576102a0565b806338d52e0f1161020b5780635c975abb116101c45780635c975abb1461054f5780636e553f651461056d57806370a082311461059d57806379e42b69146105cd5780638da5cb5b146105eb57806394bf804d14610609576102a0565b806338d52e0f1461046557806339509351146104835780633f23fa1a146104b3578063402d267d146104d157806346904840146105015780634cdad5061461051f576102a0565b8063172cfa4c1161025d578063172cfa4c1461038d57806318160ddd146103bd5780631e8410da146103db57806323b872dd146103f9578063313ce5671461042957806331bd38ed14610447576102a0565b806301e1d114146102a557806302329a29146102c357806306fdde03146102df57806307a2d13a146102fd578063095ea7b31461032d5780630a28a4771461035d575b600080fd5b6102ad6109b1565b6040516102ba91906148d3565b60405180910390f35b6102dd60048036038101906102d8919061492b565b610a56565b005b6102e7610b2f565b6040516102f491906149e8565b60405180910390f35b61031760048036038101906103129190614a36565b610bbd565b60405161032491906148d3565b60405180910390f35b61034760048036038101906103429190614ac1565b610c60565b6040516103549190614b10565b60405180910390f35b61037760048036038101906103729190614a36565b610db7565b60405161038491906148d3565b60405180910390f35b6103a760048036038101906103a29190614b2b565b610e3a565b6040516103b491906148d3565b60405180910390f35b6103c5611194565b6040516103d291906148d3565b60405180910390f35b6103e361119a565b6040516103f091906148d3565b60405180910390f35b610413600480360381019061040e9190614b6b565b6111a0565b6040516104209190614b10565b60405180910390f35b610431611301565b60405161043e9190614bda565b60405180910390f35b61044f611314565b60405161045c9190614c04565b60405180910390f35b61046d61133a565b60405161047a9190614c7e565b60405180910390f35b61049d60048036038101906104989190614ac1565b61135e565b6040516104aa9190614b10565b60405180910390f35b6104bb611543565b6040516104c891906148d3565b60405180910390f35b6104eb60048036038101906104e69190614c99565b611549565b6040516104f891906148d3565b60405180910390f35b610509611602565b6040516105169190614c04565b60405180910390f35b61053960048036038101906105349190614a36565b611628565b60405161054691906148d3565b60405180910390f35b6105576116ab565b6040516105649190614b10565b60405180910390f35b61058760048036038101906105829190614cc6565b6116be565b60405161059491906148d3565b60405180910390f35b6105b760048036038101906105b29190614c99565b611b5a565b6040516105c491906148d3565b60405180910390f35b6105d5611b72565b6040516105e291906148d3565b60405180910390f35b6105f3611b78565b6040516106009190614c04565b60405180910390f35b610623600480360381019061061e9190614cc6565b611b9c565b60405161063091906148d3565b60405180910390f35b610641611fd3565b60405161064e91906149e8565b60405180910390f35b61065f612061565b60405161066c91906148d3565b60405180910390f35b61068f600480360381019061068a9190614a36565b612111565b005b6106ab60048036038101906106a69190614ac1565b61224d565b6040516106b89190614b10565b60405180910390f35b6106db60048036038101906106d69190614ac1565b6124e8565b6040516106e89190614b10565b60405180910390f35b61070b60048036038101906107069190614a36565b6124ff565b005b610715612643565b60405161072291906148d3565b60405180910390f35b610733612649565b60405161074091906148d3565b60405180910390f35b610763600480360381019061075e9190614a36565b61264f565b60405161077091906148d3565b60405180910390f35b610793600480360381019061078e9190614d06565b6126d2565b6040516107a091906148d3565b60405180910390f35b6107b1612e7d565b6040516107be91906148d3565b60405180910390f35b6107e160048036038101906107dc9190614d06565b612e83565b6040516107ee91906148d3565b60405180910390f35b6107ff6135f9565b005b61081b60048036038101906108169190614c99565b613773565b60405161082891906148d3565b60405180910390f35b61084b60048036038101906108469190614a36565b61386f565b60405161085891906148d3565b60405180910390f35b610869613917565b6040516108769190614c04565b60405180910390f35b61089960048036038101906108949190614c99565b61393d565b6040516108a691906148d3565b60405180910390f35b6108c960048036038101906108c49190614c99565b6139ff565b6040516108d691906148d3565b60405180910390f35b6108f960048036038101906108f49190614a36565b613a48565b005b61091560048036038101906109109190614d59565b613b39565b60405161092291906148d3565b60405180910390f35b61094560048036038101906109409190614c99565b613b5e565b005b61094f613d3d565b60405161095c91906148d3565b60405180910390f35b61097f600480360381019061097a9190614a36565b613d43565b60405161098c91906148d3565b60405180910390f35b6109af60048036038101906109aa9190614a36565b613dc6565b005b6000600160009054906101000a900473ffffffffffffffffffffffffffffffffffffffff1673ffffffffffffffffffffffffffffffffffffffff166301e1d1146040518163ffffffff1660e01b8152600401602060405180830381865afa158015610a20573d6000803e3d6000fd5b505050506040513d601f19601f82011682018060405250810190610a449190614dae565b600954610a519190614e0a565b905090565b60008054906101000a900473ffffffffffffffffffffffffffffffffffffffff1673ffffffffffffffffffffffffffffffffffffffff163373ffffffffffffffffffffffffffffffffffffffff1614610adb576040517f1abf68b300000000000000000000000000000000000000000000000000000000815260040160405180910390fd5b80601160006101000a81548160ff0219169083151502179055507f0e2fb031ee032dc02d8011dc50b816eb450cf856abd8261680dac74f72165bd281604051610b249190614b10565b60405180910390a150565b60038054610b3c90614e6d565b80601f0160208091040260200160405190810160405280929190818152602001828054610b6890614e6d565b8015610bb55780601f10610b8a57610100808354040283529160200191610bb5565b820191906000526020600020905b815481529060010190602001808311610b9857829003601f168201915b505050505081565b60008060065403610bd15760009050610c5b565b6006543073ffffffffffffffffffffffffffffffffffffffff166301e1d1146040518163ffffffff1660e01b8152600401602060405180830381865afa158015610c1f573d6000803e3d6000fd5b505050506040513d601f19601f82011682018060405250810190610c439190614dae565b83610c4e9190614e9e565b610c589190614f0f565b90505b919050565b60008073ffffffffffffffffffffffffffffffffffffffff168373ffffffffffffffffffffffffffffffffffffffff1603610cc7576040517f157d777100000000000000000000000000000000000000000000000000000000815260040160405180910390fd5b81600860003373ffffffffffffffffffffffffffffffffffffffff1673ffffffffffffffffffffffffffffffffffffffff16815260200190815260200160002060008573ffffffffffffffffffffffffffffffffffffffff1673ffffffffffffffffffffffffffffffffffffffff168152602001908152602001600020819055508273ffffffffffffffffffffffffffffffffffffffff163373ffffffffffffffffffffffffffffffffffffffff167f8c5be1e5ebec7d5bd14f71427d1e84f3dd0314c0f7b2291e5b200ac8c7c3b92584604051610da591906148d3565b60405180910390a36001905092915050565b60003073ffffffffffffffffffffffffffffffffffffffff1663c6e6f592836040518263ffffffff1660e01b8152600401610df291906148d3565b602060405180830381865afa158015610e0f573d6000803e3d6000fd5b505050506040513d601f19601f82011682018060405250810190610e339190614dae565b9050919050565b60008060009054906101000a900473ffffffffffffffffffffffffffffffffffffffff1673ffffffffffffffffffffffffffffffffffffffff163373ffffffffffffffffffffffffffffffffffffffff1614610ec2576040517f1abf68b300000000000000000000000000000000000000000000000000000000815260040160405180910390fd5b601160009054906101000a900460ff1615610f09576040517ff61cb5e000000000000000000000000000000000000000000000000000000000815260040160405180910390fd5b60008203610f43576040517f7411319100000000000000000000000000000000000000000000000000000000815260040160405180910390fd5b600954821115610f8d57816009546040517e907875000000000000000000000000000000000000000000000000000000008152600401610f84929190614f40565b60405180910390fd5b7f000000000000000000000000000000000000000000000000000000000000000073ffffffffffffffffffffffffffffffffffffffff1663095ea7b3600160009054906101000a900473ffffffffffffffffffffffffffffffffffffffff16846040518363ffffffff1660e01b815260040161100a929190614f69565b6020604051808303816000875af1158015611029573d6000803e3d6000fd5b505050506040513d601f19601f8201168201806040525081019061104d9190614fa7565b506000600160009054906101000a900473ffffffffffffffffffffffffffffffffffffffff1673ffffffffffffffffffffffffffffffffffffffff1663b0656c3985856040518363ffffffff1660e01b81526004016110ad929190614f40565b6020604051808303816000875af11580156110cc573d6000803e3d6000fd5b505050506040513d601f19601f820116820180604052508101906110f09190614dae565b905060006009549050816009600082825461110b9190614fd4565b92505081905550847f2daf7483bd1eea3ef9b7f22119cc10298e3a9eac8950530f9a9bfa2c8689a61883600954604051611146929190614f40565b60405180910390a27f84c97b35c64ce8096861a19dc36faedc374e0ab4c29482e5d805ba6bc2d52b8881600954604051611181929190614f40565b60405180910390a1819250505092915050565b60065481565b600e5481565b600081600860008673ffffffffffffffffffffffffffffffffffffffff1673ffffffffffffffffffffffffffffffffffffffff16815260200190815260200160002060003373ffffffffffffffffffffffffffffffffffffffff1673ffffffffffffffffffffffffffffffffffffffff168152602001908152602001600020541015611258576040517f23af47c500000000000000000000000000000000000000000000000000000000815260040160405180910390fd5b81600860008673ffffffffffffffffffffffffffffffffffffffff1673ffffffffffffffffffffffffffffffffffffffff16815260200190815260200160002060003373ffffffffffffffffffffffffffffffffffffffff1673ffffffffffffffffffffffffffffffffffffffff16815260200190815260200160002060008282546112e49190614fd4565b925050819055506112f6848484613eb7565b600190509392505050565b600560009054906101000a900460ff1681565b600160009054906101000a900473ffffffffffffffffffffffffffffffffffffffff1681565b7f000000000000000000000000000000000000000000000000000000000000000081565b60008073ffffffffffffffffffffffffffffffffffffffff168373ffffffffffffffffffffffffffffffffffffffff16036113c5576040517f157d777100000000000000000000000000000000000000000000000000000000815260040160405180910390fd5b81600860003373ffffffffffffffffffffffffffffffffffffffff1673ffffffffffffffffffffffffffffffffffffffff16815260200190815260200160002060008573ffffffffffffffffffffffffffffffffffffffff1673ffffffffffffffffffffffffffffffffffffffff16815260200190815260200160002060008282546114519190614e0a565b925050819055508273ffffffffffffffffffffffffffffffffffffffff163373ffffffffffffffffffffffffffffffffffffffff167f8c5be1e5ebec7d5bd14f71427d1e84f3dd0314c0f7b2291e5b200ac8c7c3b925600860003373ffffffffffffffffffffffffffffffffffffffff1673ffffffffffffffffffffffffffffffffffffffff16815260200190815260200160002060008773ffffffffffffffffffffffffffffffffffffffff1673ffffffffffffffffffffffffffffffffffffffff1681526020019081526020016000205460405161153191906148d3565b60405180910390a36001905092915050565b600f5481565b6000803073ffffffffffffffffffffffffffffffffffffffff166301e1d1146040518163ffffffff1660e01b8152600401602060405180830381865afa158015611597573d6000803e3d6000fd5b505050506040513d601f19601f820116820180604052508101906115bb9190614dae565b90506000600f548210156115dc5781600f546115d79190614fd4565b6115df565b60005b90506010548110156115f55780925050506115fd565b601054925050505b919050565b600c60009054906101000a900473ffffffffffffffffffffffffffffffffffffffff1681565b60003073ffffffffffffffffffffffffffffffffffffffff166307a2d13a836040518263ffffffff1660e01b815260040161166391906148d3565b602060405180830381865afa158015611680573d6000803e3d6000fd5b505050506040513d601f19601f820116820180604052508101906116a49190614dae565b9050919050565b601160009054906101000a900460ff1681565b6000601160009054906101000a900460ff1615611707576040517ff61cb5e000000000000000000000000000000000000000000000000000000000815260040160405180910390fd5b81600073ffffffffffffffffffffffffffffffffffffffff168173ffffffffffffffffffffffffffffffffffffffff160361176e576040517f157d777100000000000000000000000000000000000000000000000000000000815260040160405180910390fd5b600084036117a8576040517f7411319100000000000000000000000000000000000000000000000000000000815260040160405180910390fd5b600073ffffffffffffffffffffffffffffffffffffffff168373ffffffffffffffffffffffffffffffffffffffff160361180e576040517fc484bc9c00000000000000000000000000000000000000000000000000000000815260040160405180910390fd5b3073ffffffffffffffffffffffffffffffffffffffff1663c6e6f592856040518263ffffffff1660e01b815260040161184791906148d3565b602060405180830381865afa158015611864573d6000803e3d6000fd5b505050506040513d601f19601f820116820180604052508101906118889190614dae565b91503073ffffffffffffffffffffffffffffffffffffffff1663402d267d846040518263ffffffff1660e01b81526004016118c39190614c04565b602060405180830381865afa1580156118e0573d6000803e3d6000fd5b505050506040513d601f19601f820116820180604052508101906119049190614dae565b8411156119c357833073ffffffffffffffffffffffffffffffffffffffff1663402d267d856040518263ffffffff1660e01b81526004016119459190614c04565b602060405180830381865afa158015611962573d6000803e3d6000fd5b505050506040513d601f19601f820116820180604052508101906119869190614dae565b6040517fc11ad0b50000000000000000000000000000000000000000000000000000000081526004016119ba929190614f40565b60405180910390fd5b83600960008282546119d59190614e0a565b925050819055507f000000000000000000000000000000000000000000000000000000000000000073ffffffffffffffffffffffffffffffffffffffff166323b872dd3330876040518463ffffffff1660e01b8152600401611a3993929190615008565b6020604051808303816000875af1158015611a58573d6000803e3d6000fd5b505050506040513d601f19601f82011682018060405250810190611a7c9190614fa7565b508160066000828254611a8f9190614e0a565b9250508190555081600760008573ffffffffffffffffffffffffffffffffffffffff1673ffffffffffffffffffffffffffffffffffffffff1681526020019081526020016000206000828254611ae59190614e0a565b925050819055508273ffffffffffffffffffffffffffffffffffffffff163373ffffffffffffffffffffffffffffffffffffffff167fdcbc1c05240f31ff3ad067ef1ee35ce4997762752e3a095284754544f4c709d78685604051611b4b929190614f40565b60405180910390a35092915050565b60076020528060005260406000206000915090505481565b600d5481565b60008054906101000a900473ffffffffffffffffffffffffffffffffffffffff1681565b6000601160009054906101000a900460ff1615611be5576040517ff61cb5e000000000000000000000000000000000000000000000000000000000815260040160405180910390fd5b81600073ffffffffffffffffffffffffffffffffffffffff168173ffffffffffffffffffffffffffffffffffffffff1603611c4c576040517f157d777100000000000000000000000000000000000000000000000000000000815260040160405180910390fd5b60008403611c86576040517f7411319100000000000000000000000000000000000000000000000000000000815260040160405180910390fd5b600073ffffffffffffffffffffffffffffffffffffffff168373ffffffffffffffffffffffffffffffffffffffff1603611cec576040517fc484bc9c00000000000000000000000000000000000000000000000000000000815260040160405180910390fd5b3073ffffffffffffffffffffffffffffffffffffffff166307a2d13a856040518263ffffffff1660e01b8152600401611d2591906148d3565b602060405180830381865afa158015611d42573d6000803e3d6000fd5b505050506040513d601f19601f82011682018060405250810190611d669190614dae565b91503073ffffffffffffffffffffffffffffffffffffffff1663402d267d846040518263ffffffff1660e01b8152600401611da19190614c04565b602060405180830381865afa158015611dbe573d6000803e3d6000fd5b505050506040513d601f19601f82011682018060405250810190611de29190614dae565b821115611ea157813073ffffffffffffffffffffffffffffffffffffffff1663402d267d856040518263ffffffff1660e01b8152600401611e239190614c04565b602060405180830381865afa158015611e40573d6000803e3d6000fd5b505050506040513d601f19601f82011682018060405250810190611e649190614dae565b6040517fc11ad0b5000000000000000000000000000000000000000000000000000000008152600401611e98929190614f40565b60405180910390fd5b7f000000000000000000000000000000000000000000000000000000000000000073ffffffffffffffffffffffffffffffffffffffff166323b872dd3330856040518463ffffffff1660e01b8152600401611efe93929190615008565b6020604051808303816000875af1158015611f1d573d6000803e3d6000fd5b505050506040513d601f19601f82011682018060405250810190611f419190614fa7565b508160096000828254611f549190614e0a565b92505081905550611f6583856140ac565b8273ffffffffffffffffffffffffffffffffffffffff163373ffffffffffffffffffffffffffffffffffffffff167fdcbc1c05240f31ff3ad067ef1ee35ce4997762752e3a095284754544f4c709d78487604051611fc4929190614f40565b60405180910390a35092915050565b60048054611fe090614e6d565b80601f016020809104026020016040519081016040528092919081815260200182805461200c90614e6d565b80156120595780601f1061202e57610100808354040283529160200191612059565b820191906000526020600020905b81548152906001019060200180831161203c57829003601f168201915b505050505081565b6000806006540361207c57670de0b6b3a7640000905061210e565b600654670de0b6b3a76400003073ffffffffffffffffffffffffffffffffffffffff166301e1d1146040518163ffffffff1660e01b8152600401602060405180830381865afa1580156120d3573d6000803e3d6000fd5b505050506040513d601f19601f820116820180604052508101906120f79190614dae565b6121019190614e9e565b61210b9190614f0f565b90505b90565b60008054906101000a900473ffffffffffffffffffffffffffffffffffffffff1673ffffffffffffffffffffffffffffffffffffffff163373ffffffffffffffffffffffffffffffffffffffff1614612196576040517f1abf68b300000000000000000000000000000000000000000000000000000000815260040160405180910390fd5b6127108111156121e157806127106040517fc11ad0b50000000000000000000000000000000000000000000000000000000081526004016121d8929190614f40565b60405180910390fd5b6000600b54905081600b819055507f46129da8f2c356b23834d0e6ce24b8010d6ac2873b77946445968ce7b51d35ce7fac2ccce3de9c0816ae772598f7f65fe69f9893b637f7c490497378cbb3ea043e8284604051612241929190614f40565b60405180910390a25050565b60008073ffffffffffffffffffffffffffffffffffffffff168373ffffffffffffffffffffffffffffffffffffffff16036122b4576040517f157d777100000000000000000000000000000000000000000000000000000000815260040160405180910390fd5b81600860003373ffffffffffffffffffffffffffffffffffffffff1673ffffffffffffffffffffffffffffffffffffffff16815260200190815260200160002060008573ffffffffffffffffffffffffffffffffffffffff1673ffffffffffffffffffffffffffffffffffffffff16815260200190815260200160002054101561236a576040517f23af47c500000000000000000000000000000000000000000000000000000000815260040160405180910390fd5b81600860003373ffffffffffffffffffffffffffffffffffffffff1673ffffffffffffffffffffffffffffffffffffffff16815260200190815260200160002060008573ffffffffffffffffffffffffffffffffffffffff1673ffffffffffffffffffffffffffffffffffffffff16815260200190815260200160002060008282546123f69190614fd4565b925050819055508273ffffffffffffffffffffffffffffffffffffffff163373ffffffffffffffffffffffffffffffffffffffff167f8c5be1e5ebec7d5bd14f71427d1e84f3dd0314c0f7b2291e5b200ac8c7c3b925600860003373ffffffffffffffffffffffffffffffffffffffff1673ffffffffffffffffffffffffffffffffffffffff16815260200190815260200160002060008773ffffffffffffffffffffffffffffffffffffffff1673ffffffffffffffffffffffffffffffffffffffff168152602001908152602001600020546040516124d691906148d3565b60405180910390a36001905092915050565b60006124f5338484613eb7565b6001905092915050565b60008054906101000a900473ffffffffffffffffffffffffffffffffffffffff1673ffffffffffffffffffffffffffffffffffffffff163373ffffffffffffffffffffffffffffffffffffffff1614612584576040517f1abf68b300000000000000000000000000000000000000000000000000000000815260040160405180910390fd5b6127108111156125cf57806127106040517fc11ad0b50000000000000000000000000000000000000000000000000000000081526004016125c6929190614f40565b60405180910390fd5b6000600a54905081600a819055506125e56141eb565b7f93ed7e88685b7807c63a2474a719990b72b0660cf5e7c396669b7f63632fd0fe7fac2ccce3de9c0816ae772598f7f65fe69f9893b637f7c490497378cbb3ea043e8284604051612637929190614f40565b60405180910390a25050565b60105481565b600a5481565b60003073ffffffffffffffffffffffffffffffffffffffff166307a2d13a836040518263ffffffff1660e01b815260040161268a91906148d3565b602060405180830381865afa1580156126a7573d6000803e3d6000fd5b505050506040513d601f19601f820116820180604052508101906126cb9190614dae565b9050919050565b6000601160009054906101000a900460ff161561271b576040517ff61cb5e000000000000000000000000000000000000000000000000000000000815260040160405180910390fd5b82600073ffffffffffffffffffffffffffffffffffffffff168173ffffffffffffffffffffffffffffffffffffffff1603612782576040517f157d777100000000000000000000000000000000000000000000000000000000815260040160405180910390fd5b82600073ffffffffffffffffffffffffffffffffffffffff168173ffffffffffffffffffffffffffffffffffffffff16036127e9576040517f157d777100000000000000000000000000000000000000000000000000000000815260040160405180910390fd5b60008603612823576040517f7411319100000000000000000000000000000000000000000000000000000000815260040160405180910390fd5b3073ffffffffffffffffffffffffffffffffffffffff1663ce96cb77856040518263ffffffff1660e01b815260040161285c9190614c04565b602060405180830381865afa158015612879573d6000803e3d6000fd5b505050506040513d601f19601f8201168201806040525081019061289d9190614dae565b86111561295c57853073ffffffffffffffffffffffffffffffffffffffff1663ce96cb77866040518263ffffffff1660e01b81526004016128de9190614c04565b602060405180830381865afa1580156128fb573d6000803e3d6000fd5b505050506040513d601f19601f8201168201806040525081019061291f9190614dae565b6040517fc11ad0b5000000000000000000000000000000000000000000000000000000008152600401612953929190614f40565b60405180910390fd5b3073ffffffffffffffffffffffffffffffffffffffff1663c6e6f592876040518263ffffffff1660e01b815260040161299591906148d3565b602060405180830381865afa1580156129b2573d6000803e3d6000fd5b505050506040513d601f19601f820116820180604052508101906129d69190614dae565b9250600760008573ffffffffffffffffffffffffffffffffffffffff1673ffffffffffffffffffffffffffffffffffffffff16815260200190815260200160002054831115612a51576040517f1243c70b00000000000000000000000000000000000000000000000000000000815260040160405180910390fd5b6000600160009054906101000a900473ffffffffffffffffffffffffffffffffffffffff16905060008173ffffffffffffffffffffffffffffffffffffffff166331b8ca8e876040518263ffffffff1660e01b8152600401612ab39190614c04565b602060405180830381865afa158015612ad0573d6000803e3d6000fd5b505050506040513d601f19601f82011682018060405250810190612af49190614dae565b90506000811115612c145760003073ffffffffffffffffffffffffffffffffffffffff1663c6e6f592836040518263ffffffff1660e01b8152600401612b3a91906148d3565b602060405180830381865afa158015612b57573d6000803e3d6000fd5b505050506040513d601f19601f82011682018060405250810190612b7b9190614dae565b9050600081600760008a73ffffffffffffffffffffffffffffffffffffffff1673ffffffffffffffffffffffffffffffffffffffff16815260200190815260200160002054612bca9190614fd4565b905080871115612c1157816040517fb1f14e52000000000000000000000000000000000000000000000000000000008152600401612c0891906148d3565b60405180910390fd5b50505b612c1e8686614390565b6009548811612c45578760096000828254612c399190614fd4565b92505081905550612d55565b600060095490506000818a612c5a9190614fd4565b905060006009819055506000600260009054906101000a900473ffffffffffffffffffffffffffffffffffffffff1673ffffffffffffffffffffffffffffffffffffffff1663c4aa73956040518163ffffffff1660e01b8152600401602060405180830381865afa158015612cd3573d6000803e3d6000fd5b505050506040513d601f19601f82011682018060405250810190612cf7919061506b565b60ff1690506000612d0883836144e2565b905082811015612d505782816040517e907875000000000000000000000000000000000000000000000000000000008152600401612d47929190614f40565b60405180910390fd5b505050505b7f000000000000000000000000000000000000000000000000000000000000000073ffffffffffffffffffffffffffffffffffffffff1663a9059cbb888a6040518363ffffffff1660e01b8152600401612db0929190614f69565b6020604051808303816000875af1158015612dcf573d6000803e3d6000fd5b505050506040513d601f19601f82011682018060405250810190612df39190614fa7565b508573ffffffffffffffffffffffffffffffffffffffff168773ffffffffffffffffffffffffffffffffffffffff163373ffffffffffffffffffffffffffffffffffffffff167ffbde797d201c681b91056529119e0b02407c7bb96a4a2c75c01fc9667232c8db8b89604051612e6a929190614f40565b60405180910390a4505050509392505050565b600b5481565b6000601160009054906101000a900460ff1615612ecc576040517ff61cb5e000000000000000000000000000000000000000000000000000000000815260040160405180910390fd5b82600073ffffffffffffffffffffffffffffffffffffffff168173ffffffffffffffffffffffffffffffffffffffff1603612f33576040517f157d777100000000000000000000000000000000000000000000000000000000815260040160405180910390fd5b82600073ffffffffffffffffffffffffffffffffffffffff168173ffffffffffffffffffffffffffffffffffffffff1603612f9a576040517f157d777100000000000000000000000000000000000000000000000000000000815260040160405180910390fd5b60008603612fd4576040517f7411319100000000000000000000000000000000000000000000000000000000815260040160405180910390fd5b3073ffffffffffffffffffffffffffffffffffffffff166307a2d13a876040518263ffffffff1660e01b815260040161300d91906148d3565b602060405180830381865afa15801561302a573d6000803e3d6000fd5b505050506040513d601f19601f8201168201806040525081019061304e9190614dae565b92506000600160009054906101000a900473ffffffffffffffffffffffffffffffffffffffff16905060008173ffffffffffffffffffffffffffffffffffffffff166331b8ca8e876040518263ffffffff1660e01b81526004016130b29190614c04565b602060405180830381865afa1580156130cf573d6000803e3d6000fd5b505050506040513d601f19601f820116820180604052508101906130f39190614dae565b905060008111156132135760003073ffffffffffffffffffffffffffffffffffffffff1663c6e6f592836040518263ffffffff1660e01b815260040161313991906148d3565b602060405180830381865afa158015613156573d6000803e3d6000fd5b505050506040513d601f19601f8201168201806040525081019061317a9190614dae565b9050600081600760008a73ffffffffffffffffffffffffffffffffffffffff1673ffffffffffffffffffffffffffffffffffffffff168152602001908152602001600020546131c99190614fd4565b9050808a111561321057816040517fb1f14e5200000000000000000000000000000000000000000000000000000000815260040161320791906148d3565b60405180910390fd5b50505b3373ffffffffffffffffffffffffffffffffffffffff168673ffffffffffffffffffffffffffffffffffffffff16146133905787600860008873ffffffffffffffffffffffffffffffffffffffff1673ffffffffffffffffffffffffffffffffffffffff16815260200190815260200160002060003373ffffffffffffffffffffffffffffffffffffffff1673ffffffffffffffffffffffffffffffffffffffff1681526020019081526020016000205410156132fc576040517f23af47c500000000000000000000000000000000000000000000000000000000815260040160405180910390fd5b87600860008873ffffffffffffffffffffffffffffffffffffffff1673ffffffffffffffffffffffffffffffffffffffff16815260200190815260200160002060003373ffffffffffffffffffffffffffffffffffffffff1673ffffffffffffffffffffffffffffffffffffffff16815260200190815260200160002060008282546133889190614fd4565b925050819055505b61339a8689614390565b60095485116133c15784600960008282546133b59190614fd4565b925050819055506134d1565b60006009549050600081876133d69190614fd4565b905060006009819055506000600260009054906101000a900473ffffffffffffffffffffffffffffffffffffffff1673ffffffffffffffffffffffffffffffffffffffff1663c4aa73956040518163ffffffff1660e01b8152600401602060405180830381865afa15801561344f573d6000803e3d6000fd5b505050506040513d601f19601f82011682018060405250810190613473919061506b565b60ff169050600061348483836144e2565b9050828110156134cc5782816040517e9078750000000000000000000000000000000000000000000000000000000081526004016134c3929190614f40565b60405180910390fd5b505050505b7f000000000000000000000000000000000000000000000000000000000000000073ffffffffffffffffffffffffffffffffffffffff1663a9059cbb88876040518363ffffffff1660e01b815260040161352c929190614f69565b6020604051808303816000875af115801561354b573d6000803e3d6000fd5b505050506040513d601f19601f8201168201806040525081019061356f9190614fa7565b508573ffffffffffffffffffffffffffffffffffffffff168773ffffffffffffffffffffffffffffffffffffffff163373ffffffffffffffffffffffffffffffffffffffff167ffbde797d201c681b91056529119e0b02407c7bb96a4a2c75c01fc9667232c8db888c6040516135e6929190614f40565b60405180910390a4505050509392505050565b62093a80600d5461360a9190614e0a565b421015613643576040517f44b4814d00000000000000000000000000000000000000000000000000000000815260040160405180910390fd5b60003073ffffffffffffffffffffffffffffffffffffffff166301e1d1146040518163ffffffff1660e01b8152600401602060405180830381865afa158015613690573d6000803e3d6000fd5b505050506040513d601f19601f820116820180604052508101906136b49190614dae565b905060006006549050600081036136d35742600d819055505050613771565b600081670de0b6b3a7640000846136ea9190614e9e565b6136f49190614f0f565b90506000600e5482111561371357600e54826137109190614fd4565b90505b600e548211156137255781600e819055505b42600d819055507ffe6f1e49d233d7df346237311b5b935a66977eb3790db3e0cf6a2c98ac77dfbc816000600e544260405161376494939291906150d3565b60405180910390a1505050505b565b60003073ffffffffffffffffffffffffffffffffffffffff1663c6e6f5923073ffffffffffffffffffffffffffffffffffffffff1663402d267d856040518263ffffffff1660e01b81526004016137ca9190614c04565b602060405180830381865afa1580156137e7573d6000803e3d6000fd5b505050506040513d601f19601f8201168201806040525081019061380b9190614dae565b6040518263ffffffff1660e01b815260040161382791906148d3565b602060405180830381865afa158015613844573d6000803e3d6000fd5b505050506040513d601f19601f820116820180604052508101906138689190614dae565b9050919050565b6000803073ffffffffffffffffffffffffffffffffffffffff166301e1d1146040518163ffffffff1660e01b8152600401602060405180830381865afa1580156138bd573d6000803e3d6000fd5b505050506040513d601f19601f820116820180604052508101906138e19190614dae565b90506000600654036138f557829150613911565b80600654846139049190614e9e565b61390e9190614f0f565b91505b50919050565b600260009054906101000a900473ffffffffffffffffffffffffffffffffffffffff1681565b60003073ffffffffffffffffffffffffffffffffffffffff166307a2d13a600760008573ffffffffffffffffffffffffffffffffffffffff1673ffffffffffffffffffffffffffffffffffffffff168152602001908152602001600020546040518263ffffffff1660e01b81526004016139b791906148d3565b602060405180830381865afa1580156139d4573d6000803e3d6000fd5b505050506040513d601f19601f820116820180604052508101906139f89190614dae565b9050919050565b6000600760008373ffffffffffffffffffffffffffffffffffffffff1673ffffffffffffffffffffffffffffffffffffffff168152602001908152602001600020549050919050565b60008054906101000a900473ffffffffffffffffffffffffffffffffffffffff1673ffffffffffffffffffffffffffffffffffffffff163373ffffffffffffffffffffffffffffffffffffffff1614613acd576040517f1abf68b300000000000000000000000000000000000000000000000000000000815260040160405180910390fd5b6000600f54905081600f819055507f1e179f9acf77f1bf4cdf0f584b1bd985770ea9801819edc98d34f09bab0e187e7fac2ccce3de9c0816ae772598f7f65fe69f9893b637f7c490497378cbb3ea043e8284604051613b2d929190614f40565b60405180910390a25050565b6008602052816000526040600020602052806000526040600020600091509150505481565b60008054906101000a900473ffffffffffffffffffffffffffffffffffffffff1673ffffffffffffffffffffffffffffffffffffffff163373ffffffffffffffffffffffffffffffffffffffff1614613be3576040517f1abf68b300000000000000000000000000000000000000000000000000000000815260040160405180910390fd5b80600073ffffffffffffffffffffffffffffffffffffffff168173ffffffffffffffffffffffffffffffffffffffff1603613c4a576040517f157d777100000000000000000000000000000000000000000000000000000000815260040160405180910390fd5b6000600c60009054906101000a900473ffffffffffffffffffffffffffffffffffffffff16905082600c60006101000a81548173ffffffffffffffffffffffffffffffffffffffff021916908373ffffffffffffffffffffffffffffffffffffffff1602179055507fa13bb13c7ce3dd605a79d36377f06413322c259738133384ebd55409ced351407fac2ccce3de9c0816ae772598f7f65fe69f9893b637f7c490497378cbb3ea043e8273ffffffffffffffffffffffffffffffffffffffff168573ffffffffffffffffffffffffffffffffffffffff16604051613d30929190614f40565b60405180910390a2505050565b60095481565b60003073ffffffffffffffffffffffffffffffffffffffff1663c6e6f592836040518263ffffffff1660e01b8152600401613d7e91906148d3565b602060405180830381865afa158015613d9b573d6000803e3d6000fd5b505050506040513d601f19601f82011682018060405250810190613dbf9190614dae565b9050919050565b60008054906101000a900473ffffffffffffffffffffffffffffffffffffffff1673ffffffffffffffffffffffffffffffffffffffff163373ffffffffffffffffffffffffffffffffffffffff1614613e4b576040517f1abf68b300000000000000000000000000000000000000000000000000000000815260040160405180910390fd5b60006010549050816010819055507fe1056a31e9db00f0754da69d216a6fd6500b51b66ddca92513ba42fb9a6b61d07fac2ccce3de9c0816ae772598f7f65fe69f9893b637f7c490497378cbb3ea043e8284604051613eab929190614f40565b60405180910390a25050565b600073ffffffffffffffffffffffffffffffffffffffff168273ffffffffffffffffffffffffffffffffffffffff1603613f1d576040517f157d777100000000000000000000000000000000000000000000000000000000815260040160405180910390fd5b80600760008573ffffffffffffffffffffffffffffffffffffffff1673ffffffffffffffffffffffffffffffffffffffff168152602001908152602001600020541015613f96576040517f1243c70b00000000000000000000000000000000000000000000000000000000815260040160405180910390fd5b80600760008573ffffffffffffffffffffffffffffffffffffffff1673ffffffffffffffffffffffffffffffffffffffff1681526020019081526020016000206000828254613fe59190614fd4565b9250508190555080600760008473ffffffffffffffffffffffffffffffffffffffff1673ffffffffffffffffffffffffffffffffffffffff168152602001908152602001600020600082825461403b9190614e0a565b925050819055508173ffffffffffffffffffffffffffffffffffffffff168373ffffffffffffffffffffffffffffffffffffffff167fddf252ad1be2c89b69c2b068fc378daa952ba7f163c4a11628f55a4df523b3ef8360405161409f91906148d3565b60405180910390a3505050565b600073ffffffffffffffffffffffffffffffffffffffff168273ffffffffffffffffffffffffffffffffffffffff1603614112576040517f157d777100000000000000000000000000000000000000000000000000000000815260040160405180910390fd5b80600660008282546141249190614e0a565b9250508190555080600760008473ffffffffffffffffffffffffffffffffffffffff1673ffffffffffffffffffffffffffffffffffffffff168152602001908152602001600020600082825461417a9190614e0a565b925050819055508173ffffffffffffffffffffffffffffffffffffffff16600073ffffffffffffffffffffffffffffffffffffffff167fddf252ad1be2c89b69c2b068fc378daa952ba7f163c4a11628f55a4df523b3ef836040516141df91906148d3565b60405180910390a35050565b60003073ffffffffffffffffffffffffffffffffffffffff166301e1d1146040518163ffffffff1660e01b8152600401602060405180830381865afa158015614238573d6000803e3d6000fd5b505050506040513d601f19601f8201168201806040525081019061425c9190614dae565b90506000612710600a54836142719190614e9e565b61427b9190614f0f565b9050600060095490508160095410156143465760006009548361429e9190614fd4565b90506000600260009054906101000a900473ffffffffffffffffffffffffffffffffffffffff1673ffffffffffffffffffffffffffffffffffffffff1663c4aa73956040518163ffffffff1660e01b8152600401602060405180830381865afa15801561430f573d6000803e3d6000fd5b505050506040513d601f19601f82011682018060405250810190614333919061506b565b60ff16905061434282826144e2565b5050505b600954811461438b577f84c97b35c64ce8096861a19dc36faedc374e0ab4c29482e5d805ba6bc2d52b8881600954604051614382929190614f40565b60405180910390a15b505050565b80600760008473ffffffffffffffffffffffffffffffffffffffff1673ffffffffffffffffffffffffffffffffffffffff168152602001908152602001600020541015614409576040517f1243c70b00000000000000000000000000000000000000000000000000000000815260040160405180910390fd5b80600760008473ffffffffffffffffffffffffffffffffffffffff1673ffffffffffffffffffffffffffffffffffffffff16815260200190815260200160002060008282546144589190614fd4565b9250508190555080600660008282546144719190614fd4565b92505081905550600073ffffffffffffffffffffffffffffffffffffffff168273ffffffffffffffffffffffffffffffffffffffff167fddf252ad1be2c89b69c2b068fc378daa952ba7f163c4a11628f55a4df523b3ef836040516144d691906148d3565b60405180910390a35050565b600080600160009054906101000a900473ffffffffffffffffffffffffffffffffffffffff169050600084905060008273ffffffffffffffffffffffffffffffffffffffff1663f96d7b806040518163ffffffff1660e01b8152600401602060405180830381865afa15801561455c573d6000803e3d6000fd5b505050506040513d601f19601f820116820180604052508101906145809190614dae565b90506000600190505b8181111580156145995750600083115b156148b0576000808573ffffffffffffffffffffffffffffffffffffffff1663cfc0cc34846040518263ffffffff1660e01b81526004016145da91906148d3565b608060405180830381865afa1580156145f7573d6000803e3d6000fd5b505050506040513d601f19601f8201168201806040525081019061461b919061512d565b505091509150600073ffffffffffffffffffffffffffffffffffffffff168273ffffffffffffffffffffffffffffffffffffffff16148061465a575080155b1561466657505061489d565b6000808373ffffffffffffffffffffffffffffffffffffffff166040516024016040516020818303038152906040527f01e1d114000000000000000000000000000000000000000000000000000000007bffffffffffffffffffffffffffffffffffffffffffffffffffffffff19166020820180517bffffffffffffffffffffffffffffffffffffffffffffffffffffffff838183161783525050505060405161471091906151db565b600060405180830381855afa9150503d806000811461474b576040519150601f19603f3d011682016040523d82523d6000602084013e614750565b606091505b509150915081614763575050505061489d565b6000818060200190518101906147799190614dae565b90506000810361478d57505050505061489d565b600081891161479c578861479e565b815b90508973ffffffffffffffffffffffffffffffffffffffff16631083534588838f6040518463ffffffff1660e01b81526004016147dd939291906151f2565b6020604051808303816000875af192505050801561481957506040513d601f19601f820116820180604052508101906148169190614dae565b60015b6148285750505050505061489d565b808c6148349190614e0a565b9b50808a6148429190614fd4565b995080600960008282546148569190614e0a565b92505081905550877fdd42afdcf46eb795b638427459f02b0d5b94751009a7e0b23b39b7289b42117b8260405161488d91906148d3565b60405180910390a2505050505050505b80806148a890615229565b915050614589565b5050505092915050565b6000819050919050565b6148cd816148ba565b82525050565b60006020820190506148e860008301846148c4565b92915050565b600080fd5b60008115159050919050565b614908816148f3565b811461491357600080fd5b50565b600081359050614925816148ff565b92915050565b600060208284031215614941576149406148ee565b5b600061494f84828501614916565b91505092915050565b600081519050919050565b600082825260208201905092915050565b60005b83811015614992578082015181840152602081019050614977565b60008484015250505050565b6000601f19601f8301169050919050565b60006149ba82614958565b6149c48185614963565b93506149d4818560208601614974565b6149dd8161499e565b840191505092915050565b60006020820190508181036000830152614a0281846149af565b905092915050565b614a13816148ba565b8114614a1e57600080fd5b50565b600081359050614a3081614a0a565b92915050565b600060208284031215614a4c57614a4b6148ee565b5b6000614a5a84828501614a21565b91505092915050565b600073ffffffffffffffffffffffffffffffffffffffff82169050919050565b6000614a8e82614a63565b9050919050565b614a9e81614a83565b8114614aa957600080fd5b50565b600081359050614abb81614a95565b92915050565b60008060408385031215614ad857614ad76148ee565b5b6000614ae685828601614aac565b9250506020614af785828601614a21565b9150509250929050565b614b0a816148f3565b82525050565b6000602082019050614b256000830184614b01565b92915050565b60008060408385031215614b4257614b416148ee565b5b6000614b5085828601614a21565b9250506020614b6185828601614a21565b9150509250929050565b600080600060608486031215614b8457614b836148ee565b5b6000614b9286828701614aac565b9350506020614ba386828701614aac565b9250506040614bb486828701614a21565b9150509250925092565b600060ff82169050919050565b614bd481614bbe565b82525050565b6000602082019050614bef6000830184614bcb565b92915050565b614bfe81614a83565b82525050565b6000602082019050614c196000830184614bf5565b92915050565b6000819050919050565b6000614c44614c3f614c3a84614a63565b614c1f565b614a63565b9050919050565b6000614c5682614c29565b9050919050565b6000614c6882614c4b565b9050919050565b614c7881614c5d565b82525050565b6000602082019050614c936000830184614c6f565b92915050565b600060208284031215614caf57614cae6148ee565b5b6000614cbd84828501614aac565b91505092915050565b60008060408385031215614cdd57614cdc6148ee565b5b6000614ceb85828601614a21565b9250506020614cfc85828601614aac565b9150509250929050565b600080600060608486031215614d1f57614d1e6148ee565b5b6000614d2d86828701614a21565b9350506020614d3e86828701614aac565b9250506040614d4f86828701614aac565b9150509250925092565b60008060408385031215614d7057614d6f6148ee565b5b6000614d7e85828601614aac565b9250506020614d8f85828601614aac565b9150509250929050565b600081519050614da881614a0a565b92915050565b600060208284031215614dc457614dc36148ee565b5b6000614dd284828501614d99565b91505092915050565b7f4e487b7100000000000000000000000000000000000000000000000000000000600052601160045260246000fd5b6000614e15826148ba565b9150614e20836148ba565b9250828201905080821115614e3857614e37614ddb565b5b92915050565b7f4e487b7100000000000000000000000000000000000000000000000000000000600052602260045260246000fd5b60006002820490506001821680614e8557607f821691505b602082108103614e9857614e97614e3e565b5b50919050565b6000614ea9826148ba565b9150614eb4836148ba565b9250828202614ec2816148ba565b91508282048414831517614ed957614ed8614ddb565b5b5092915050565b7f4e487b7100000000000000000000000000000000000000000000000000000000600052601260045260246000fd5b6000614f1a826148ba565b9150614f25836148ba565b925082614f3557614f34614ee0565b5b828204905092915050565b6000604082019050614f5560008301856148c4565b614f6260208301846148c4565b9392505050565b6000604082019050614f7e6000830185614bf5565b614f8b60208301846148c4565b9392505050565b600081519050614fa1816148ff565b92915050565b600060208284031215614fbd57614fbc6148ee565b5b6000614fcb84828501614f92565b91505092915050565b6000614fdf826148ba565b9150614fea836148ba565b925082820390508181111561500257615001614ddb565b5b92915050565b600060608201905061501d6000830186614bf5565b61502a6020830185614bf5565b61503760408301846148c4565b949350505050565b61504881614bbe565b811461505357600080fd5b50565b6000815190506150658161503f565b92915050565b600060208284031215615081576150806148ee565b5b600061508f84828501615056565b91505092915050565b6000819050919050565b60006150bd6150b86150b384615098565b614c1f565b6148ba565b9050919050565b6150cd816150a2565b82525050565b60006080820190506150e860008301876148c4565b6150f560208301866150c4565b61510260408301856148c4565b61510f60608301846148c4565b95945050505050565b60008151905061512781614a95565b92915050565b60008060008060808587031215615147576151466148ee565b5b600061515587828801615118565b945050602061516687828801614f92565b935050604061517787828801614d99565b925050606061518887828801614d99565b91505092959194509250565b600081519050919050565b600081905092915050565b60006151b582615194565b6151bf818561519f565b93506151cf818560208601614974565b80840191505092915050565b60006151e782846151aa565b915081905092915050565b600060608201905061520760008301866148c4565b61521460208301856148c4565b61522160408301846148c4565b949350505050565b6000615234826148ba565b91507fffffffffffffffffffffffffffffffffffffffffffffffffffffffffffffffff820361526657615265614ddb565b5b60018201905091905056fea2646970667358221220b10114b1f6a486728342f59a45e08f8c60c759a2b05d50da570bb8657b394b4064736f6c63430008130033",
  "linkReferences": {},
  "deployedLinkReferences": {}
}