{
  "_format": "hh-sol-artifact-1",
  "contractName": "MockS1",
  "sourceName": "contracts/MockS1.sol",
  "abi": [
    {
      "inputs": [
        {
          "internalType": "contract Token",
          "name": "_token",
          "type": "address"
        }
      ],
      "stateMutability": "nonpayable",
      "type": "constructor"
    },
    {
      "inputs": [],
      "name": "MockS1__CapExceeded",
      "type": "error"
    },
    {
      "inputs": [],
      "name": "MockS1__InsufficientBalance",
      "type": "error"
    },
    {
      "inputs": [],
      "name": "MockS1__Paused",
      "type": "error"
    },
    {
      "anonymous": false,
      "inputs": [
        {
          "indexed": false,
          "internalType": "uint256",
          "name": "amount",
          "type": "uint256"
        },
        {
          "indexed": false,
          "internalType": "uint256",
          "name": "principalAfter",
          "type": "uint256"
        },
        {
          "indexed": false,
          "internalType": "uint256",
          "name": "totalAssetsAfter",
          "type": "uint256"
        },
        {
          "indexed": false,
          "internalType": "uint256",
          "name": "timestamp",
          "type": "uint256"
        }
      ],
      "name": "S1Deposited",
      "type": "event"
    },
    {
      "anonymous": false,
      "inputs": [
        {
          "indexed": false,
          "internalType": "int256",
          "name": "aprBps",
          "type": "int256"
        },
        {
          "indexed": false,
          "internalType": "uint256",
          "name": "cap",
          "type": "uint256"
        }
      ],
      "name": "S1ParamsUpdated",
      "type": "event"
    },
    {
      "anonymous": false,
      "inputs": [
        {
          "indexed": false,
          "internalType": "bool",
          "name": "paused",
          "type": "bool"
        }
      ],
      "name": "S1Paused",
      "type": "event"
    },
    {
      "anonymous": false,
      "inputs": [
        {
          "indexed": false,
          "internalType": "uint256",
          "name": "gain",
          "type": "uint256"
        },
        {
          "indexed": false,
          "internalType": "uint256",
          "name": "newPrincipal",
          "type": "uint256"
        },
        {
          "indexed": false,
          "internalType": "uint256",
          "name": "timestamp",
          "type": "uint256"
        }
      ],
      "name": "S1Reported",
      "type": "event"
    },
    {
      "anonymous": false,
      "inputs": [
        {
          "indexed": false,
          "internalType": "uint256",
          "name": "amount",
          "type": "uint256"
        },
        {
          "indexed": false,
          "internalType": "uint256",
          "name": "principalAfter",
          "type": "uint256"
        },
        {
          "indexed": false,
          "internalType": "uint256",
          "name": "totalAssetsAfter",
          "type": "uint256"
        },
        {
          "indexed": false,
          "internalType": "uint256",
          "name": "timestamp",
          "type": "uint256"
        }
      ],
      "name": "S1Withdrawn",
      "type": "event"
    },
    {
      "inputs": [],
      "name": "accumulator",
      "outputs": [
        {
          "internalType": "uint256",
          "name": "",
          "type": "uint256"
        }
      ],
      "stateMutability": "view",
      "type": "function"
    },
    {
      "inputs": [],
      "name": "aprBps",
      "outputs": [
        {
          "internalType": "int256",
          "name": "",
          "type": "int256"
        }
      ],
      "stateMutability": "view",
      "type": "function"
    },
    {
      "inputs": [],
      "name": "cap",
      "outputs": [
        {
          "internalType": "uint256",
          "name": "",
          "type": "uint256"
        }
      ],
      "stateMutability": "view",
      "type": "function"
    },
    {
      "inputs": [
        {
          "internalType": "uint256",
          "name": "_amount",
          "type": "uint256"
        }
      ],
      "name": "depositToStrategy",
      "outputs": [],
      "stateMutability": "nonpayable",
      "type": "function"
    },
    {
      "inputs": [],
      "name": "lastAccrualTs",
      "outputs": [
        {
          "internalType": "uint256",
          "name": "",
          "type": "uint256"
        }
      ],
      "stateMutability": "view",
      "type": "function"
    },
    {
      "inputs": [],
      "name": "owner",
      "outputs": [
        {
          "internalType": "address",
          "name": "",
          "type": "address"
        }
      ],
      "stateMutability": "view",
      "type": "function"
    },
    {
      "inputs": [],
      "name": "params",
      "outputs": [
        {
          "internalType": "int256",
          "name": "",
          "type": "int256"
        },
        {
          "internalType": "uint256",
          "name": "",
          "type": "uint256"
        },
        {
          "internalType": "bool",
          "name": "",
          "type": "bool"
        },
        {
          "internalType": "uint256",
          "name": "",
          "type": "uint256"
        }
      ],
      "stateMutability": "view",
      "type": "function"
    },
    {
      "inputs": [
        {
          "internalType": "bool",
          "name": "_paused",
          "type": "bool"
        }
      ],
      "name": "pause",
      "outputs": [],
      "stateMutability": "nonpayable",
      "type": "function"
    },
    {
      "inputs": [],
      "name": "paused",
      "outputs": [
        {
          "internalType": "bool",
          "name": "",
          "type": "bool"
        }
      ],
      "stateMutability": "view",
      "type": "function"
    },
    {
      "inputs": [],
      "name": "principal",
      "outputs": [
        {
          "internalType": "uint256",
          "name": "",
          "type": "uint256"
        }
      ],
      "stateMutability": "view",
      "type": "function"
    },
    {
      "inputs": [],
      "name": "report",
      "outputs": [],
      "stateMutability": "nonpayable",
      "type": "function"
    },
    {
      "inputs": [
        {
          "internalType": "int256",
          "name": "_newAprBps",
          "type": "int256"
        },
        {
          "internalType": "uint256",
          "name": "_newCap",
          "type": "uint256"
        }
      ],
      "name": "setParams",
      "outputs": [],
      "stateMutability": "nonpayable",
      "type": "function"
    },
    {
      "inputs": [],
      "name": "token",
      "outputs": [
        {
          "internalType": "contract Token",
          "name": "",
          "type": "address"
        }
      ],
      "stateMutability": "view",
      "type": "function"
    },
    {
      "inputs": [],
      "name": "totalAssets",
      "outputs": [
        {
          "internalType": "uint256",
          "name": "",
          "type": "uint256"
        }
      ],
      "stateMutability": "view",
      "type": "function"
    },
    {
      "inputs": [
        {
          "internalType": "uint256",
          "name": "_amount",
          "type": "uint256"
        }
      ],
      "name": "withdrawFromStrategy",
      "outputs": [],
      "stateMutability": "nonpayable",
      "type": "function"
    }
  ],
  "bytecode": "0x6080604052670de0b6b3a76400006002556000600660006101000a81548160ff0219169083151502179055503480156200003857600080fd5b50604051620013203803806200132083398181016040528101906200005e919062000164565b806000806101000a81548173ffffffffffffffffffffffffffffffffffffffff021916908373ffffffffffffffffffffffffffffffffffffffff16021790555033600660016101000a81548173ffffffffffffffffffffffffffffffffffffffff021916908373ffffffffffffffffffffffffffffffffffffffff1602179055505062000196565b600080fd5b600073ffffffffffffffffffffffffffffffffffffffff82169050919050565b60006200011882620000eb565b9050919050565b60006200012c826200010b565b9050919050565b6200013e816200011f565b81146200014a57600080fd5b50565b6000815190506200015e8162000133565b92915050565b6000602082840312156200017d576200017c620000e6565b5b60006200018d848285016200014d565b91505092915050565b61117a80620001a66000396000f3fe608060405234801561001057600080fd5b50600436106100f55760003560e01c806348b1933511610097578063cff0ab9611610066578063cff0ab961461022c578063d33b0aa71461024d578063d4a9036214610269578063fc0c546a14610285576100f5565b806348b19335146101b65780635c975abb146101d25780638da5cb5b146101f0578063ba5d30781461020e576100f5565b80631d52137e116100d35780631d52137e1461015257806325ac1df2146101705780632606a10b1461018e578063355274ea14610198576100f5565b806301e1d114146100fa57806302329a29146101185780630338115414610134575b600080fd5b6101026102a3565b60405161010f9190610c5b565b60405180910390f35b610132600480360381019061012d9190610cb3565b6102d7565b005b61013c610385565b6040516101499190610c5b565b60405180910390f35b61015a61038b565b6040516101679190610c5b565b60405180910390f35b610178610391565b6040516101859190610cf9565b60405180910390f35b610196610397565b005b6101a0610592565b6040516101ad9190610c5b565b60405180910390f35b6101d060048036038101906101cb9190610d40565b610598565b005b6101da6106f2565b6040516101e79190610d7c565b60405180910390f35b6101f8610705565b6040516102059190610dd8565b60405180910390f35b61021661072b565b6040516102239190610c5b565b60405180910390f35b610234610731565b6040516102449493929190610df3565b60405180910390f35b61026760048036038101906102629190610d40565b61075e565b005b610283600480360381019061027e9190610e64565b610879565b005b61028d61091e565b60405161029a9190610f03565b60405180910390f35b6000806102ae610942565b9050670de0b6b3a7640000816001546102c79190610f4d565b6102d19190610fbe565b91505090565b600660019054906101000a900473ffffffffffffffffffffffffffffffffffffffff1673ffffffffffffffffffffffffffffffffffffffff163373ffffffffffffffffffffffffffffffffffffffff161461033157600080fd5b80600660006101000a81548160ff0219169083151502179055507ff39d287e595779fe13bb3cfd7b6cb166d1390a1174ac6ca3163ef4bdbd1ece398160405161037a9190610d7c565b60405180910390a150565b60025481565b60045481565b60035481565b600660019054906101000a900473ffffffffffffffffffffffffffffffffffffffff1673ffffffffffffffffffffffffffffffffffffffff163373ffffffffffffffffffffffffffffffffffffffff16146103f157600080fd5b600660009054906101000a900460ff1615610438576040517ffa90dfc200000000000000000000000000000000000000000000000000000000815260040160405180910390fd5b600060015403610474576040517f91a1769100000000000000000000000000000000000000000000000000000000815260040160405180910390fd5b6000600354036104b0576040517f91a1769100000000000000000000000000000000000000000000000000000000815260040160405180910390fd5b670de0b6b3a7640000600254036104f3576040517f91a1769100000000000000000000000000000000000000000000000000000000815260040160405180910390fd5b6104fb610ab9565b6000670de0b6b3a76400006002546001546105169190610f4d565b6105209190610fbe565b90506000600154826105329190610fef565b905081600181905550670de0b6b3a7640000600281905550426004819055507fe192040bdc959ba1df35bdce0a6d7b849e0d3382be3cd7c018b46e467b5124d2816001544260405161058693929190611023565b60405180910390a15050565b60055481565b600660009054906101000a900460ff16156105df576040517ffa90dfc200000000000000000000000000000000000000000000000000000000815260040160405180910390fd5b6105e7610ab9565b6000670de0b6b3a76400006002546001546106029190610f4d565b61060c9190610fbe565b905080821115610648576040517f91a1769100000000000000000000000000000000000000000000000000000000815260040160405180910390fd5b6000600254670de0b6b3a7640000846106619190610f4d565b61066b9190610fbe565b9050806001600082825461067f9190610fef565b925050819055506000670de0b6b3a76400006002546001546106a19190610f4d565b6106ab9190610fbe565b90507f72744fb5b70eb7944bf6c33e2c2239c4b67eb0e6bf99a231e4e8df074467808c8460015483426040516106e4949392919061105a565b60405180910390a150505050565b600660009054906101000a900460ff1681565b600660019054906101000a900473ffffffffffffffffffffffffffffffffffffffff1681565b60015481565b600080600080600354600554600660009054906101000a900460ff16600154935093509350935090919293565b600660009054906101000a900460ff16156107a5576040517ffa90dfc200000000000000000000000000000000000000000000000000000000815260040160405180910390fd5b6107ad610ab9565b600554816001546107be919061109f565b11156107f6576040517fc6d9371a00000000000000000000000000000000000000000000000000000000815260040160405180910390fd5b8060016000828254610808919061109f565b925050819055506000670de0b6b3a764000060025460015461082a9190610f4d565b6108349190610fbe565b90507f2b19c61d1e96aac72243c7a6ce2f939e0d00ec9c265fa47320383423e8cf993682600154834260405161086d949392919061105a565b60405180910390a15050565b600660019054906101000a900473ffffffffffffffffffffffffffffffffffffffff1673ffffffffffffffffffffffffffffffffffffffff163373ffffffffffffffffffffffffffffffffffffffff16146108d357600080fd5b81600381905550806005819055507f8ca71b688b854ee630dffe218d7a4034107051c61c502de6a014be5a20c012ef82826040516109129291906110d3565b60405180910390a15050565b60008054906101000a900473ffffffffffffffffffffffffffffffffffffffff1681565b6000806004540361095d57670de0b6b3a76400009050610ab6565b6000600354148061097057506000600154145b1561097f576002549050610ab6565b60006004544261098f9190610fef565b9050600081036109a457600254915050610ab6565b600080600060035413156109c0576003549150600190506109f2565b6003546109cc906110fc565b91507fffffffffffffffffffffffffffffffffffffffffffffffffffffffffffffffff90505b60006301e13380612710610a069190610f4d565b670de0b6b3a764000084610a1a9190610f4d565b610a249190610fbe565b905060008482610a349190610f4d565b9050600060018403610a5b5781670de0b6b3a7640000610a54919061109f565b9050610a8c565b81670de0b6b3a76400001015610a745760009050610a8b565b81670de0b6b3a7640000610a889190610fef565b90505b5b670de0b6b3a764000081600254610aa39190610f4d565b610aad9190610fbe565b96505050505050505b90565b600060045403610ade5742600481905550670de0b6b3a7640000600281905550610c40565b600060045442610aee9190610fef565b905060008103610afe5750610c40565b60006003541480610b1157506000600154145b15610b23574260048190555050610c40565b60008060006003541315610b3f57600354915060019050610b71565b600354610b4b906110fc565b91507fffffffffffffffffffffffffffffffffffffffffffffffffffffffffffffffff90505b60006301e13380612710610b859190610f4d565b670de0b6b3a764000084610b999190610f4d565b610ba39190610fbe565b905060008482610bb39190610f4d565b9050600060018403610bda5781670de0b6b3a7640000610bd3919061109f565b9050610c0b565b81670de0b6b3a76400001015610bf35760009050610c0a565b81670de0b6b3a7640000610c079190610fef565b90505b5b670de0b6b3a764000081600254610c229190610f4d565b610c2c9190610fbe565b600281905550426004819055505050505050505b565b6000819050919050565b610c5581610c42565b82525050565b6000602082019050610c706000830184610c4c565b92915050565b600080fd5b60008115159050919050565b610c9081610c7b565b8114610c9b57600080fd5b50565b600081359050610cad81610c87565b92915050565b600060208284031215610cc957610cc8610c76565b5b6000610cd784828501610c9e565b91505092915050565b6000819050919050565b610cf381610ce0565b82525050565b6000602082019050610d0e6000830184610cea565b92915050565b610d1d81610c42565b8114610d2857600080fd5b50565b600081359050610d3a81610d14565b92915050565b600060208284031215610d5657610d55610c76565b5b6000610d6484828501610d2b565b91505092915050565b610d7681610c7b565b82525050565b6000602082019050610d916000830184610d6d565b92915050565b600073ffffffffffffffffffffffffffffffffffffffff82169050919050565b6000610dc282610d97565b9050919050565b610dd281610db7565b82525050565b6000602082019050610ded6000830184610dc9565b92915050565b6000608082019050610e086000830187610cea565b610e156020830186610c4c565b610e226040830185610d6d565b610e2f6060830184610c4c565b95945050505050565b610e4181610ce0565b8114610e4c57600080fd5b50565b600081359050610e5e81610e38565b92915050565b60008060408385031215610e7b57610e7a610c76565b5b6000610e8985828601610e4f565b9250506020610e9a85828601610d2b565b9150509250929050565b6000819050919050565b6000610ec9610ec4610ebf84610d97565b610ea4565b610d97565b9050919050565b6000610edb82610eae565b9050919050565b6000610eed82610ed0565b9050919050565b610efd81610ee2565b82525050565b6000602082019050610f186000830184610ef4565b92915050565b7f4e487b7100000000000000000000000000000000000000000000000000000000600052601160045260246000fd5b6000610f5882610c42565b9150610f6383610c42565b9250828202610f7181610c42565b91508282048414831517610f8857610f87610f1e565b5b5092915050565b7f4e487b7100000000000000000000000000000000000000000000000000000000600052601260045260246000fd5b6000610fc982610c42565b9150610fd483610c42565b925082610fe457610fe3610f8f565b5b828204905092915050565b6000610ffa82610c42565b915061100583610c42565b925082820390508181111561101d5761101c610f1e565b5b92915050565b60006060820190506110386000830186610c4c565b6110456020830185610c4c565b6110526040830184610c4c565b949350505050565b600060808201905061106f6000830187610c4c565b61107c6020830186610c4c565b6110896040830185610c4c565b6110966060830184610c4c565b95945050505050565b60006110aa82610c42565b91506110b583610c42565b92508282019050808211156110cd576110cc610f1e565b5b92915050565b60006040820190506110e86000830185610cea565b6110f56020830184610c4c565b9392505050565b600061110782610ce0565b91507f8000000000000000000000000000000000000000000000000000000000000000820361113957611138610f1e565b5b81600003905091905056fea2646970667358221220b950d328eb067658f7ecafe1a6e43ab9e99ae8082be822eb0edac04d4a10c15364736f6c63430008130033",
  "linkReferences": {},
  "deployedLinkReferences": {}
}