{
  "_format": "hh-sol-artifact-1",
  "contractName": "StrategyRouter",
  "sourceName": "contracts/StrategyRouter.sol",
  "abi": [
    {
      "inputs": [
        {
          "internalType": "address",
          "name": "_asset",
          "type": "address"
        },
        {
          "internalType": "address",
          "name": "_configManager",
          "type": "address"
        }
      ],
      "stateMutability": "nonpayable",
      "type": "constructor"
    },
    {
      "inputs": [
        {
          "internalType": "uint256",
          "name": "strategyId",
          "type": "uint256"
        },
        {
          "internalType": "uint256",
          "name": "requested",
          "type": "uint256"
        },
        {
          "internalType": "uint256",
          "name": "available",
          "type": "uint256"
        }
      ],
      "name": "StrategyRouter__CapExceeded",
      "type": "error"
    },
    {
      "inputs": [],
      "name": "StrategyRouter__InsufficientLiquidity",
      "type": "error"
    },
    {
      "inputs": [],
      "name": "StrategyRouter__InvalidAmount",
      "type": "error"
    },
    {
      "inputs": [],
      "name": "StrategyRouter__InvalidStrategyAddress",
      "type": "error"
    },
    {
      "inputs": [],
      "name": "StrategyRouter__NotOwner",
      "type": "error"
    },
    {
      "inputs": [
        {
          "internalType": "uint256",
          "name": "expected",
          "type": "uint256"
        },
        {
          "internalType": "uint256",
          "name": "actual",
          "type": "uint256"
        },
        {
          "internalType": "uint256",
          "name": "maxSlippageBps",
          "type": "uint256"
        }
      ],
      "name": "StrategyRouter__SlippageExceeded",
      "type": "error"
    },
    {
      "inputs": [],
      "name": "StrategyRouter__StrategyAlreadyRegistered",
      "type": "error"
    },
    {
      "inputs": [],
      "name": "StrategyRouter__StrategyNotActive",
      "type": "error"
    },
    {
      "inputs": [],
      "name": "StrategyRouter__StrategyNotRegistered",
      "type": "error"
    },
    {
      "inputs": [],
      "name": "StrategyRouter__StrategyPaused",
      "type": "error"
    },
    {
      "anonymous": false,
      "inputs": [
        {
          "indexed": true,
          "internalType": "uint256",
          "name": "strategyId",
          "type": "uint256"
        },
        {
          "indexed": false,
          "internalType": "uint256",
          "name": "amount",
          "type": "uint256"
        },
        {
          "indexed": false,
          "internalType": "uint256",
          "name": "totalAllocated",
          "type": "uint256"
        }
      ],
      "name": "CapitalDeposited",
      "type": "event"
    },
    {
      "anonymous": false,
      "inputs": [
        {
          "indexed": true,
          "internalType": "uint256",
          "name": "strategyId",
          "type": "uint256"
        },
        {
          "indexed": false,
          "internalType": "uint256",
          "name": "amount",
          "type": "uint256"
        },
        {
          "indexed": false,
          "internalType": "uint256",
          "name": "totalAllocated",
          "type": "uint256"
        }
      ],
      "name": "CapitalWithdrawn",
      "type": "event"
    },
    {
      "anonymous": false,
      "inputs": [
        {
          "indexed": true,
          "internalType": "uint256",
          "name": "strategyId",
          "type": "uint256"
        },
        {
          "indexed": false,
          "internalType": "bool",
          "name": "active",
          "type": "bool"
        }
      ],
      "name": "StrategyActivated",
      "type": "event"
    },
    {
      "anonymous": false,
      "inputs": [
        {
          "indexed": true,
          "internalType": "uint256",
          "name": "strategyId",
          "type": "uint256"
        },
        {
          "indexed": false,
          "internalType": "uint256",
          "name": "oldCap",
          "type": "uint256"
        },
        {
          "indexed": false,
          "internalType": "uint256",
          "name": "newCap",
          "type": "uint256"
        }
      ],
      "name": "StrategyCapUpdated",
      "type": "event"
    },
    {
      "anonymous": false,
      "inputs": [
        {
          "indexed": true,
          "internalType": "uint256",
          "name": "strategyId",
          "type": "uint256"
        },
        {
          "indexed": true,
          "internalType": "address",
          "name": "strategy",
          "type": "address"
        },
        {
          "indexed": false,
          "internalType": "uint256",
          "name": "cap",
          "type": "uint256"
        }
      ],
      "name": "StrategyRegistered",
      "type": "event"
    },
    {
      "inputs": [],
      "name": "asset",
      "outputs": [
        {
          "internalType": "address",
          "name": "",
          "type": "address"
        }
      ],
      "stateMutability": "view",
      "type": "function"
    },
    {
      "inputs": [
        {
          "internalType": "uint256",
          "name": "_strategyId",
          "type": "uint256"
        }
      ],
      "name": "availableCapacity",
      "outputs": [
        {
          "internalType": "uint256",
          "name": "",
          "type": "uint256"
        }
      ],
      "stateMutability": "view",
      "type": "function"
    },
    {
      "inputs": [],
      "name": "configManager",
      "outputs": [
        {
          "internalType": "address",
          "name": "",
          "type": "address"
        }
      ],
      "stateMutability": "view",
      "type": "function"
    },
    {
      "inputs": [
        {
          "internalType": "uint256",
          "name": "_strategyId",
          "type": "uint256"
        },
        {
          "internalType": "uint256",
          "name": "_amount",
          "type": "uint256"
        }
      ],
      "name": "depositToStrategy",
      "outputs": [
        {
          "internalType": "uint256",
          "name": "",
          "type": "uint256"
        }
      ],
      "stateMutability": "nonpayable",
      "type": "function"
    },
    {
      "inputs": [
        {
          "internalType": "uint256",
          "name": "_strategyId",
          "type": "uint256"
        }
      ],
      "name": "getStrategy",
      "outputs": [
        {
          "internalType": "address",
          "name": "strategy",
          "type": "address"
        },
        {
          "internalType": "bool",
          "name": "active",
          "type": "bool"
        },
        {
          "internalType": "uint256",
          "name": "cap",
          "type": "uint256"
        },
        {
          "internalType": "uint256",
          "name": "allocated",
          "type": "uint256"
        }
      ],
      "stateMutability": "view",
      "type": "function"
    },
    {
      "inputs": [],
      "name": "getTotalAllocated",
      "outputs": [
        {
          "internalType": "uint256",
          "name": "",
          "type": "uint256"
        }
      ],
      "stateMutability": "view",
      "type": "function"
    },
    {
      "inputs": [],
      "name": "getTotalStrategies",
      "outputs": [
        {
          "internalType": "uint256",
          "name": "",
          "type": "uint256"
        }
      ],
      "stateMutability": "view",
      "type": "function"
    },
    {
      "inputs": [
        {
          "internalType": "address",
          "name": "_user",
          "type": "address"
        },
        {
          "internalType": "uint256",
          "name": "_strategyId",
          "type": "uint256"
        }
      ],
      "name": "getUserStrategyAllocation",
      "outputs": [
        {
          "internalType": "uint256",
          "name": "",
          "type": "uint256"
        }
      ],
      "stateMutability": "view",
      "type": "function"
    },
    {
      "inputs": [
        {
          "internalType": "address",
          "name": "_user",
          "type": "address"
        }
      ],
      "name": "getUserTotalAllocated",
      "outputs": [
        {
          "internalType": "uint256",
          "name": "",
          "type": "uint256"
        }
      ],
      "stateMutability": "view",
      "type": "function"
    },
    {
      "inputs": [
        {
          "internalType": "uint256",
          "name": "_strategyId",
          "type": "uint256"
        }
      ],
      "name": "isStrategyActive",
      "outputs": [
        {
          "internalType": "bool",
          "name": "",
          "type": "bool"
        }
      ],
      "stateMutability": "view",
      "type": "function"
    },
    {
      "inputs": [],
      "name": "owner",
      "outputs": [
        {
          "internalType": "address",
          "name": "",
          "type": "address"
        }
      ],
      "stateMutability": "view",
      "type": "function"
    },
    {
      "inputs": [
        {
          "internalType": "uint256",
          "name": "_strategyId",
          "type": "uint256"
        },
        {
          "internalType": "address",
          "name": "_strategy",
          "type": "address"
        },
        {
          "internalType": "uint256",
          "name": "_cap",
          "type": "uint256"
        }
      ],
      "name": "registerStrategy",
      "outputs": [],
      "stateMutability": "nonpayable",
      "type": "function"
    },
    {
      "inputs": [
        {
          "internalType": "uint256",
          "name": "_strategyId",
          "type": "uint256"
        },
        {
          "internalType": "bool",
          "name": "_active",
          "type": "bool"
        }
      ],
      "name": "setStrategyActive",
      "outputs": [],
      "stateMutability": "nonpayable",
      "type": "function"
    },
    {
      "inputs": [
        {
          "internalType": "uint256",
          "name": "_strategyId",
          "type": "uint256"
        },
        {
          "internalType": "uint256",
          "name": "_newCap",
          "type": "uint256"
        }
      ],
      "name": "setStrategyCap",
      "outputs": [],
      "stateMutability": "nonpayable",
      "type": "function"
    },
    {
      "inputs": [
        {
          "internalType": "uint256",
          "name": "",
          "type": "uint256"
        }
      ],
      "name": "strategies",
      "outputs": [
        {
          "internalType": "address",
          "name": "",
          "type": "address"
        }
      ],
      "stateMutability": "view",
      "type": "function"
    },
    {
      "inputs": [
        {
          "internalType": "uint256",
          "name": "",
          "type": "uint256"
        }
      ],
      "name": "strategyActive",
      "outputs": [
        {
          "internalType": "bool",
          "name": "",
          "type": "bool"
        }
      ],
      "stateMutability": "view",
      "type": "function"
    },
    {
      "inputs": [
        {
          "internalType": "uint256",
          "name": "",
          "type": "uint256"
        }
      ],
      "name": "strategyAllocated",
      "outputs": [
        {
          "internalType": "uint256",
          "name": "",
          "type": "uint256"
        }
      ],
      "stateMutability": "view",
      "type": "function"
    },
    {
      "inputs": [
        {
          "internalType": "uint256",
          "name": "",
          "type": "uint256"
        }
      ],
      "name": "strategyCap",
      "outputs": [
        {
          "internalType": "uint256",
          "name": "",
          "type": "uint256"
        }
      ],
      "stateMutability": "view",
      "type": "function"
    },
    {
      "inputs": [
        {
          "internalType": "address",
          "name": "",
          "type": "address"
        }
      ],
      "name": "strategyId",
      "outputs": [
        {
          "internalType": "uint256",
          "name": "",
          "type": "uint256"
        }
      ],
      "stateMutability": "view",
      "type": "function"
    },
    {
      "inputs": [
        {
          "internalType": "uint256",
          "name": "",
          "type": "uint256"
        }
      ],
      "name": "strategyPaused",
      "outputs": [
        {
          "internalType": "bool",
          "name": "",
          "type": "bool"
        }
      ],
      "stateMutability": "view",
      "type": "function"
    },
    {
      "inputs": [],
      "name": "totalAssets",
      "outputs": [
        {
          "internalType": "uint256",
          "name": "",
          "type": "uint256"
        }
      ],
      "stateMutability": "view",
      "type": "function"
    },
    {
      "inputs": [],
      "name": "totalStrategies",
      "outputs": [
        {
          "internalType": "uint256",
          "name": "",
          "type": "uint256"
        }
      ],
      "stateMutability": "view",
      "type": "function"
    },
    {
      "inputs": [
        {
          "internalType": "address",
          "name": "",
          "type": "address"
        },
        {
          "internalType": "uint256",
          "name": "",
          "type": "uint256"
        }
      ],
      "name": "userStrategyAllocations",
      "outputs": [
        {
          "internalType": "uint256",
          "name": "",
          "type": "uint256"
        }
      ],
      "stateMutability": "view",
      "type": "function"
    },
    {
      "inputs": [
        {
          "internalType": "address",
          "name": "_user",
          "type": "address"
        }
      ],
      "name": "userTotalAssets",
      "outputs": [
        {
          "internalType": "uint256",
          "name": "",
          "type": "uint256"
        }
      ],
      "stateMutability": "view",
      "type": "function"
    },
    {
      "inputs": [
        {
          "internalType": "uint256",
          "name": "_strategyId",
          "type": "uint256"
        },
        {
          "internalType": "uint256",
          "name": "_amount",
          "type": "uint256"
        },
        {
          "internalType": "uint256",
          "name": "_maxSlippageBps",
          "type": "uint256"
        }
      ],
      "name": "withdrawFromStrategy",
      "outputs": [
        {
          "internalType": "uint256",
          "name": "",
          "type": "uint256"
        }
      ],
      "stateMutability": "nonpayable",
      "type": "function"
    }
  ],
  "bytecode": "0x60a06040523480156200001157600080fd5b50604051620031df380380620031df833981810160405281019062000037919062000234565b600073ffffffffffffffffffffffffffffffffffffffff168273ffffffffffffffffffffffffffffffffffffffff16036200009e576040517fb9ccadf400000000000000000000000000000000000000000000000000000000815260040160405180910390fd5b600073ffffffffffffffffffffffffffffffffffffffff168173ffffffffffffffffffffffffffffffffffffffff160362000105576040517fb9ccadf400000000000000000000000000000000000000000000000000000000815260040160405180910390fd5b8173ffffffffffffffffffffffffffffffffffffffff1660808173ffffffffffffffffffffffffffffffffffffffff1681525050336000806101000a81548173ffffffffffffffffffffffffffffffffffffffff021916908373ffffffffffffffffffffffffffffffffffffffff16021790555080600160006101000a81548173ffffffffffffffffffffffffffffffffffffffff021916908373ffffffffffffffffffffffffffffffffffffffff160217905550600060068190555050506200027b565b600080fd5b600073ffffffffffffffffffffffffffffffffffffffff82169050919050565b6000620001fc82620001cf565b9050919050565b6200020e81620001ef565b81146200021a57600080fd5b50565b6000815190506200022e8162000203565b92915050565b600080604083850312156200024e576200024d620001ca565b5b60006200025e858286016200021d565b925050602062000271858286016200021d565b9150509250929050565b608051612f3a620002a560003960008181610c8101528181611131015261199b0152612f3a6000f3fe608060405234801561001057600080fd5b50600436106101735760003560e01c806382299a5c116100de578063ca0ab07511610097578063d574ea3d11610071578063d574ea3d146104d7578063e3e9638a14610507578063e74c0d7614610537578063f96d7b801461055357610173565b8063ca0ab07514610456578063cf98ff5714610474578063cfc0cc34146104a457610173565b806382299a5c1461036c5780638da5cb5b1461038a578063902a9248146103a857806399fe7396146103d8578063b0656c39146103f6578063c40ce7311461042657610173565b806338d52e0f1161013057806338d52e0f146102865780634f8967b1146102a45780635b1fc7d8146102c05780635d88fac7146102dc5780636f1e73791461030c5780636fedb10c1461033c57610173565b806301e1d1141461017857806310835345146101965780631de9c11b146101c657806324fc8545146101f657806331b8ca8e1461022657806335b7efcb14610256575b600080fd5b610180610571565b60405161018d919061264f565b60405180910390f35b6101b060048036038101906101ab919061269b565b610871565b6040516101bd919061264f565b60405180910390f35b6101e060048036038101906101db919061274c565b610fe1565b6040516101ed919061264f565b60405180910390f35b610210600480360381019061020b919061278c565b611006565b60405161021d919061264f565b60405180910390f35b610240600480360381019061023b91906127b9565b61101e565b60405161024d919061264f565b60405180910390f35b610270600480360381019061026b91906127b9565b611117565b60405161027d919061264f565b60405180910390f35b61028e61112f565b60405161029b91906127f5565b60405180910390f35b6102be60048036038101906102b99190612810565b611153565b005b6102da60048036038101906102d59190612850565b611351565b005b6102f660048036038101906102f1919061274c565b6116fc565b604051610303919061264f565b60405180910390f35b6103266004803603810190610321919061278c565b611757565b604051610333919061264f565b60405180910390f35b6103566004803603810190610351919061278c565b611769565b60405161036391906128be565b60405180910390f35b610374611789565b604051610381919061264f565b60405180910390f35b610392611843565b60405161039f91906127f5565b60405180910390f35b6103c260048036038101906103bd919061278c565b611867565b6040516103cf91906128be565b60405180910390f35b6103e0611891565b6040516103ed919061264f565b60405180910390f35b610410600480360381019061040b9190612810565b61189b565b60405161041d919061264f565b60405180910390f35b610440600480360381019061043b919061278c565b611cd2565b60405161044d91906128be565b60405180910390f35b61045e611cf2565b60405161046b91906127f5565b60405180910390f35b61048e6004803603810190610489919061278c565b611d18565b60405161049b919061264f565b60405180910390f35b6104be60048036038101906104b9919061278c565b611d30565b6040516104ce94939291906128d9565b60405180910390f35b6104f160048036038101906104ec919061278c565b611dc2565b6040516104fe91906127f5565b60405180910390f35b610521600480360381019061051c91906127b9565b611df5565b60405161052e919061264f565b60405180910390f35b610551600480360381019061054c919061294a565b6121b0565b005b61055b612337565b604051610568919061264f565b60405180910390f35b600080600090506000600190505b600a81116108695760006002600083815260200190815260200160002060009054906101000a900473ffffffffffffffffffffffffffffffffffffffff169050600073ffffffffffffffffffffffffffffffffffffffff168173ffffffffffffffffffffffffffffffffffffffff161415801561061957506004600083815260200190815260200160002060009054906101000a900460ff165b15610855576000808273ffffffffffffffffffffffffffffffffffffffff166040516024016040516020818303038152906040527f5c975abb000000000000000000000000000000000000000000000000000000007bffffffffffffffffffffffffffffffffffffffffffffffffffffffff19166020820180517bffffffffffffffffffffffffffffffffffffffffffffffffffffffff83818316178352505050506040516106c891906129fb565b600060405180830381855afa9150503d8060008114610703576040519150601f19603f3d011682016040523d82523d6000602084013e610708565b606091505b50915091506000821561072c57818060200190518101906107299190612a27565b90505b80610851576000808573ffffffffffffffffffffffffffffffffffffffff166040516024016040516020818303038152906040527f01e1d114000000000000000000000000000000000000000000000000000000007bffffffffffffffffffffffffffffffffffffffffffffffffffffffff19166020820180517bffffffffffffffffffffffffffffffffffffffffffffffffffffffff83818316178352505050506040516107db91906129fb565b600060405180830381855afa9150503d8060008114610816576040519150601f19603f3d011682016040523d82523d6000602084013e61081b565b606091505b5091509150811561084e5760008180602001905181019061083c9190612a69565b9050808961084a9190612ac5565b9850505b50505b5050505b50808061086190612af9565b91505061057f565b508091505090565b600061087c8461233d565b61088584612430565b6005600085815260200190815260200160002060009054906101000a900460ff16156108dd576040517f437e56d800000000000000000000000000000000000000000000000000000000815260040160405180910390fd5b60008303610917576040517f0565956600000000000000000000000000000000000000000000000000000000815260040160405180910390fd5b60006002600086815260200190815260200160002060009054906101000a900473ffffffffffffffffffffffffffffffffffffffff1690506000808273ffffffffffffffffffffffffffffffffffffffff166040516024016040516020818303038152906040527f01e1d114000000000000000000000000000000000000000000000000000000007bffffffffffffffffffffffffffffffffffffffffffffffffffffffff19166020820180517bffffffffffffffffffffffffffffffffffffffffffffffffffffffff83818316178352505050506040516109f991906129fb565b600060405180830381855afa9150503d8060008114610a34576040519150601f19603f3d011682016040523d82523d6000602084013e610a39565b606091505b509150915081610a7e576040517f08c379a0000000000000000000000000000000000000000000000000000000008152600401610a7590612b9e565b60405180910390fd5b80806020019051810190610a929190612a69565b861115610acb576040517f5ee2579700000000000000000000000000000000000000000000000000000000815260040160405180910390fd5b8273ffffffffffffffffffffffffffffffffffffffff1686604051602401610af3919061264f565b6040516020818303038152906040527f48b19335000000000000000000000000000000000000000000000000000000007bffffffffffffffffffffffffffffffffffffffffffffffffffffffff19166020820180517bffffffffffffffffffffffffffffffffffffffffffffffffffffffff8381831617835250505050604051610b7d91906129fb565b6000604051808303816000865af19150503d8060008114610bba576040519150601f19603f3d011682016040523d82523d6000602084013e610bbf565b606091505b50508092505081610c05576040517f08c379a0000000000000000000000000000000000000000000000000000000008152600401610bfc90612c0a565b60405180910390fd5b6000869050600061271087612710610c1d9190612c2a565b89610c289190612c5e565b610c329190612ccf565b905080821015610c7d578782886040517f3f13d14f000000000000000000000000000000000000000000000000000000008152600401610c7493929190612d00565b60405180910390fd5b60007f000000000000000000000000000000000000000000000000000000000000000090508073ffffffffffffffffffffffffffffffffffffffff166370a08231306040518263ffffffff1660e01b8152600401610cdb91906127f5565b602060405180830381865afa158015610cf8573d6000803e3d6000fd5b505050506040513d601f19601f82011682018060405250810190610d1c9190612a69565b831115610d55576040517f5ee2579700000000000000000000000000000000000000000000000000000000815260040160405180910390fd5b6000600860008c81526020019081526020016000205490506000818511610da1578482610d829190612c2a565b905080600860008e815260200190815260200160002081905550610dbf565b600090506000600860008e8152602001908152602001600020819055505b6000600960003373ffffffffffffffffffffffffffffffffffffffff1673ffffffffffffffffffffffffffffffffffffffff16815260200190815260200160002060008e8152602001908152602001600020549050808611610e80578581610e279190612c2a565b600960003373ffffffffffffffffffffffffffffffffffffffff1673ffffffffffffffffffffffffffffffffffffffff16815260200190815260200160002060008f815260200190815260200160002081905550610ed7565b6000600960003373ffffffffffffffffffffffffffffffffffffffff1673ffffffffffffffffffffffffffffffffffffffff16815260200190815260200160002060008f8152602001908152602001600020819055505b8373ffffffffffffffffffffffffffffffffffffffff1663a9059cbb33886040518363ffffffff1660e01b8152600401610f12929190612d37565b6020604051808303816000875af1158015610f31573d6000803e3d6000fd5b505050506040513d601f19601f82011682018060405250810190610f559190612a27565b610f94576040517f08c379a0000000000000000000000000000000000000000000000000000000008152600401610f8b90612dac565b60405180910390fd5b8c7f1c0fe44985b0714eef17daed08f629189ea5cc70d436b00e4fbaabad790bdb9e8784604051610fc6929190612dcc565b60405180910390a28599505050505050505050509392505050565b6009602052816000526040600020602052806000526040600020600091509150505481565b60076020528060005260406000206000915090505481565b600080600090506000600190505b600a811161110d57600073ffffffffffffffffffffffffffffffffffffffff166002600083815260200190815260200160002060009054906101000a900473ffffffffffffffffffffffffffffffffffffffff1673ffffffffffffffffffffffffffffffffffffffff16146110fa57600960008573ffffffffffffffffffffffffffffffffffffffff1673ffffffffffffffffffffffffffffffffffffffff168152602001908152602001600020600082815260200190815260200160002054826110f79190612ac5565b91505b808061110590612af9565b91505061102c565b5080915050919050565b60036020528060005260406000206000915090505481565b7f000000000000000000000000000000000000000000000000000000000000000081565b60008054906101000a900473ffffffffffffffffffffffffffffffffffffffff1673ffffffffffffffffffffffffffffffffffffffff163373ffffffffffffffffffffffffffffffffffffffff16146111d8576040517fe0d68d2500000000000000000000000000000000000000000000000000000000815260040160405180910390fd5b81600073ffffffffffffffffffffffffffffffffffffffff166002600083815260200190815260200160002060009054906101000a900473ffffffffffffffffffffffffffffffffffffffff1673ffffffffffffffffffffffffffffffffffffffff1603611272576040517f6c27b64600000000000000000000000000000000000000000000000000000000815260040160405180910390fd5b60086000848152602001908152602001600020548210156112e157828260086000868152602001908152602001600020546040517f394caa010000000000000000000000000000000000000000000000000000000081526004016112d893929190612d00565b60405180910390fd5b600060076000858152602001908152602001600020549050826007600086815260200190815260200160002081905550837f71ff770a48ee23b65f24eb08b58b6d618fd146ae4d10bc5b92800e88d788e4838285604051611343929190612dcc565b60405180910390a250505050565b60008054906101000a900473ffffffffffffffffffffffffffffffffffffffff1673ffffffffffffffffffffffffffffffffffffffff163373ffffffffffffffffffffffffffffffffffffffff16146113d6576040517fe0d68d2500000000000000000000000000000000000000000000000000000000815260040160405180910390fd5b600073ffffffffffffffffffffffffffffffffffffffff168273ffffffffffffffffffffffffffffffffffffffff160361143c576040517fb9ccadf400000000000000000000000000000000000000000000000000000000815260040160405180910390fd5b600073ffffffffffffffffffffffffffffffffffffffff166002600085815260200190815260200160002060009054906101000a900473ffffffffffffffffffffffffffffffffffffffff1673ffffffffffffffffffffffffffffffffffffffff16146114d5576040517f15752b8e00000000000000000000000000000000000000000000000000000000815260040160405180910390fd5b6000600360008473ffffffffffffffffffffffffffffffffffffffff1673ffffffffffffffffffffffffffffffffffffffff168152602001908152602001600020541461154e576040517f15752b8e00000000000000000000000000000000000000000000000000000000815260040160405180910390fd5b600083148061155d5750600a83115b15611594576040517f6c27b64600000000000000000000000000000000000000000000000000000000815260040160405180910390fd5b816002600085815260200190815260200160002060006101000a81548173ffffffffffffffffffffffffffffffffffffffff021916908373ffffffffffffffffffffffffffffffffffffffff16021790555082600360008473ffffffffffffffffffffffffffffffffffffffff1673ffffffffffffffffffffffffffffffffffffffff1681526020019081526020016000208190555080600760008581526020019081526020016000208190555060016004600085815260200190815260200160002060006101000a81548160ff0219169083151502179055506000600860008581526020019081526020016000208190555061169083612430565b600660008154809291906116a390612af9565b91905055508173ffffffffffffffffffffffffffffffffffffffff16837f8db5cdd6fa274c09a73a6b8b4560d9c6fa3f7b91709418a3e5bda40fc32ba731836040516116ef919061264f565b60405180910390a3505050565b6000600960008473ffffffffffffffffffffffffffffffffffffffff1673ffffffffffffffffffffffffffffffffffffffff168152602001908152602001600020600083815260200190815260200160002054905092915050565b6000611762826125dd565b9050919050565b60056020528060005260406000206000915054906101000a900460ff1681565b600080600090506000600190505b600a811161183b57600073ffffffffffffffffffffffffffffffffffffffff166002600083815260200190815260200160002060009054906101000a900473ffffffffffffffffffffffffffffffffffffffff1673ffffffffffffffffffffffffffffffffffffffff1614611828576008600082815260200190815260200160002054826118259190612ac5565b91505b808061183390612af9565b915050611797565b508091505090565b60008054906101000a900473ffffffffffffffffffffffffffffffffffffffff1681565b60006004600083815260200190815260200160002060009054906101000a900460ff169050919050565b6000600654905090565b60006118a68361233d565b6118af83612430565b6005600084815260200190815260200160002060009054906101000a900460ff1615611907576040517f437e56d800000000000000000000000000000000000000000000000000000000815260040160405180910390fd5b60008203611941576040517f0565956600000000000000000000000000000000000000000000000000000000815260040160405180910390fd5b600061194c846125dd565b905080831115611997578383826040517f394caa0100000000000000000000000000000000000000000000000000000000815260040161198e93929190612d00565b60405180910390fd5b60007f000000000000000000000000000000000000000000000000000000000000000090508073ffffffffffffffffffffffffffffffffffffffff166323b872dd3330876040518463ffffffff1660e01b81526004016119f993929190612df5565b6020604051808303816000875af1158015611a18573d6000803e3d6000fd5b505050506040513d601f19601f82011682018060405250810190611a3c9190612a27565b611a7b576040517f08c379a0000000000000000000000000000000000000000000000000000000008152600401611a7290612e78565b60405180910390fd5b60006002600087815260200190815260200160002060009054906101000a900473ffffffffffffffffffffffffffffffffffffffff1673ffffffffffffffffffffffffffffffffffffffff1685604051602401611ad8919061264f565b6040516020818303038152906040527fd33b0aa7000000000000000000000000000000000000000000000000000000007bffffffffffffffffffffffffffffffffffffffffffffffffffffffff19166020820180517bffffffffffffffffffffffffffffffffffffffffffffffffffffffff8381831617835250505050604051611b6291906129fb565b6000604051808303816000865af19150503d8060008114611b9f576040519150601f19603f3d011682016040523d82523d6000602084013e611ba4565b606091505b5050905080611be8576040517f08c379a0000000000000000000000000000000000000000000000000000000008152600401611bdf90612ee4565b60405180910390fd5b84600860008881526020019081526020016000206000828254611c0b9190612ac5565b9250508190555084600960003373ffffffffffffffffffffffffffffffffffffffff1673ffffffffffffffffffffffffffffffffffffffff16815260200190815260200160002060008881526020019081526020016000206000828254611c729190612ac5565b92505081905550857ffd4994c53f4c013d53ace40a5259fee4aa6e133a11700477d16a4fe1e8cd4fa486600860008a815260200190815260200160002054604051611cbe929190612dcc565b60405180910390a284935050505092915050565b60046020528060005260406000206000915054906101000a900460ff1681565b600160009054906101000a900473ffffffffffffffffffffffffffffffffffffffff1681565b60086020528060005260406000206000915090505481565b6000806000806002600086815260200190815260200160002060009054906101000a900473ffffffffffffffffffffffffffffffffffffffff1693506004600086815260200190815260200160002060009054906101000a900460ff16925060076000868152602001908152602001600020549150600860008681526020019081526020016000205490509193509193565b60026020528060005260406000206000915054906101000a900473ffffffffffffffffffffffffffffffffffffffff1681565b600080600090506000600190505b600a81116121a65760006002600083815260200190815260200160002060009054906101000a900473ffffffffffffffffffffffffffffffffffffffff169050600073ffffffffffffffffffffffffffffffffffffffff168173ffffffffffffffffffffffffffffffffffffffff161480611e9c57506004600083815260200190815260200160002060009054906101000a900460ff16155b15611ea75750612193565b60006008600084815260200190815260200160002054905060008103611ece575050612193565b6000600960008873ffffffffffffffffffffffffffffffffffffffff1673ffffffffffffffffffffffffffffffffffffffff168152602001908152602001600020600085815260200190815260200160002054905060008103611f3357505050612193565b6000808473ffffffffffffffffffffffffffffffffffffffff166040516024016040516020818303038152906040527f5c975abb000000000000000000000000000000000000000000000000000000007bffffffffffffffffffffffffffffffffffffffffffffffffffffffff19166020820180517bffffffffffffffffffffffffffffffffffffffffffffffffffffffff8381831617835250505050604051611fdd91906129fb565b600060405180830381855afa9150503d8060008114612018576040519150601f19603f3d011682016040523d82523d6000602084013e61201d565b606091505b509150915081801561203f57508080602001905181019061203e9190612a27565b5b1561204e575050505050612193565b6000808673ffffffffffffffffffffffffffffffffffffffff166040516024016040516020818303038152906040527f01e1d114000000000000000000000000000000000000000000000000000000007bffffffffffffffffffffffffffffffffffffffffffffffffffffffff19166020820180517bffffffffffffffffffffffffffffffffffffffffffffffffffffffff83818316178352505050506040516120f891906129fb565b600060405180830381855afa9150503d8060008114612133576040519150601f19603f3d011682016040523d82523d6000602084013e612138565b606091505b50915091508161214e5750505050505050612193565b6000818060200190518101906121649190612a69565b90508686826121739190612c5e565b61217d9190612ccf565b8a6121889190612ac5565b995050505050505050505b808061219e90612af9565b915050611e03565b5080915050919050565b60008054906101000a900473ffffffffffffffffffffffffffffffffffffffff1673ffffffffffffffffffffffffffffffffffffffff163373ffffffffffffffffffffffffffffffffffffffff1614612235576040517fe0d68d2500000000000000000000000000000000000000000000000000000000815260040160405180910390fd5b81600073ffffffffffffffffffffffffffffffffffffffff166002600083815260200190815260200160002060009054906101000a900473ffffffffffffffffffffffffffffffffffffffff1673ffffffffffffffffffffffffffffffffffffffff16036122cf576040517f6c27b64600000000000000000000000000000000000000000000000000000000815260040160405180910390fd5b816004600085815260200190815260200160002060006101000a81548160ff021916908315150217905550827f21f8687bb3037314db2b40a72174abdab95df4c003eef36cf35f9fea657d89348360405161232a91906128be565b60405180910390a2505050565b60065481565b600073ffffffffffffffffffffffffffffffffffffffff166002600083815260200190815260200160002060009054906101000a900473ffffffffffffffffffffffffffffffffffffffff1673ffffffffffffffffffffffffffffffffffffffff16036123d6576040517f6c27b64600000000000000000000000000000000000000000000000000000000815260040160405180910390fd5b6004600082815260200190815260200160002060009054906101000a900460ff1661242d576040517f25f3596600000000000000000000000000000000000000000000000000000000815260040160405180910390fd5b50565b60006002600083815260200190815260200160002060009054906101000a900473ffffffffffffffffffffffffffffffffffffffff169050600073ffffffffffffffffffffffffffffffffffffffff168173ffffffffffffffffffffffffffffffffffffffff16036124a257506125da565b6000808273ffffffffffffffffffffffffffffffffffffffff166040516024016040516020818303038152906040527f5c975abb000000000000000000000000000000000000000000000000000000007bffffffffffffffffffffffffffffffffffffffffffffffffffffffff19166020820180517bffffffffffffffffffffffffffffffffffffffffffffffffffffffff838183161783525050505060405161254c91906129fb565b600060405180830381855afa9150503d8060008114612587576040519150601f19603f3d011682016040523d82523d6000602084013e61258c565b606091505b509150915081156125d657808060200190518101906125ab9190612a27565b6005600086815260200190815260200160002060006101000a81548160ff0219169083151502179055505b5050505b50565b6000806007600084815260200190815260200160002054905060006008600085815260200190815260200160002054905080821161262057600092505050612631565b808261262c9190612c2a565b925050505b919050565b6000819050919050565b61264981612636565b82525050565b60006020820190506126646000830184612640565b92915050565b600080fd5b61267881612636565b811461268357600080fd5b50565b6000813590506126958161266f565b92915050565b6000806000606084860312156126b4576126b361266a565b5b60006126c286828701612686565b93505060206126d386828701612686565b92505060406126e486828701612686565b9150509250925092565b600073ffffffffffffffffffffffffffffffffffffffff82169050919050565b6000612719826126ee565b9050919050565b6127298161270e565b811461273457600080fd5b50565b60008135905061274681612720565b92915050565b600080604083850312156127635761276261266a565b5b600061277185828601612737565b925050602061278285828601612686565b9150509250929050565b6000602082840312156127a2576127a161266a565b5b60006127b084828501612686565b91505092915050565b6000602082840312156127cf576127ce61266a565b5b60006127dd84828501612737565b91505092915050565b6127ef8161270e565b82525050565b600060208201905061280a60008301846127e6565b92915050565b600080604083850312156128275761282661266a565b5b600061283585828601612686565b925050602061284685828601612686565b9150509250929050565b6000806000606084860312156128695761286861266a565b5b600061287786828701612686565b935050602061288886828701612737565b925050604061289986828701612686565b9150509250925092565b60008115159050919050565b6128b8816128a3565b82525050565b60006020820190506128d360008301846128af565b92915050565b60006080820190506128ee60008301876127e6565b6128fb60208301866128af565b6129086040830185612640565b6129156060830184612640565b95945050505050565b612927816128a3565b811461293257600080fd5b50565b6000813590506129448161291e565b92915050565b600080604083850312156129615761296061266a565b5b600061296f85828601612686565b925050602061298085828601612935565b9150509250929050565b600081519050919050565b600081905092915050565b60005b838110156129be5780820151818401526020810190506129a3565b60008484015250505050565b60006129d58261298a565b6129df8185612995565b93506129ef8185602086016129a0565b80840191505092915050565b6000612a0782846129ca565b915081905092915050565b600081519050612a218161291e565b92915050565b600060208284031215612a3d57612a3c61266a565b5b6000612a4b84828501612a12565b91505092915050565b600081519050612a638161266f565b92915050565b600060208284031215612a7f57612a7e61266a565b5b6000612a8d84828501612a54565b91505092915050565b7f4e487b7100000000000000000000000000000000000000000000000000000000600052601160045260246000fd5b6000612ad082612636565b9150612adb83612636565b9250828201905080821115612af357612af2612a96565b5b92915050565b6000612b0482612636565b91507fffffffffffffffffffffffffffffffffffffffffffffffffffffffffffffffff8203612b3657612b35612a96565b5b600182019050919050565b600082825260208201905092915050565b7f537472617465677920746f74616c4173736574732063616c6c206661696c6564600082015250565b6000612b88602083612b41565b9150612b9382612b52565b602082019050919050565b60006020820190508181036000830152612bb781612b7b565b9050919050565b7f5374726174656779207769746864726177616c206661696c6564000000000000600082015250565b6000612bf4601a83612b41565b9150612bff82612bbe565b602082019050919050565b60006020820190508181036000830152612c2381612be7565b9050919050565b6000612c3582612636565b9150612c4083612636565b9250828203905081811115612c5857612c57612a96565b5b92915050565b6000612c6982612636565b9150612c7483612636565b9250828202612c8281612636565b91508282048414831517612c9957612c98612a96565b5b5092915050565b7f4e487b7100000000000000000000000000000000000000000000000000000000600052601260045260246000fd5b6000612cda82612636565b9150612ce583612636565b925082612cf557612cf4612ca0565b5b828204905092915050565b6000606082019050612d156000830186612640565b612d226020830185612640565b612d2f6040830184612640565b949350505050565b6000604082019050612d4c60008301856127e6565b612d596020830184612640565b9392505050565b7f5472616e7366657220746f2073656e646572206661696c656400000000000000600082015250565b6000612d96601983612b41565b9150612da182612d60565b602082019050919050565b60006020820190508181036000830152612dc581612d89565b9050919050565b6000604082019050612de16000830185612640565b612dee6020830184612640565b9392505050565b6000606082019050612e0a60008301866127e6565b612e1760208301856127e6565b612e246040830184612640565b949350505050565b7f5472616e73666572206661696c65640000000000000000000000000000000000600082015250565b6000612e62600f83612b41565b9150612e6d82612e2c565b602082019050919050565b60006020820190508181036000830152612e9181612e55565b9050919050565b7f5374726174656779206465706f736974206661696c6564000000000000000000600082015250565b6000612ece601783612b41565b9150612ed982612e98565b602082019050919050565b60006020820190508181036000830152612efd81612ec1565b905091905056fea26469706673582212200cf3923808d2a7c5bea690e692e1ebc096b026793a6c6240f9fc38624839c6ac64736f6c63430008130033",
  "linkReferences": {},
  "deployedLinkReferences": {}
}