{
  "_format": "hh-sol-artifact-1",
  "contractName": "StrategyRouter",
  "sourceName": "contracts/StrategyRouter.sol",
  "abi": [
    {
      "inputs": [
        {
          "internalType": "address",
          "name": "_asset",
          "type": "address"
        },
        {
          "internalType": "address",
          "name": "_configManager",
          "type": "address"
        }
      ],
      "stateMutability": "nonpayable",
      "type": "constructor"
    },
    {
      "inputs": [
        {
          "internalType": "uint256",
          "name": "strategyId",
          "type": "uint256"
        },
        {
          "internalType": "uint256",
          "name": "requested",
          "type": "uint256"
        },
        {
          "internalType": "uint256",
          "name": "available",
          "type": "uint256"
        }
      ],
      "name": "StrategyRouter__CapExceeded",
      "type": "error"
    },
    {
      "inputs": [],
      "name": "StrategyRouter__InsufficientLiquidity",
      "type": "error"
    },
    {
      "inputs": [],
      "name": "StrategyRouter__InvalidAmount",
      "type": "error"
    },
    {
      "inputs": [],
      "name": "StrategyRouter__InvalidStrategyAddress",
      "type": "error"
    },
    {
      "inputs": [],
      "name": "StrategyRouter__NotOwner",
      "type": "error"
    },
    {
      "inputs": [
        {
          "internalType": "uint256",
          "name": "expected",
          "type": "uint256"
        },
        {
          "internalType": "uint256",
          "name": "actual",
          "type": "uint256"
        },
        {
          "internalType": "uint256",
          "name": "maxSlippageBps",
          "type": "uint256"
        }
      ],
      "name": "StrategyRouter__SlippageExceeded",
      "type": "error"
    },
    {
      "inputs": [],
      "name": "StrategyRouter__StrategyAlreadyRegistered",
      "type": "error"
    },
    {
      "inputs": [],
      "name": "StrategyRouter__StrategyNotActive",
      "type": "error"
    },
    {
      "inputs": [],
      "name": "StrategyRouter__StrategyNotRegistered",
      "type": "error"
    },
    {
      "inputs": [],
      "name": "StrategyRouter__StrategyPaused",
      "type": "error"
    },
    {
      "anonymous": false,
      "inputs": [
        {
          "indexed": true,
          "internalType": "uint256",
          "name": "strategyId",
          "type": "uint256"
        },
        {
          "indexed": false,
          "internalType": "uint256",
          "name": "amount",
          "type": "uint256"
        },
        {
          "indexed": false,
          "internalType": "uint256",
          "name": "totalAllocated",
          "type": "uint256"
        }
      ],
      "name": "CapitalDeposited",
      "type": "event"
    },
    {
      "anonymous": false,
      "inputs": [
        {
          "indexed": true,
          "internalType": "uint256",
          "name": "strategyId",
          "type": "uint256"
        },
        {
          "indexed": false,
          "internalType": "uint256",
          "name": "amount",
          "type": "uint256"
        },
        {
          "indexed": false,
          "internalType": "uint256",
          "name": "totalAllocated",
          "type": "uint256"
        }
      ],
      "name": "CapitalWithdrawn",
      "type": "event"
    },
    {
      "anonymous": false,
      "inputs": [
        {
          "indexed": true,
          "internalType": "uint256",
          "name": "strategyId",
          "type": "uint256"
        },
        {
          "indexed": false,
          "internalType": "bool",
          "name": "active",
          "type": "bool"
        }
      ],
      "name": "StrategyActivated",
      "type": "event"
    },
    {
      "anonymous": false,
      "inputs": [
        {
          "indexed": true,
          "internalType": "uint256",
          "name": "strategyId",
          "type": "uint256"
        },
        {
          "indexed": false,
          "internalType": "uint256",
          "name": "oldCap",
          "type": "uint256"
        },
        {
          "indexed": false,
          "internalType": "uint256",
          "name": "newCap",
          "type": "uint256"
        }
      ],
      "name": "StrategyCapUpdated",
      "type": "event"
    },
    {
      "anonymous": false,
      "inputs": [
        {
          "indexed": true,
          "internalType": "uint256",
          "name": "strategyId",
          "type": "uint256"
        },
        {
          "indexed": true,
          "internalType": "address",
          "name": "strategy",
          "type": "address"
        },
        {
          "indexed": false,
          "internalType": "uint256",
          "name": "cap",
          "type": "uint256"
        }
      ],
      "name": "StrategyRegistered",
      "type": "event"
    },
    {
      "inputs": [],
      "name": "asset",
      "outputs": [
        {
          "internalType": "address",
          "name": "",
          "type": "address"
        }
      ],
      "stateMutability": "view",
      "type": "function"
    },
    {
      "inputs": [
        {
          "internalType": "uint256",
          "name": "_strategyId",
          "type": "uint256"
        }
      ],
      "name": "availableCapacity",
      "outputs": [
        {
          "internalType": "uint256",
          "name": "",
          "type": "uint256"
        }
      ],
      "stateMutability": "view",
      "type": "function"
    },
    {
      "inputs": [],
      "name": "configManager",
      "outputs": [
        {
          "internalType": "address",
          "name": "",
          "type": "address"
        }
      ],
      "stateMutability": "view",
      "type": "function"
    },
    {
      "inputs": [
        {
          "internalType": "uint256",
          "name": "_strategyId",
          "type": "uint256"
        },
        {
          "internalType": "uint256",
          "name": "_amount",
          "type": "uint256"
        }
      ],
      "name": "depositToStrategy",
      "outputs": [
        {
          "internalType": "uint256",
          "name": "",
          "type": "uint256"
        }
      ],
      "stateMutability": "nonpayable",
      "type": "function"
    },
    {
      "inputs": [
        {
          "internalType": "uint256",
          "name": "_strategyId",
          "type": "uint256"
        }
      ],
      "name": "getStrategy",
      "outputs": [
        {
          "internalType": "address",
          "name": "strategy",
          "type": "address"
        },
        {
          "internalType": "bool",
          "name": "active",
          "type": "bool"
        },
        {
          "internalType": "uint256",
          "name": "cap",
          "type": "uint256"
        },
        {
          "internalType": "uint256",
          "name": "allocated",
          "type": "uint256"
        }
      ],
      "stateMutability": "view",
      "type": "function"
    },
    {
      "inputs": [],
      "name": "getTotalAllocated",
      "outputs": [
        {
          "internalType": "uint256",
          "name": "",
          "type": "uint256"
        }
      ],
      "stateMutability": "view",
      "type": "function"
    },
    {
      "inputs": [],
      "name": "getTotalStrategies",
      "outputs": [
        {
          "internalType": "uint256",
          "name": "",
          "type": "uint256"
        }
      ],
      "stateMutability": "view",
      "type": "function"
    },
    {
      "inputs": [
        {
          "internalType": "address",
          "name": "_user",
          "type": "address"
        },
        {
          "internalType": "uint256",
          "name": "_strategyId",
          "type": "uint256"
        }
      ],
      "name": "getUserStrategyAllocation",
      "outputs": [
        {
          "internalType": "uint256",
          "name": "",
          "type": "uint256"
        }
      ],
      "stateMutability": "view",
      "type": "function"
    },
    {
      "inputs": [
        {
          "internalType": "address",
          "name": "_user",
          "type": "address"
        }
      ],
      "name": "getUserTotalAllocated",
      "outputs": [
        {
          "internalType": "uint256",
          "name": "",
          "type": "uint256"
        }
      ],
      "stateMutability": "view",
      "type": "function"
    },
    {
      "inputs": [
        {
          "internalType": "uint256",
          "name": "_strategyId",
          "type": "uint256"
        }
      ],
      "name": "isStrategyActive",
      "outputs": [
        {
          "internalType": "bool",
          "name": "",
          "type": "bool"
        }
      ],
      "stateMutability": "view",
      "type": "function"
    },
    {
      "inputs": [],
      "name": "owner",
      "outputs": [
        {
          "internalType": "address",
          "name": "",
          "type": "address"
        }
      ],
      "stateMutability": "view",
      "type": "function"
    },
    {
      "inputs": [
        {
          "internalType": "uint256",
          "name": "_strategyId",
          "type": "uint256"
        },
        {
          "internalType": "address",
          "name": "_strategy",
          "type": "address"
        },
        {
          "internalType": "uint256",
          "name": "_cap",
          "type": "uint256"
        }
      ],
      "name": "registerStrategy",
      "outputs": [],
      "stateMutability": "nonpayable",
      "type": "function"
    },
    {
      "inputs": [
        {
          "internalType": "uint256",
          "name": "_strategyId",
          "type": "uint256"
        },
        {
          "internalType": "bool",
          "name": "_active",
          "type": "bool"
        }
      ],
      "name": "setStrategyActive",
      "outputs": [],
      "stateMutability": "nonpayable",
      "type": "function"
    },
    {
      "inputs": [
        {
          "internalType": "uint256",
          "name": "_strategyId",
          "type": "uint256"
        },
        {
          "internalType": "uint256",
          "name": "_newCap",
          "type": "uint256"
        }
      ],
      "name": "setStrategyCap",
      "outputs": [],
      "stateMutability": "nonpayable",
      "type": "function"
    },
    {
      "inputs": [
        {
          "internalType": "uint256",
          "name": "",
          "type": "uint256"
        }
      ],
      "name": "strategies",
      "outputs": [
        {
          "internalType": "address",
          "name": "",
          "type": "address"
        }
      ],
      "stateMutability": "view",
      "type": "function"
    },
    {
      "inputs": [
        {
          "internalType": "uint256",
          "name": "",
          "type": "uint256"
        }
      ],
      "name": "strategyActive",
      "outputs": [
        {
          "internalType": "bool",
          "name": "",
          "type": "bool"
        }
      ],
      "stateMutability": "view",
      "type": "function"
    },
    {
      "inputs": [
        {
          "internalType": "uint256",
          "name": "",
          "type": "uint256"
        }
      ],
      "name": "strategyAllocated",
      "outputs": [
        {
          "internalType": "uint256",
          "name": "",
          "type": "uint256"
        }
      ],
      "stateMutability": "view",
      "type": "function"
    },
    {
      "inputs": [
        {
          "internalType": "uint256",
          "name": "",
          "type": "uint256"
        }
      ],
      "name": "strategyCap",
      "outputs": [
        {
          "internalType": "uint256",
          "name": "",
          "type": "uint256"
        }
      ],
      "stateMutability": "view",
      "type": "function"
    },
    {
      "inputs": [
        {
          "internalType": "address",
          "name": "",
          "type": "address"
        }
      ],
      "name": "strategyId",
      "outputs": [
        {
          "internalType": "uint256",
          "name": "",
          "type": "uint256"
        }
      ],
      "stateMutability": "view",
      "type": "function"
    },
    {
      "inputs": [
        {
          "internalType": "uint256",
          "name": "",
          "type": "uint256"
        }
      ],
      "name": "strategyPaused",
      "outputs": [
        {
          "internalType": "bool",
          "name": "",
          "type": "bool"
        }
      ],
      "stateMutability": "view",
      "type": "function"
    },
    {
      "inputs": [],
      "name": "totalAssets",
      "outputs": [
        {
          "internalType": "uint256",
          "name": "",
          "type": "uint256"
        }
      ],
      "stateMutability": "view",
      "type": "function"
    },
    {
      "inputs": [],
      "name": "totalStrategies",
      "outputs": [
        {
          "internalType": "uint256",
          "name": "",
          "type": "uint256"
        }
      ],
      "stateMutability": "view",
      "type": "function"
    },
    {
      "inputs": [
        {
          "internalType": "address",
          "name": "",
          "type": "address"
        },
        {
          "internalType": "uint256",
          "name": "",
          "type": "uint256"
        }
      ],
      "name": "userStrategyAllocations",
      "outputs": [
        {
          "internalType": "uint256",
          "name": "",
          "type": "uint256"
        }
      ],
      "stateMutability": "view",
      "type": "function"
    },
    {
      "inputs": [
        {
          "internalType": "uint256",
          "name": "_strategyId",
          "type": "uint256"
        },
        {
          "internalType": "uint256",
          "name": "_amount",
          "type": "uint256"
        },
        {
          "internalType": "uint256",
          "name": "_maxSlippageBps",
          "type": "uint256"
        }
      ],
      "name": "withdrawFromStrategy",
      "outputs": [
        {
          "internalType": "uint256",
          "name": "",
          "type": "uint256"
        }
      ],
      "stateMutability": "nonpayable",
      "type": "function"
    }
  ],
  "bytecode": "0x60a06040523480156200001157600080fd5b5060405162002dd938038062002dd9833981810160405281019062000037919062000234565b600073ffffffffffffffffffffffffffffffffffffffff168273ffffffffffffffffffffffffffffffffffffffff16036200009e576040517fb9ccadf400000000000000000000000000000000000000000000000000000000815260040160405180910390fd5b600073ffffffffffffffffffffffffffffffffffffffff168173ffffffffffffffffffffffffffffffffffffffff160362000105576040517fb9ccadf400000000000000000000000000000000000000000000000000000000815260040160405180910390fd5b8173ffffffffffffffffffffffffffffffffffffffff1660808173ffffffffffffffffffffffffffffffffffffffff1681525050336000806101000a81548173ffffffffffffffffffffffffffffffffffffffff021916908373ffffffffffffffffffffffffffffffffffffffff16021790555080600160006101000a81548173ffffffffffffffffffffffffffffffffffffffff021916908373ffffffffffffffffffffffffffffffffffffffff160217905550600060068190555050506200027b565b600080fd5b600073ffffffffffffffffffffffffffffffffffffffff82169050919050565b6000620001fc82620001cf565b9050919050565b6200020e81620001ef565b81146200021a57600080fd5b50565b6000815190506200022e8162000203565b92915050565b600080604083850312156200024e576200024d620001ca565b5b60006200025e858286016200021d565b925050602062000271858286016200021d565b9150509250929050565b608051612b34620002a560003960008181610c36015281816110e601526119500152612b346000f3fe608060405234801561001057600080fd5b50600436106101585760003560e01c806382299a5c116100c3578063ca0ab0751161007c578063ca0ab0751461043b578063cf98ff5714610459578063cfc0cc3414610489578063d574ea3d146104bc578063e74c0d76146104ec578063f96d7b801461050857610158565b806382299a5c146103515780638da5cb5b1461036f578063902a92481461038d57806399fe7396146103bd578063b0656c39146103db578063c40ce7311461040b57610158565b806338d52e0f1161011557806338d52e0f1461026b5780634f8967b1146102895780635b1fc7d8146102a55780635d88fac7146102c15780636f1e7379146102f15780636fedb10c1461032157610158565b806301e1d1141461015d578063108353451461017b5780631de9c11b146101ab57806324fc8545146101db57806331b8ca8e1461020b57806335b7efcb1461023b575b600080fd5b610165610526565b6040516101729190612249565b60405180910390f35b61019560048036038101906101909190612295565b610826565b6040516101a29190612249565b60405180910390f35b6101c560048036038101906101c09190612346565b610f96565b6040516101d29190612249565b60405180910390f35b6101f560048036038101906101f09190612386565b610fbb565b6040516102029190612249565b60405180910390f35b610225600480360381019061022091906123b3565b610fd3565b6040516102329190612249565b60405180910390f35b610255600480360381019061025091906123b3565b6110cc565b6040516102629190612249565b60405180910390f35b6102736110e4565b60405161028091906123ef565b60405180910390f35b6102a3600480360381019061029e919061240a565b611108565b005b6102bf60048036038101906102ba919061244a565b611306565b005b6102db60048036038101906102d69190612346565b6116b1565b6040516102e89190612249565b60405180910390f35b61030b60048036038101906103069190612386565b61170c565b6040516103189190612249565b60405180910390f35b61033b60048036038101906103369190612386565b61171e565b60405161034891906124b8565b60405180910390f35b61035961173e565b6040516103669190612249565b60405180910390f35b6103776117f8565b60405161038491906123ef565b60405180910390f35b6103a760048036038101906103a29190612386565b61181c565b6040516103b491906124b8565b60405180910390f35b6103c5611846565b6040516103d29190612249565b60405180910390f35b6103f560048036038101906103f0919061240a565b611850565b6040516104029190612249565b60405180910390f35b61042560048036038101906104209190612386565b611c87565b60405161043291906124b8565b60405180910390f35b610443611ca7565b60405161045091906123ef565b60405180910390f35b610473600480360381019061046e9190612386565b611ccd565b6040516104809190612249565b60405180910390f35b6104a3600480360381019061049e9190612386565b611ce5565b6040516104b394939291906124d3565b60405180910390f35b6104d660048036038101906104d19190612386565b611d77565b6040516104e391906123ef565b60405180910390f35b61050660048036038101906105019190612544565b611daa565b005b610510611f31565b60405161051d9190612249565b60405180910390f35b600080600090506000600190505b600a811161081e5760006002600083815260200190815260200160002060009054906101000a900473ffffffffffffffffffffffffffffffffffffffff169050600073ffffffffffffffffffffffffffffffffffffffff168173ffffffffffffffffffffffffffffffffffffffff16141580156105ce57506004600083815260200190815260200160002060009054906101000a900460ff165b1561080a576000808273ffffffffffffffffffffffffffffffffffffffff166040516024016040516020818303038152906040527f5c975abb000000000000000000000000000000000000000000000000000000007bffffffffffffffffffffffffffffffffffffffffffffffffffffffff19166020820180517bffffffffffffffffffffffffffffffffffffffffffffffffffffffff838183161783525050505060405161067d91906125f5565b600060405180830381855afa9150503d80600081146106b8576040519150601f19603f3d011682016040523d82523d6000602084013e6106bd565b606091505b5091509150600082156106e157818060200190518101906106de9190612621565b90505b80610806576000808573ffffffffffffffffffffffffffffffffffffffff166040516024016040516020818303038152906040527f01e1d114000000000000000000000000000000000000000000000000000000007bffffffffffffffffffffffffffffffffffffffffffffffffffffffff19166020820180517bffffffffffffffffffffffffffffffffffffffffffffffffffffffff838183161783525050505060405161079091906125f5565b600060405180830381855afa9150503d80600081146107cb576040519150601f19603f3d011682016040523d82523d6000602084013e6107d0565b606091505b50915091508115610803576000818060200190518101906107f19190612663565b905080896107ff91906126bf565b9850505b50505b5050505b508080610816906126f3565b915050610534565b508091505090565b600061083184611f37565b61083a8461202a565b6005600085815260200190815260200160002060009054906101000a900460ff1615610892576040517f437e56d800000000000000000000000000000000000000000000000000000000815260040160405180910390fd5b600083036108cc576040517f0565956600000000000000000000000000000000000000000000000000000000815260040160405180910390fd5b60006002600086815260200190815260200160002060009054906101000a900473ffffffffffffffffffffffffffffffffffffffff1690506000808273ffffffffffffffffffffffffffffffffffffffff166040516024016040516020818303038152906040527f01e1d114000000000000000000000000000000000000000000000000000000007bffffffffffffffffffffffffffffffffffffffffffffffffffffffff19166020820180517bffffffffffffffffffffffffffffffffffffffffffffffffffffffff83818316178352505050506040516109ae91906125f5565b600060405180830381855afa9150503d80600081146109e9576040519150601f19603f3d011682016040523d82523d6000602084013e6109ee565b606091505b509150915081610a33576040517f08c379a0000000000000000000000000000000000000000000000000000000008152600401610a2a90612798565b60405180910390fd5b80806020019051810190610a479190612663565b861115610a80576040517f5ee2579700000000000000000000000000000000000000000000000000000000815260040160405180910390fd5b8273ffffffffffffffffffffffffffffffffffffffff1686604051602401610aa89190612249565b6040516020818303038152906040527f48b19335000000000000000000000000000000000000000000000000000000007bffffffffffffffffffffffffffffffffffffffffffffffffffffffff19166020820180517bffffffffffffffffffffffffffffffffffffffffffffffffffffffff8381831617835250505050604051610b3291906125f5565b6000604051808303816000865af19150503d8060008114610b6f576040519150601f19603f3d011682016040523d82523d6000602084013e610b74565b606091505b50508092505081610bba576040517f08c379a0000000000000000000000000000000000000000000000000000000008152600401610bb190612804565b60405180910390fd5b6000869050600061271087612710610bd29190612824565b89610bdd9190612858565b610be791906128c9565b905080821015610c32578782886040517f3f13d14f000000000000000000000000000000000000000000000000000000008152600401610c29939291906128fa565b60405180910390fd5b60007f000000000000000000000000000000000000000000000000000000000000000090508073ffffffffffffffffffffffffffffffffffffffff166370a08231306040518263ffffffff1660e01b8152600401610c9091906123ef565b602060405180830381865afa158015610cad573d6000803e3d6000fd5b505050506040513d601f19601f82011682018060405250810190610cd19190612663565b831115610d0a576040517f5ee2579700000000000000000000000000000000000000000000000000000000815260040160405180910390fd5b6000600860008c81526020019081526020016000205490506000818511610d56578482610d379190612824565b905080600860008e815260200190815260200160002081905550610d74565b600090506000600860008e8152602001908152602001600020819055505b6000600960003373ffffffffffffffffffffffffffffffffffffffff1673ffffffffffffffffffffffffffffffffffffffff16815260200190815260200160002060008e8152602001908152602001600020549050808611610e35578581610ddc9190612824565b600960003373ffffffffffffffffffffffffffffffffffffffff1673ffffffffffffffffffffffffffffffffffffffff16815260200190815260200160002060008f815260200190815260200160002081905550610e8c565b6000600960003373ffffffffffffffffffffffffffffffffffffffff1673ffffffffffffffffffffffffffffffffffffffff16815260200190815260200160002060008f8152602001908152602001600020819055505b8373ffffffffffffffffffffffffffffffffffffffff1663a9059cbb33886040518363ffffffff1660e01b8152600401610ec7929190612931565b6020604051808303816000875af1158015610ee6573d6000803e3d6000fd5b505050506040513d601f19601f82011682018060405250810190610f0a9190612621565b610f49576040517f08c379a0000000000000000000000000000000000000000000000000000000008152600401610f40906129a6565b60405180910390fd5b8c7f1c0fe44985b0714eef17daed08f629189ea5cc70d436b00e4fbaabad790bdb9e8784604051610f7b9291906129c6565b60405180910390a28599505050505050505050509392505050565b6009602052816000526040600020602052806000526040600020600091509150505481565b60076020528060005260406000206000915090505481565b600080600090506000600190505b600a81116110c257600073ffffffffffffffffffffffffffffffffffffffff166002600083815260200190815260200160002060009054906101000a900473ffffffffffffffffffffffffffffffffffffffff1673ffffffffffffffffffffffffffffffffffffffff16146110af57600960008573ffffffffffffffffffffffffffffffffffffffff1673ffffffffffffffffffffffffffffffffffffffff168152602001908152602001600020600082815260200190815260200160002054826110ac91906126bf565b91505b80806110ba906126f3565b915050610fe1565b5080915050919050565b60036020528060005260406000206000915090505481565b7f000000000000000000000000000000000000000000000000000000000000000081565b60008054906101000a900473ffffffffffffffffffffffffffffffffffffffff1673ffffffffffffffffffffffffffffffffffffffff163373ffffffffffffffffffffffffffffffffffffffff161461118d576040517fe0d68d2500000000000000000000000000000000000000000000000000000000815260040160405180910390fd5b81600073ffffffffffffffffffffffffffffffffffffffff166002600083815260200190815260200160002060009054906101000a900473ffffffffffffffffffffffffffffffffffffffff1673ffffffffffffffffffffffffffffffffffffffff1603611227576040517f6c27b64600000000000000000000000000000000000000000000000000000000815260040160405180910390fd5b600860008481526020019081526020016000205482101561129657828260086000868152602001908152602001600020546040517f394caa0100000000000000000000000000000000000000000000000000000000815260040161128d939291906128fa565b60405180910390fd5b600060076000858152602001908152602001600020549050826007600086815260200190815260200160002081905550837f71ff770a48ee23b65f24eb08b58b6d618fd146ae4d10bc5b92800e88d788e48382856040516112f89291906129c6565b60405180910390a250505050565b60008054906101000a900473ffffffffffffffffffffffffffffffffffffffff1673ffffffffffffffffffffffffffffffffffffffff163373ffffffffffffffffffffffffffffffffffffffff161461138b576040517fe0d68d2500000000000000000000000000000000000000000000000000000000815260040160405180910390fd5b600073ffffffffffffffffffffffffffffffffffffffff168273ffffffffffffffffffffffffffffffffffffffff16036113f1576040517fb9ccadf400000000000000000000000000000000000000000000000000000000815260040160405180910390fd5b600073ffffffffffffffffffffffffffffffffffffffff166002600085815260200190815260200160002060009054906101000a900473ffffffffffffffffffffffffffffffffffffffff1673ffffffffffffffffffffffffffffffffffffffff161461148a576040517f15752b8e00000000000000000000000000000000000000000000000000000000815260040160405180910390fd5b6000600360008473ffffffffffffffffffffffffffffffffffffffff1673ffffffffffffffffffffffffffffffffffffffff1681526020019081526020016000205414611503576040517f15752b8e00000000000000000000000000000000000000000000000000000000815260040160405180910390fd5b60008314806115125750600a83115b15611549576040517f6c27b64600000000000000000000000000000000000000000000000000000000815260040160405180910390fd5b816002600085815260200190815260200160002060006101000a81548173ffffffffffffffffffffffffffffffffffffffff021916908373ffffffffffffffffffffffffffffffffffffffff16021790555082600360008473ffffffffffffffffffffffffffffffffffffffff1673ffffffffffffffffffffffffffffffffffffffff1681526020019081526020016000208190555080600760008581526020019081526020016000208190555060016004600085815260200190815260200160002060006101000a81548160ff021916908315150217905550600060086000858152602001908152602001600020819055506116458361202a565b60066000815480929190611658906126f3565b91905055508173ffffffffffffffffffffffffffffffffffffffff16837f8db5cdd6fa274c09a73a6b8b4560d9c6fa3f7b91709418a3e5bda40fc32ba731836040516116a49190612249565b60405180910390a3505050565b6000600960008473ffffffffffffffffffffffffffffffffffffffff1673ffffffffffffffffffffffffffffffffffffffff168152602001908152602001600020600083815260200190815260200160002054905092915050565b6000611717826121d7565b9050919050565b60056020528060005260406000206000915054906101000a900460ff1681565b600080600090506000600190505b600a81116117f057600073ffffffffffffffffffffffffffffffffffffffff166002600083815260200190815260200160002060009054906101000a900473ffffffffffffffffffffffffffffffffffffffff1673ffffffffffffffffffffffffffffffffffffffff16146117dd576008600082815260200190815260200160002054826117da91906126bf565b91505b80806117e8906126f3565b91505061174c565b508091505090565b60008054906101000a900473ffffffffffffffffffffffffffffffffffffffff1681565b60006004600083815260200190815260200160002060009054906101000a900460ff169050919050565b6000600654905090565b600061185b83611f37565b6118648361202a565b6005600084815260200190815260200160002060009054906101000a900460ff16156118bc576040517f437e56d800000000000000000000000000000000000000000000000000000000815260040160405180910390fd5b600082036118f6576040517f0565956600000000000000000000000000000000000000000000000000000000815260040160405180910390fd5b6000611901846121d7565b90508083111561194c578383826040517f394caa01000000000000000000000000000000000000000000000000000000008152600401611943939291906128fa565b60405180910390fd5b60007f000000000000000000000000000000000000000000000000000000000000000090508073ffffffffffffffffffffffffffffffffffffffff166323b872dd3330876040518463ffffffff1660e01b81526004016119ae939291906129ef565b6020604051808303816000875af11580156119cd573d6000803e3d6000fd5b505050506040513d601f19601f820116820180604052508101906119f19190612621565b611a30576040517f08c379a0000000000000000000000000000000000000000000000000000000008152600401611a2790612a72565b60405180910390fd5b60006002600087815260200190815260200160002060009054906101000a900473ffffffffffffffffffffffffffffffffffffffff1673ffffffffffffffffffffffffffffffffffffffff1685604051602401611a8d9190612249565b6040516020818303038152906040527fd33b0aa7000000000000000000000000000000000000000000000000000000007bffffffffffffffffffffffffffffffffffffffffffffffffffffffff19166020820180517bffffffffffffffffffffffffffffffffffffffffffffffffffffffff8381831617835250505050604051611b1791906125f5565b6000604051808303816000865af19150503d8060008114611b54576040519150601f19603f3d011682016040523d82523d6000602084013e611b59565b606091505b5050905080611b9d576040517f08c379a0000000000000000000000000000000000000000000000000000000008152600401611b9490612ade565b60405180910390fd5b84600860008881526020019081526020016000206000828254611bc091906126bf565b9250508190555084600960003373ffffffffffffffffffffffffffffffffffffffff1673ffffffffffffffffffffffffffffffffffffffff16815260200190815260200160002060008881526020019081526020016000206000828254611c2791906126bf565b92505081905550857ffd4994c53f4c013d53ace40a5259fee4aa6e133a11700477d16a4fe1e8cd4fa486600860008a815260200190815260200160002054604051611c739291906129c6565b60405180910390a284935050505092915050565b60046020528060005260406000206000915054906101000a900460ff1681565b600160009054906101000a900473ffffffffffffffffffffffffffffffffffffffff1681565b60086020528060005260406000206000915090505481565b6000806000806002600086815260200190815260200160002060009054906101000a900473ffffffffffffffffffffffffffffffffffffffff1693506004600086815260200190815260200160002060009054906101000a900460ff16925060076000868152602001908152602001600020549150600860008681526020019081526020016000205490509193509193565b60026020528060005260406000206000915054906101000a900473ffffffffffffffffffffffffffffffffffffffff1681565b60008054906101000a900473ffffffffffffffffffffffffffffffffffffffff1673ffffffffffffffffffffffffffffffffffffffff163373ffffffffffffffffffffffffffffffffffffffff1614611e2f576040517fe0d68d2500000000000000000000000000000000000000000000000000000000815260040160405180910390fd5b81600073ffffffffffffffffffffffffffffffffffffffff166002600083815260200190815260200160002060009054906101000a900473ffffffffffffffffffffffffffffffffffffffff1673ffffffffffffffffffffffffffffffffffffffff1603611ec9576040517f6c27b64600000000000000000000000000000000000000000000000000000000815260040160405180910390fd5b816004600085815260200190815260200160002060006101000a81548160ff021916908315150217905550827f21f8687bb3037314db2b40a72174abdab95df4c003eef36cf35f9fea657d893483604051611f2491906124b8565b60405180910390a2505050565b60065481565b600073ffffffffffffffffffffffffffffffffffffffff166002600083815260200190815260200160002060009054906101000a900473ffffffffffffffffffffffffffffffffffffffff1673ffffffffffffffffffffffffffffffffffffffff1603611fd0576040517f6c27b64600000000000000000000000000000000000000000000000000000000815260040160405180910390fd5b6004600082815260200190815260200160002060009054906101000a900460ff16612027576040517f25f3596600000000000000000000000000000000000000000000000000000000815260040160405180910390fd5b50565b60006002600083815260200190815260200160002060009054906101000a900473ffffffffffffffffffffffffffffffffffffffff169050600073ffffffffffffffffffffffffffffffffffffffff168173ffffffffffffffffffffffffffffffffffffffff160361209c57506121d4565b6000808273ffffffffffffffffffffffffffffffffffffffff166040516024016040516020818303038152906040527f5c975abb000000000000000000000000000000000000000000000000000000007bffffffffffffffffffffffffffffffffffffffffffffffffffffffff19166020820180517bffffffffffffffffffffffffffffffffffffffffffffffffffffffff838183161783525050505060405161214691906125f5565b600060405180830381855afa9150503d8060008114612181576040519150601f19603f3d011682016040523d82523d6000602084013e612186565b606091505b509150915081156121d057808060200190518101906121a59190612621565b6005600086815260200190815260200160002060006101000a81548160ff0219169083151502179055505b5050505b50565b6000806007600084815260200190815260200160002054905060006008600085815260200190815260200160002054905080821161221a5760009250505061222b565b80826122269190612824565b925050505b919050565b6000819050919050565b61224381612230565b82525050565b600060208201905061225e600083018461223a565b92915050565b600080fd5b61227281612230565b811461227d57600080fd5b50565b60008135905061228f81612269565b92915050565b6000806000606084860312156122ae576122ad612264565b5b60006122bc86828701612280565b93505060206122cd86828701612280565b92505060406122de86828701612280565b9150509250925092565b600073ffffffffffffffffffffffffffffffffffffffff82169050919050565b6000612313826122e8565b9050919050565b61232381612308565b811461232e57600080fd5b50565b6000813590506123408161231a565b92915050565b6000806040838503121561235d5761235c612264565b5b600061236b85828601612331565b925050602061237c85828601612280565b9150509250929050565b60006020828403121561239c5761239b612264565b5b60006123aa84828501612280565b91505092915050565b6000602082840312156123c9576123c8612264565b5b60006123d784828501612331565b91505092915050565b6123e981612308565b82525050565b600060208201905061240460008301846123e0565b92915050565b6000806040838503121561242157612420612264565b5b600061242f85828601612280565b925050602061244085828601612280565b9150509250929050565b60008060006060848603121561246357612462612264565b5b600061247186828701612280565b935050602061248286828701612331565b925050604061249386828701612280565b9150509250925092565b60008115159050919050565b6124b28161249d565b82525050565b60006020820190506124cd60008301846124a9565b92915050565b60006080820190506124e860008301876123e0565b6124f560208301866124a9565b612502604083018561223a565b61250f606083018461223a565b95945050505050565b6125218161249d565b811461252c57600080fd5b50565b60008135905061253e81612518565b92915050565b6000806040838503121561255b5761255a612264565b5b600061256985828601612280565b925050602061257a8582860161252f565b9150509250929050565b600081519050919050565b600081905092915050565b60005b838110156125b857808201518184015260208101905061259d565b60008484015250505050565b60006125cf82612584565b6125d9818561258f565b93506125e981856020860161259a565b80840191505092915050565b600061260182846125c4565b915081905092915050565b60008151905061261b81612518565b92915050565b60006020828403121561263757612636612264565b5b60006126458482850161260c565b91505092915050565b60008151905061265d81612269565b92915050565b60006020828403121561267957612678612264565b5b60006126878482850161264e565b91505092915050565b7f4e487b7100000000000000000000000000000000000000000000000000000000600052601160045260246000fd5b60006126ca82612230565b91506126d583612230565b92508282019050808211156126ed576126ec612690565b5b92915050565b60006126fe82612230565b91507fffffffffffffffffffffffffffffffffffffffffffffffffffffffffffffffff82036127305761272f612690565b5b600182019050919050565b600082825260208201905092915050565b7f537472617465677920746f74616c4173736574732063616c6c206661696c6564600082015250565b600061278260208361273b565b915061278d8261274c565b602082019050919050565b600060208201905081810360008301526127b181612775565b9050919050565b7f5374726174656779207769746864726177616c206661696c6564000000000000600082015250565b60006127ee601a8361273b565b91506127f9826127b8565b602082019050919050565b6000602082019050818103600083015261281d816127e1565b9050919050565b600061282f82612230565b915061283a83612230565b925082820390508181111561285257612851612690565b5b92915050565b600061286382612230565b915061286e83612230565b925082820261287c81612230565b9150828204841483151761289357612892612690565b5b5092915050565b7f4e487b7100000000000000000000000000000000000000000000000000000000600052601260045260246000fd5b60006128d482612230565b91506128df83612230565b9250826128ef576128ee61289a565b5b828204905092915050565b600060608201905061290f600083018661223a565b61291c602083018561223a565b612929604083018461223a565b949350505050565b600060408201905061294660008301856123e0565b612953602083018461223a565b9392505050565b7f5472616e7366657220746f2073656e646572206661696c656400000000000000600082015250565b600061299060198361273b565b915061299b8261295a565b602082019050919050565b600060208201905081810360008301526129bf81612983565b9050919050565b60006040820190506129db600083018561223a565b6129e8602083018461223a565b9392505050565b6000606082019050612a0460008301866123e0565b612a1160208301856123e0565b612a1e604083018461223a565b949350505050565b7f5472616e73666572206661696c65640000000000000000000000000000000000600082015250565b6000612a5c600f8361273b565b9150612a6782612a26565b602082019050919050565b60006020820190508181036000830152612a8b81612a4f565b9050919050565b7f5374726174656779206465706f736974206661696c6564000000000000000000600082015250565b6000612ac860178361273b565b9150612ad382612a92565b602082019050919050565b60006020820190508181036000830152612af781612abb565b905091905056fea2646970667358221220f88acf54c751eeaebd8cf815c1cca1280a1a43a22345834464f0a65a944587b864736f6c63430008130033",
  "linkReferences": {},
  "deployedLinkReferences": {}
}